{
  "_format": "hh-sol-artifact-1",
  "contractName": "Staking",
  "sourceName": "contracts/Staking.sol",
  "abi": [
    {
      "inputs": [
        {
          "internalType": "uint256",
          "name": "_start",
          "type": "uint256"
        },
        {
          "internalType": "uint256",
          "name": "_end",
          "type": "uint256"
        },
        {
          "internalType": "uint256",
          "name": "_rewardsMax",
          "type": "uint256"
        },
        {
          "internalType": "address",
          "name": "_stableCoin",
          "type": "address"
        },
        {
          "internalType": "address",
          "name": "_factory",
          "type": "address"
        },
        {
          "internalType": "uint256",
          "name": "_tokenPrice",
          "type": "uint256"
        },
        {
          "internalType": "uint256",
          "name": "_talentPrice",
          "type": "uint256"
        }
      ],
      "stateMutability": "nonpayable",
      "type": "constructor"
    },
    {
      "anonymous": false,
      "inputs": [
        {
          "indexed": true,
          "internalType": "address",
          "name": "owner",
          "type": "address"
        },
        {
          "indexed": true,
          "internalType": "address",
          "name": "talentToken",
          "type": "address"
        },
        {
          "indexed": false,
          "internalType": "uint256",
          "name": "stakerReward",
          "type": "uint256"
        },
        {
          "indexed": false,
          "internalType": "uint256",
          "name": "talentReward",
          "type": "uint256"
        }
      ],
      "name": "RewardClaim",
      "type": "event"
    },
    {
      "anonymous": false,
      "inputs": [
        {
          "indexed": true,
          "internalType": "address",
          "name": "owner",
          "type": "address"
        },
        {
          "indexed": true,
          "internalType": "address",
          "name": "talentToken",
          "type": "address"
        },
        {
          "indexed": false,
          "internalType": "uint256",
          "name": "stakerReward",
          "type": "uint256"
        },
        {
          "indexed": false,
          "internalType": "uint256",
          "name": "talentReward",
          "type": "uint256"
        }
      ],
      "name": "RewardWithdrawal",
      "type": "event"
    },
    {
      "anonymous": false,
      "inputs": [
        {
          "indexed": true,
          "internalType": "bytes32",
          "name": "role",
          "type": "bytes32"
        },
        {
          "indexed": true,
          "internalType": "bytes32",
          "name": "previousAdminRole",
          "type": "bytes32"
        },
        {
          "indexed": true,
          "internalType": "bytes32",
          "name": "newAdminRole",
          "type": "bytes32"
        }
      ],
      "name": "RoleAdminChanged",
      "type": "event"
    },
    {
      "anonymous": false,
      "inputs": [
        {
          "indexed": true,
          "internalType": "bytes32",
          "name": "role",
          "type": "bytes32"
        },
        {
          "indexed": true,
          "internalType": "address",
          "name": "account",
          "type": "address"
        },
        {
          "indexed": true,
          "internalType": "address",
          "name": "sender",
          "type": "address"
        }
      ],
      "name": "RoleGranted",
      "type": "event"
    },
    {
      "anonymous": false,
      "inputs": [
        {
          "indexed": true,
          "internalType": "bytes32",
          "name": "role",
          "type": "bytes32"
        },
        {
          "indexed": true,
          "internalType": "address",
          "name": "account",
          "type": "address"
        },
        {
          "indexed": true,
          "internalType": "address",
          "name": "sender",
          "type": "address"
        }
      ],
      "name": "RoleRevoked",
      "type": "event"
    },
    {
      "anonymous": false,
      "inputs": [
        {
          "indexed": true,
          "internalType": "address",
          "name": "owner",
          "type": "address"
        },
        {
          "indexed": true,
          "internalType": "address",
          "name": "talentToken",
          "type": "address"
        },
        {
          "indexed": false,
          "internalType": "uint256",
          "name": "talAmount",
          "type": "uint256"
        },
        {
          "indexed": false,
          "internalType": "bool",
          "name": "stable",
          "type": "bool"
        }
      ],
      "name": "Stake",
      "type": "event"
    },
    {
      "anonymous": false,
      "inputs": [
        {
          "indexed": true,
          "internalType": "address",
          "name": "talentToken",
          "type": "address"
        },
        {
          "indexed": true,
          "internalType": "address",
          "name": "talentTokenWallet",
          "type": "address"
        },
        {
          "indexed": false,
          "internalType": "uint256",
          "name": "reward",
          "type": "uint256"
        }
      ],
      "name": "TalentRewardWithdrawal",
      "type": "event"
    },
    {
      "anonymous": false,
      "inputs": [
        {
          "indexed": true,
          "internalType": "address",
          "name": "owner",
          "type": "address"
        },
        {
          "indexed": true,
          "internalType": "address",
          "name": "talentToken",
          "type": "address"
        },
        {
          "indexed": false,
          "internalType": "uint256",
          "name": "talAmount",
          "type": "uint256"
        }
      ],
      "name": "Unstake",
      "type": "event"
    },
    {
      "inputs": [],
      "name": "DEFAULT_ADMIN_ROLE",
      "outputs": [
        {
          "internalType": "bytes32",
          "name": "",
          "type": "bytes32"
        }
      ],
      "stateMutability": "view",
      "type": "function"
    },
    {
      "inputs": [],
      "name": "S",
      "outputs": [
        {
          "internalType": "uint256",
          "name": "",
          "type": "uint256"
        }
      ],
      "stateMutability": "view",
      "type": "function"
    },
    {
      "inputs": [],
      "name": "SAt",
      "outputs": [
        {
          "internalType": "uint256",
          "name": "",
          "type": "uint256"
        }
      ],
      "stateMutability": "view",
      "type": "function"
    },
    {
      "inputs": [],
      "name": "activeStakes",
      "outputs": [
        {
          "internalType": "uint256",
          "name": "",
          "type": "uint256"
        }
      ],
      "stateMutability": "view",
      "type": "function"
    },
    {
      "inputs": [],
      "name": "adminWithdraw",
      "outputs": [],
      "stateMutability": "nonpayable",
      "type": "function"
    },
    {
      "inputs": [
        {
          "internalType": "address",
          "name": "_owner",
          "type": "address"
        },
        {
          "internalType": "address",
          "name": "_talent",
          "type": "address"
        },
        {
          "internalType": "uint256",
          "name": "_currentTime",
          "type": "uint256"
        }
      ],
      "name": "calculateEstimatedReturns",
      "outputs": [
        {
          "internalType": "uint256",
          "name": "stakerRewards",
          "type": "uint256"
        },
        {
          "internalType": "uint256",
          "name": "talentRewards",
          "type": "uint256"
        }
      ],
      "stateMutability": "view",
      "type": "function"
    },
    {
      "inputs": [
        {
          "internalType": "address",
          "name": "_talent",
          "type": "address"
        }
      ],
      "name": "claimRewards",
      "outputs": [
        {
          "internalType": "bool",
          "name": "",
          "type": "bool"
        }
      ],
      "stateMutability": "nonpayable",
      "type": "function"
    },
    {
      "inputs": [
        {
          "internalType": "address",
          "name": "_owner",
          "type": "address"
        },
        {
          "internalType": "address",
          "name": "_talent",
          "type": "address"
        }
      ],
      "name": "claimRewardsOnBehalf",
      "outputs": [
        {
          "internalType": "bool",
          "name": "",
          "type": "bool"
        }
      ],
      "stateMutability": "nonpayable",
      "type": "function"
    },
    {
      "inputs": [
        {
          "internalType": "uint256",
          "name": "_talent",
          "type": "uint256"
        }
      ],
      "name": "convertTalentToToken",
      "outputs": [
        {
          "internalType": "uint256",
          "name": "",
          "type": "uint256"
        }
      ],
      "stateMutability": "view",
      "type": "function"
    },
    {
      "inputs": [
        {
          "internalType": "uint256",
          "name": "_tal",
          "type": "uint256"
        }
      ],
      "name": "convertTokenToTalent",
      "outputs": [
        {
          "internalType": "uint256",
          "name": "",
          "type": "uint256"
        }
      ],
      "stateMutability": "view",
      "type": "function"
    },
    {
      "inputs": [
        {
          "internalType": "uint256",
          "name": "_usd",
          "type": "uint256"
        }
      ],
      "name": "convertUsdToTalent",
      "outputs": [
        {
          "internalType": "uint256",
          "name": "",
          "type": "uint256"
        }
      ],
      "stateMutability": "view",
      "type": "function"
    },
    {
      "inputs": [
        {
          "internalType": "uint256",
          "name": "_usd",
          "type": "uint256"
        }
      ],
      "name": "convertUsdToToken",
      "outputs": [
        {
          "internalType": "uint256",
          "name": "",
          "type": "uint256"
        }
      ],
      "stateMutability": "view",
      "type": "function"
    },
    {
      "inputs": [],
      "name": "disable",
      "outputs": [],
      "stateMutability": "nonpayable",
      "type": "function"
    },
    {
      "inputs": [],
      "name": "disabled",
      "outputs": [
        {
          "internalType": "bool",
          "name": "",
          "type": "bool"
        }
      ],
      "stateMutability": "view",
      "type": "function"
    },
    {
      "inputs": [],
      "name": "end",
      "outputs": [
        {
          "internalType": "uint256",
          "name": "",
          "type": "uint256"
        }
      ],
      "stateMutability": "view",
      "type": "function"
    },
    {
      "inputs": [],
      "name": "factory",
      "outputs": [
        {
          "internalType": "address",
          "name": "",
          "type": "address"
        }
      ],
      "stateMutability": "view",
      "type": "function"
    },
    {
      "inputs": [
        {
          "internalType": "bytes32",
          "name": "role",
          "type": "bytes32"
        }
      ],
      "name": "getRoleAdmin",
      "outputs": [
        {
          "internalType": "bytes32",
          "name": "",
          "type": "bytes32"
        }
      ],
      "stateMutability": "view",
      "type": "function"
    },
    {
      "inputs": [
        {
          "internalType": "bytes32",
          "name": "role",
          "type": "bytes32"
        },
        {
          "internalType": "address",
          "name": "account",
          "type": "address"
        }
      ],
      "name": "grantRole",
      "outputs": [],
      "stateMutability": "nonpayable",
      "type": "function"
    },
    {
      "inputs": [
        {
          "internalType": "bytes32",
          "name": "role",
          "type": "bytes32"
        },
        {
          "internalType": "address",
          "name": "account",
          "type": "address"
        }
      ],
      "name": "hasRole",
      "outputs": [
        {
          "internalType": "bool",
          "name": "",
          "type": "bool"
        }
      ],
      "stateMutability": "view",
      "type": "function"
    },
    {
      "inputs": [
        {
          "internalType": "address",
          "name": "",
          "type": "address"
        }
      ],
      "name": "maxSForTalent",
      "outputs": [
        {
          "internalType": "uint256",
          "name": "",
          "type": "uint256"
        }
      ],
      "stateMutability": "view",
      "type": "function"
    },
    {
      "inputs": [
        {
          "internalType": "address",
          "name": "",
          "type": "address"
        },
        {
          "internalType": "address",
          "name": "_sender",
          "type": "address"
        },
        {
          "internalType": "uint256",
          "name": "_amount",
          "type": "uint256"
        },
        {
          "internalType": "bytes",
          "name": "data",
          "type": "bytes"
        }
      ],
      "name": "onTransferReceived",
      "outputs": [
        {
          "internalType": "bytes4",
          "name": "",
          "type": "bytes4"
        }
      ],
      "stateMutability": "nonpayable",
      "type": "function"
    },
    {
      "inputs": [
        {
          "internalType": "bytes32",
          "name": "role",
          "type": "bytes32"
        },
        {
          "internalType": "address",
          "name": "account",
          "type": "address"
        }
      ],
      "name": "renounceRole",
      "outputs": [],
      "stateMutability": "nonpayable",
      "type": "function"
    },
    {
      "inputs": [
        {
          "internalType": "bytes32",
          "name": "role",
          "type": "bytes32"
        },
        {
          "internalType": "address",
          "name": "account",
          "type": "address"
        }
      ],
      "name": "revokeRole",
      "outputs": [],
      "stateMutability": "nonpayable",
      "type": "function"
    },
    {
      "inputs": [],
      "name": "rewardsGiven",
      "outputs": [
        {
          "internalType": "uint256",
          "name": "",
          "type": "uint256"
        }
      ],
      "stateMutability": "view",
      "type": "function"
    },
    {
      "inputs": [],
      "name": "rewardsLeft",
      "outputs": [
        {
          "internalType": "uint256",
          "name": "",
          "type": "uint256"
        }
      ],
      "stateMutability": "view",
      "type": "function"
    },
    {
      "inputs": [],
      "name": "rewardsMax",
      "outputs": [
        {
          "internalType": "uint256",
          "name": "",
          "type": "uint256"
        }
      ],
      "stateMutability": "view",
      "type": "function"
    },
    {
      "inputs": [
        {
          "internalType": "address",
          "name": "_token",
          "type": "address"
        }
      ],
      "name": "setToken",
      "outputs": [],
      "stateMutability": "nonpayable",
      "type": "function"
    },
    {
      "inputs": [],
      "name": "stableCoin",
      "outputs": [
        {
          "internalType": "address",
          "name": "",
          "type": "address"
        }
      ],
      "stateMutability": "view",
      "type": "function"
    },
    {
      "inputs": [],
      "name": "stableCoinBalance",
      "outputs": [
        {
          "internalType": "uint256",
          "name": "",
          "type": "uint256"
        }
      ],
      "stateMutability": "view",
      "type": "function"
    },
    {
      "inputs": [
        {
          "internalType": "address",
          "name": "_talent",
          "type": "address"
        }
      ],
      "name": "stakeAvailability",
      "outputs": [
        {
          "internalType": "uint256",
          "name": "",
          "type": "uint256"
        }
      ],
      "stateMutability": "view",
      "type": "function"
    },
    {
      "inputs": [
        {
          "internalType": "address",
          "name": "_talent",
          "type": "address"
        },
        {
          "internalType": "uint256",
          "name": "_amount",
          "type": "uint256"
        }
      ],
      "name": "stakeStable",
      "outputs": [
        {
          "internalType": "bool",
          "name": "",
          "type": "bool"
        }
      ],
      "stateMutability": "nonpayable",
      "type": "function"
    },
    {
      "inputs": [
        {
          "internalType": "address",
          "name": "",
          "type": "address"
        },
        {
          "internalType": "address",
          "name": "",
          "type": "address"
        }
      ],
      "name": "stakes",
      "outputs": [
        {
          "internalType": "uint256",
          "name": "tokenAmount",
          "type": "uint256"
        },
        {
          "internalType": "uint256",
          "name": "talentAmount",
          "type": "uint256"
        },
        {
          "internalType": "uint256",
          "name": "lastCheckpointAt",
          "type": "uint256"
        },
        {
          "internalType": "uint256",
          "name": "S",
          "type": "uint256"
        },
        {
          "internalType": "bool",
          "name": "finishedAccumulating",
          "type": "bool"
        }
      ],
      "stateMutability": "view",
      "type": "function"
    },
    {
      "inputs": [],
      "name": "start",
      "outputs": [
        {
          "internalType": "uint256",
          "name": "",
          "type": "uint256"
        }
      ],
      "stateMutability": "view",
      "type": "function"
    },
    {
      "inputs": [
        {
          "internalType": "bytes4",
          "name": "interfaceId",
          "type": "bytes4"
        }
      ],
      "name": "supportsInterface",
      "outputs": [
        {
          "internalType": "bool",
          "name": "",
          "type": "bool"
        }
      ],
      "stateMutability": "view",
      "type": "function"
    },
    {
      "inputs": [
        {
          "internalType": "uint256",
          "name": "_stableAmount",
          "type": "uint256"
        }
      ],
      "name": "swapStableForToken",
      "outputs": [],
      "stateMutability": "nonpayable",
      "type": "function"
    },
    {
      "inputs": [],
      "name": "talentPrice",
      "outputs": [
        {
          "internalType": "uint256",
          "name": "",
          "type": "uint256"
        }
      ],
      "stateMutability": "view",
      "type": "function"
    },
    {
      "inputs": [
        {
          "internalType": "address",
          "name": "",
          "type": "address"
        }
      ],
      "name": "talentRedeemableRewards",
      "outputs": [
        {
          "internalType": "uint256",
          "name": "",
          "type": "uint256"
        }
      ],
      "stateMutability": "view",
      "type": "function"
    },
    {
      "inputs": [],
      "name": "token",
      "outputs": [
        {
          "internalType": "address",
          "name": "",
          "type": "address"
        }
      ],
      "stateMutability": "view",
      "type": "function"
    },
    {
      "inputs": [],
      "name": "tokenBalance",
      "outputs": [
        {
          "internalType": "uint256",
          "name": "",
          "type": "uint256"
        }
      ],
      "stateMutability": "view",
      "type": "function"
    },
    {
      "inputs": [],
      "name": "tokenPrice",
      "outputs": [
        {
          "internalType": "uint256",
          "name": "",
          "type": "uint256"
        }
      ],
      "stateMutability": "view",
      "type": "function"
    },
    {
      "inputs": [],
      "name": "totalAdjustedShares",
      "outputs": [
        {
          "internalType": "uint256",
          "name": "",
          "type": "uint256"
        }
      ],
      "stateMutability": "view",
      "type": "function"
    },
    {
      "inputs": [],
      "name": "totalShares",
      "outputs": [
        {
          "internalType": "uint256",
          "name": "",
          "type": "uint256"
        }
      ],
      "stateMutability": "view",
      "type": "function"
    },
    {
      "inputs": [],
      "name": "totalStableStored",
      "outputs": [
        {
          "internalType": "uint256",
          "name": "",
          "type": "uint256"
        }
      ],
      "stateMutability": "view",
      "type": "function"
    },
    {
      "inputs": [],
      "name": "totalTokensStaked",
      "outputs": [
        {
          "internalType": "uint256",
          "name": "",
          "type": "uint256"
        }
      ],
      "stateMutability": "view",
      "type": "function"
    },
    {
      "inputs": [
        {
          "internalType": "address",
          "name": "_talent",
          "type": "address"
        }
      ],
      "name": "withdrawRewards",
      "outputs": [
        {
          "internalType": "bool",
          "name": "",
          "type": "bool"
        }
      ],
      "stateMutability": "nonpayable",
      "type": "function"
    },
    {
      "inputs": [
        {
          "internalType": "address",
          "name": "_talent",
          "type": "address"
        }
      ],
      "name": "withdrawTalentRewards",
      "outputs": [
        {
          "internalType": "bool",
          "name": "",
          "type": "bool"
        }
      ],
      "stateMutability": "nonpayable",
      "type": "function"
    }
  ],
  "bytecode": "0x6101006040523480156200001257600080fd5b506040516200500a3803806200500a833981016040819052620000359162000272565b836001600160a01b0381166200009c5760405162461bcd60e51b815260206004820152602160248201527f737461626c652d636f696e2061646472657373206d7573742062652076616c696044820152601960fa1b60648201526084015b60405180910390fd5b60601b6001600160601b03191660805281620000fb5760405162461bcd60e51b815260206004820152601760248201527f5f746f6b656e50726963652063616e6e6f742062652030000000000000000000604482015260640162000093565b600081116200014d5760405162461bcd60e51b815260206004820152601860248201527f5f74616c656e7450726963652063616e6e6f7420626520300000000000000000604482015260640162000093565b60c087905260e086905260a085905260078054610100600160a81b0319166101006001600160a01b0386160217905560088290556009819055601087905562000198600033620001a5565b50505050505050620002da565b620001b18282620001b5565b5050565b6000828152602081815260408083206001600160a01b038516845290915290205460ff16620001b1576000828152602081815260408083206001600160a01b03851684529091529020805460ff19166001179055620002113390565b6001600160a01b0316816001600160a01b0316837f2f8788117e7eff1d82e926ec794901d17c78024a50270940304540a733656f0d60405160405180910390a45050565b80516001600160a01b03811681146200026d57600080fd5b919050565b600080600080600080600060e0888a0312156200028e57600080fd5b875196506020880151955060408801519450620002ae6060890162000255565b9350620002be6080890162000255565b925060a0880151915060c0880151905092959891949750929550565b60805160601c60a05160c05160e051614cad6200035d600039600081816106fc015281816112230152818161168b0152611e8c015260008181610647015281816111b3015261161b0152600081816106860152611bdd015260008181610532015281816111150152818161184e01528181611a500152611ddd0152614cad6000f3fe608060405234801561001057600080fd5b506004361061030a5760003560e01c8063904846731161019c578063b435842c116100ee578063ed2f236911610097578063efbe1c1c11610071578063efbe1c1c146106f7578063f18d20be1461071e578063fc0c546a1461072657600080fd5b8063ed2f2369146106ce578063ee070805146106d7578063ef5cfb8c146106e457600080fd5b8063d1990538116100c8578063d199053814610681578063d4ce5789146106a8578063d547741f146106bb57600080fd5b8063b435842c1461063a578063be9a655514610642578063c45a01551461066957600080fd5b8063a217fddf11610150578063aa0b01791161012a578063aa0b0179146105f6578063aef2200d1461061e578063b0e31b2d1461063157600080fd5b8063a217fddf14610574578063a4e47b661461057c578063a8bc58f2146105ee57600080fd5b8063977bee8e11610181578063977bee8e1461051a578063992642e51461052d5780639e1a4d191461056c57600080fd5b806390484673146104da57806391d14854146104e357600080fd5b80633dbf35631161026057806371f19f94116102095780637ff9b596116101e35780637ff9b5961461049257806388a7ca5c1461049b5780638ba2855d146104c757600080fd5b806371f19f941461044c5780637773a92b1461045f5780637eefc5251461047f57600080fd5b806343f49d891161023a57806343f49d89146104275780634be1c7961461043a5780636a0675cf1461044357600080fd5b80633dbf3563146103e157806342c0e5ef1461040157806342d866931461041457600080fd5b806325b58c87116102c257806336568abe1161029c57806336568abe146103b35780633a98ef39146103c65780633b039b9e146103ce57600080fd5b806325b58c871461038f5780632f2770db146103985780632f2ff15d146103a057600080fd5b80631ea18fc5116102f35780631ea18fc51461034c57806322b3a6a114610363578063248a9ca31461036c57600080fd5b806301ffc9a71461030f578063144fa6d714610337575b600080fd5b61032261031d366004614722565b610739565b60405190151581526020015b60405180910390f35b61034a610345366004614543565b610789565b005b61035560095481565b60405190815260200161032e565b610355600d5481565b61035561037a3660046146e4565b60009081526020819052604090206001015490565b610355600a5481565b61034a6109fb565b61034a6103ae3660046146fd565b610a72565b61034a6103c13660046146fd565b610a9d565b600b54610355565b6103226103dc366004614543565b610b29565b6103556103ef366004614543565b60056020526000908152604090205481565b61035561040f3660046146e4565b610d3c565b610322610422366004614543565b610d5e565b610355610435366004614543565b610e92565b610355600f5481565b610355600e5481565b61034a61045a3660046146e4565b610f6e565b61035561046d366004614543565b60066020526000908152604090205481565b61035561048d3660046146e4565b61119f565b61035560085481565b6104ae6104a93660046145f7565b6111af565b6040516001600160e01b0319909116815260200161032e565b6103226104d536600461457d565b611541565b61035560105481565b6103226104f13660046146fd565b6000918252602082815260408084206001600160a01b0393909316845291905290205460ff1690565b610322610528366004614696565b611617565b6105547f000000000000000000000000000000000000000000000000000000000000000081565b6040516001600160a01b03909116815260200161032e565b610355611b51565b610355600081565b6105c461058a36600461457d565b6002602081815260009384526040808520909152918352912080546001820154928201546003830154600490930154919392909160ff1685565b6040805195865260208601949094529284019190915260608301521515608082015260a00161032e565b610355611bd3565b6106096106043660046145b6565b611c10565b6040805192835260208301919091520161032e565b61035561062c3660046146e4565b611db7565b610355600b5481565b610355611dc5565b6103557f000000000000000000000000000000000000000000000000000000000000000081565b6007546105549061010090046001600160a01b031681565b6103557f000000000000000000000000000000000000000000000000000000000000000081565b6103556106b63660046146e4565b611e14565b61034a6106c93660046146fd565b611e37565b61035560035481565b6007546103229060ff1681565b6103226106f2366004614543565b611e5d565b6103557f000000000000000000000000000000000000000000000000000000000000000081565b61034a611e72565b600154610554906001600160a01b031681565b60006001600160e01b031982167f7965db0b00000000000000000000000000000000000000000000000000000000148061078357506301ffc9a760e01b6001600160e01b03198316145b92915050565b6001546001600160a01b0316156107e75760405162461bcd60e51b815260206004820152601460248201527f537461626c6520636f696e2064697361626c656400000000000000000000000060448201526064015b60405180910390fd5b6001600160a01b03811661083d5760405162461bcd60e51b815260206004820152601360248201527f41646472657373206d757374206265207365740000000000000000000000000060448201526064016107de565b6108706001600160a01b0382167f36372b07000000000000000000000000000000000000000000000000000000006120b8565b6108bc5760405162461bcd60e51b815260206004820152601760248201527f6e6f7420612076616c696420455243323020746f6b656e00000000000000000060448201526064016107de565b6000819050610974816001600160a01b03166395d89b416040518163ffffffff1660e01b815260040160006040518083038186803b1580156108fd57600080fd5b505afa158015610911573d6000803e3d6000fd5b505050506040513d6000823e601f3d908101601f19168201604052610939919081019061474c565b6040518060400160405280600381526020017f54414c00000000000000000000000000000000000000000000000000000000008152506120d4565b6109c05760405162461bcd60e51b815260206004820152601560248201527f746f6b656e206e616d65206973206e6f742054414c000000000000000000000060448201526064016107de565b50600180547fffffffffffffffffffffffff0000000000000000000000000000000000000000166001600160a01b0392909216919091179055565b6000610a0781336120e0565b60075460ff1615610a5a5760405162461bcd60e51b815260206004820152601060248201527f616c72656164792064697361626c65640000000000000000000000000000000060448201526064016107de565b610a6261215e565b506007805460ff19166001179055565b600082815260208190526040902060010154610a8e81336120e0565b610a9883836121a3565b505050565b6001600160a01b0381163314610b1b5760405162461bcd60e51b815260206004820152602f60248201527f416363657373436f6e74726f6c3a2063616e206f6e6c792072656e6f756e636560448201527f20726f6c657320666f722073656c66000000000000000000000000000000000060648201526084016107de565b610b258282612241565b5050565b6000610b3f6001546001600160a01b0316151590565b610b8b5760405162461bcd60e51b815260206004820152601560248201527f54414c20746f6b656e206e6f742079657420736574000000000000000000000060448201526064016107de565b816001600160a01b031663c4daa5936040518163ffffffff1660e01b815260040160206040518083038186803b158015610bc457600080fd5b505afa158015610bd8573d6000803e3d6000fd5b505050506040513d601f19601f82011682018060405250810190610bfc9190614560565b6001600160a01b0316336001600160a01b031614610c825760405162461bcd60e51b815260206004820152602d60248201527f6f6e6c79207468652074616c656e742063616e2077697468647261772074686560448201527f6972206f776e207368617265730000000000000000000000000000000000000060648201526084016107de565b6001600160a01b038281166000908152600560205260409081902054600154915163a9059cbb60e01b8152336004820152602481018290529092919091169063a9059cbb90604401602060405180830381600087803b158015610ce457600080fd5b505af1158015610cf8573d6000803e3d6000fd5b505050506040513d601f19601f82011682018060405250810190610d1c91906146c2565b5050506001600160a01b0316600090815260056020526040812055600190565b600060095482610d4c9190614967565b61078390670de0b6b3a7640000614b39565b6000610d746001546001600160a01b0316151590565b610dc05760405162461bcd60e51b815260206004820152601560248201527f54414c20746f6b656e206e6f742079657420736574000000000000000000000060448201526064016107de565b6011543390839060ff1615610de457610ddb338560006122c0565b60019250610e8b565b6011805460ff191660011790556001600160a01b038083166000908152600260209081526040808320938516835292905290812054610e2290612d59565b9050610e30338660006122c0565b600193506001600160a01b038084166000908152600260209081526040808320938616835292905220548190610e6590612d59565b600d54610e729190614921565b610e7c9190614b97565b600d55506011805460ff191690555b5050919050565b6000610e9d82612dd0565b610ee95760405162461bcd60e51b815260206004820152601860248201527f6e6f7420612076616c69642074616c656e7420746f6b656e000000000000000060448201526064016107de565b6000826001600160a01b031663aafa93716040518163ffffffff1660e01b815260040160206040518083038186803b158015610f2457600080fd5b505afa158015610f38573d6000803e3d6000fd5b505050506040513d601f19601f82011682018060405250810190610f5c91906147f9565b9050610f6781611e14565b9392505050565b6000610f7a81336120e0565b6001546001600160a01b0316610fd25760405162461bcd60e51b815260206004820152601560248201527f54414c20746f6b656e206e6f742079657420736574000000000000000000000060448201526064016107de565b600a5482111561104a5760405162461bcd60e51b815260206004820152602b60248201527f6e6f7420656e6f75676820737461626c6520636f696e206c65667420696e207460448201527f686520636f6e747261637400000000000000000000000000000000000000000060648201526084016107de565b60006110558361119f565b905082600a60008282546110699190614b97565b90915550506001546040516323b872dd60e01b8152336004820152306024820152604481018390526001600160a01b03909116906323b872dd90606401602060405180830381600087803b1580156110c057600080fd5b505af11580156110d4573d6000803e3d6000fd5b505050506040513d601f19601f820116820180604052508101906110f891906146c2565b5060405163a9059cbb60e01b8152336004820152602481018490527f00000000000000000000000000000000000000000000000000000000000000006001600160a01b03169063a9059cbb90604401602060405180830381600087803b15801561116157600080fd5b505af1158015611175573d6000803e3d6000fd5b505050506040513d601f19601f8201168201806040525081019061119991906146c2565b50505050565b600060085482610d4c9190614967565b60007f00000000000000000000000000000000000000000000000000000000000000004210156112215760405162461bcd60e51b815260206004820152601e60248201527f7374616b696e6720706572696f64206e6f74207965742073746172746564000060448201526064016107de565b7f00000000000000000000000000000000000000000000000000000000000000004211156112915760405162461bcd60e51b815260206004820152601f60248201527f7374616b696e6720706572696f6420616c72656164792066696e69736865640060448201526064016107de565b6001546001600160a01b03163314156113b75760075460ff16156112f75760405162461bcd60e51b815260206004820152601960248201527f7374616b696e6720686173206265656e2064697361626c65640000000000000060448201526064016107de565b600061133884848080601f016020809104026020016040519081016040528093929190818152602001838380828437600092019190915250612e6c92505050565b9050611345868287612ec7565b60408051868152600060208201526001600160a01b0380841692908916917f929ad80cfbf532d1e879107de0553ee80942d13c8043f2b2615f9b15b87d10da910160405180910390a37f88a7ca5c75456956db1e96e88ee87aca8bdad85895835c2dc76fcc96396569cf915050611538565b6113c033612dd0565b156114ca576001546001600160a01b03166114435760405162461bcd60e51b815260206004820152602a60248201527f54414c20746f6b656e206e6f7420796574207365742e20526566756e64206e6f60448201527f7420706f737369626c650000000000000000000000000000000000000000000060648201526084016107de565b336000611451878388613083565b9050816001600160a01b0316876001600160a01b03167f390b1276974b9463e5d66ab10df69b6f3d7b930eb066a0e66df327edd2cc811c8360405161149891815260200190565b60405180910390a37f88a7ca5c75456956db1e96e88ee87aca8bdad85895835c2dc76fcc96396569cf92505050611538565b60405162461bcd60e51b815260206004820152602360248201527f556e7265636f676e697a6564204552433133363320746f6b656e20726563656960448201527f766564000000000000000000000000000000000000000000000000000000000060648201526084016107de565b95945050505050565b6011546000908390839060ff16156115685761155f858560016122c0565b6001925061160f565b6011805460ff191660011790556001600160a01b0380831660009081526002602090815260408083209385168352929052908120546115a690612d59565b90506115b4868660016122c0565b600193506001600160a01b0380841660009081526002602090815260408083209386168352929052205481906115e990612d59565b600d546115f69190614921565b6116009190614b97565b600d55506011805460ff191690555b505092915050565b60007f00000000000000000000000000000000000000000000000000000000000000004210156116895760405162461bcd60e51b815260206004820152601e60248201527f7374616b696e6720706572696f64206e6f74207965742073746172746564000060448201526064016107de565b7f00000000000000000000000000000000000000000000000000000000000000004211156116f95760405162461bcd60e51b815260206004820152601f60248201527f7374616b696e6720706572696f6420616c72656164792066696e69736865640060448201526064016107de565b6001546001600160a01b0316156117525760405162461bcd60e51b815260206004820152601460248201527f537461626c6520636f696e2064697361626c656400000000000000000000000060448201526064016107de565b6011543390849060ff161561192357600084116117a95760405162461bcd60e51b8152602060048201526015602482015274616d6f756e742063616e6e6f74206265207a65726f60581b60448201526064016107de565b60075460ff16156117fc5760405162461bcd60e51b815260206004820152601960248201527f7374616b696e6720686173206265656e2064697361626c65640000000000000060448201526064016107de565b60006118078561119f565b905084600a600082825461181b9190614921565b9091555061182c9050338783612ec7565b6040516323b872dd60e01b8152336004820152306024820152604481018690527f00000000000000000000000000000000000000000000000000000000000000006001600160a01b0316906323b872dd90606401602060405180830381600087803b15801561189a57600080fd5b505af11580156118ae573d6000803e3d6000fd5b505050506040513d601f19601f820116820180604052508101906118d291906146c2565b5060408051828152600160208201526001600160a01b0388169133917f929ad80cfbf532d1e879107de0553ee80942d13c8043f2b2615f9b15b87d10da910160405180910390a3600193505061160f565b6011805460ff191660011790556001600160a01b03808316600090815260026020908152604080832093851683529290529081205461196190612d59565b9050600085116119ab5760405162461bcd60e51b8152602060048201526015602482015274616d6f756e742063616e6e6f74206265207a65726f60581b60448201526064016107de565b60075460ff16156119fe5760405162461bcd60e51b815260206004820152601960248201527f7374616b696e6720686173206265656e2064697361626c65640000000000000060448201526064016107de565b6000611a098661119f565b905085600a6000828254611a1d9190614921565b90915550611a2e9050338883612ec7565b6040516323b872dd60e01b8152336004820152306024820152604481018790527f00000000000000000000000000000000000000000000000000000000000000006001600160a01b0316906323b872dd90606401602060405180830381600087803b158015611a9c57600080fd5b505af1158015611ab0573d6000803e3d6000fd5b505050506040513d601f19601f82011682018060405250810190611ad491906146c2565b5060408051828152600160208201526001600160a01b0389169133917f929ad80cfbf532d1e879107de0553ee80942d13c8043f2b2615f9b15b87d10da910160405180910390a360019450506001600160a01b0380841660009081526002602090815260408083209386168352929052205481906115e990612d59565b6001546040516370a0823160e01b81523060048201526000916001600160a01b0316906370a08231906024015b60206040518083038186803b158015611b9657600080fd5b505afa158015611baa573d6000803e3d6000fd5b505050506040513d601f19601f82011682018060405250810190611bce91906147f9565b905090565b6000600c54600e547f0000000000000000000000000000000000000000000000000000000000000000611c069190614b97565b611bce9190614b97565b6001600160a01b038084166000908152600260209081526040808320938616835292815282822060069091529181205490918291829015611c6a57506001600160a01b038516600090815260066020526040902054611c93565b600d54611c7960105487613693565b611c839190614967565b600f54611c909190614921565b90505b6000866001600160a01b031663c4daa5936040518163ffffffff1660e01b815260040160206040518083038186803b158015611cce57600080fd5b505afa158015611ce2573d6000803e3d6000fd5b505050506040513d601f19601f82011682018060405250810190611d069190614560565b6040516370a0823160e01b81526001600160a01b0380831660048301529192506000918916906370a082319060240160206040518083038186803b158015611d4d57600080fd5b505afa158015611d61573d6000803e3d6000fd5b505050506040513d601f19601f82011682018060405250810190611d8591906147f9565b9050600080611da3866000015487600301548789600101548761374c565b90985096505050505050505b935093915050565b600061078361040f8361119f565b6040516370a0823160e01b81523060048201526000907f00000000000000000000000000000000000000000000000000000000000000006001600160a01b0316906370a0823190602401611b7e565b6000670de0b6b3a764000060095483611e2d9190614b39565b6107839190614967565b600082815260208190526040902060010154611e5381336120e0565b610a988383612241565b6000611e693383611541565b50600192915050565b6000611e7e81336120e0565b60075460ff1680611eae57507f000000000000000000000000000000000000000000000000000000000000000042105b611f205760405162461bcd60e51b815260206004820152602b60248201527f6e6f742064697361626c65642c20616e64206e6f7420656e64206f662073746160448201527f6b696e672065697468657200000000000000000000000000000000000000000060648201526084016107de565b60035415611fbc5760405162461bcd60e51b815260206004820152605060248201527f746865726520617265207374696c6c207374616b657320616363756d756c617460448201527f696e6720726577617264732e2043616c6c2060636c61696d526577617264734f60648201527f6e426568616c6660206f6e207468656d00000000000000000000000000000000608482015260a4016107de565b6000611fc6611bd3565b9050600081116120185760405162461bcd60e51b815260206004820152601860248201527f6e6f7468696e67206c65667420746f207769746864726177000000000000000060448201526064016107de565b60015460405163a9059cbb60e01b8152336004820152602481018390526001600160a01b039091169063a9059cbb90604401602060405180830381600087803b15801561206457600080fd5b505af1158015612078573d6000803e3d6000fd5b505050506040513d601f19601f8201168201806040525081019061209c91906146c2565b5080600c60008282546120af9190614921565b90915550505050565b60006120c3836137a6565b8015610f675750610f6783836137d9565b6000610f6783836138d7565b6000828152602081815260408083206001600160a01b038516845290915290205460ff16610b255761211c816001600160a01b031660146138fc565b6121278360206138fc565b60405160200161213892919061482e565b60408051601f198184030181529082905262461bcd60e51b82526107de916004016148af565b60075460ff161561216b57565b600b5461217457565b600d5461218360105442613693565b61218d9190614967565b600f5461219a9190614921565b600f5542601055565b6000828152602081815260408083206001600160a01b038516845290915290205460ff16610b25576000828152602081815260408083206001600160a01b03851684529091529020805460ff191660011790556121fd3390565b6001600160a01b0316816001600160a01b0316837f2f8788117e7eff1d82e926ec794901d17c78024a50270940304540a733656f0d60405160405180910390a45050565b6000828152602081815260408083206001600160a01b038516845290915290205460ff1615610b25576000828152602081815260408083206001600160a01b0385168085529252808320805460ff1916905551339285917ff6391f5c32d9c69d2a47ea670b442974b53935d1edc7fd64eb21e047a839171b9190a45050565b6011548390839060ff1615612800576001600160a01b0380861660009081526002602090815260408083209388168352929052206122fc61215e565b6000856001600160a01b031663c4daa5936040518163ffffffff1660e01b815260040160206040518083038186803b15801561233757600080fd5b505afa15801561234b573d6000803e3d6000fd5b505050506040513d601f19601f8201168201806040525081019061236f9190614560565b6001600160a01b0387166000908152600660205260408120549192509061239857600f546123b2565b6001600160a01b0387166000908152600660205260409020545b8354600385015460018601546040516370a0823160e01b81526001600160a01b038781166004830152949550600094859461244f949093909288928f16906370a08231906024015b60206040518083038186803b15801561241257600080fd5b505afa158015612426573d6000803e3d6000fd5b505050506040513d601f19601f8201168201806040525081019061244a91906147f9565b61374c565b909250905061245e8183614921565b600e600082825461246f9190614921565b9091555050600385018390554260028601556001600160a01b038916600090815260056020526040812080548392906124a9908490614921565b909155505060075460ff1680156124c55750600485015460ff16155b156124f45760048501805460ff19166001908117909155600380546000906124ee908490614b97565b90915550505b81612503575050505050612d52565b600088600181111561251757612517614c1d565b14156125ff5760015460405163a9059cbb60e01b81526001600160a01b038c81166004830152602482018590529091169063a9059cbb90604401602060405180830381600087803b15801561256b57600080fd5b505af115801561257f573d6000803e3d6000fd5b505050506040513d601f19601f820116820180604052508101906125a391906146c2565b50886001600160a01b03168a6001600160a01b03167f013ceff621e16e2f96e454db0b811d5e35d3be38beab8a6bf4be6a3dc8cd23f384846040516125f2929190918252602082015260400190565b60405180910390a36127f6565b600188600181111561261357612613614c1d565b14156127ae5760006126248a610e92565b905060008382116126355781612637565b835b905060006126458286614b97565b90506126528d8d84613add565b8b6001600160a01b03168d6001600160a01b03167f661cda9d247039eabdcc72b8fed0de4ce46c907660a504c7e40889080fbd559084876040516126a0929190918252602082015260400190565b60405180910390a36000811180156126c257506001546001600160a01b031615155b156127a65760015460405163a9059cbb60e01b81526001600160a01b038f81166004830152602482018490529091169063a9059cbb90604401602060405180830381600087803b15801561271557600080fd5b505af1158015612729573d6000803e3d6000fd5b505050506040513d601f19601f8201168201806040525081019061274d91906146c2565b508b6001600160a01b03168d6001600160a01b03167f013ceff621e16e2f96e454db0b811d5e35d3be38beab8a6bf4be6a3dc8cd23f383600060405161279d929190918252602082015260400190565b60405180910390a35b5050506127f6565b60405162461bcd60e51b815260206004820152601e60248201527f556e7265636f676e697a656420636865636b706f696e7420616374696f6e000060448201526064016107de565b5050505050612d52565b6011805460ff191660011790556001600160a01b03808316600090815260026020908152604080832093851683529290529081205461283e90612d59565b6001600160a01b038088166000908152600260209081526040808320938a1683529290522090915061286e61215e565b6000866001600160a01b031663c4daa5936040518163ffffffff1660e01b815260040160206040518083038186803b1580156128a957600080fd5b505afa1580156128bd573d6000803e3d6000fd5b505050506040513d601f19601f820116820180604052508101906128e19190614560565b6001600160a01b0388166000908152600660205260408120549192509061290a57600f54612924565b6001600160a01b0388166000908152600660205260409020545b9050600080612977856000015486600301548588600101548e6001600160a01b03166370a082318a6040518263ffffffff1660e01b81526004016123fa91906001600160a01b0391909116815260200190565b90925090506129868183614921565b600e60008282546129979190614921565b9091555050600385018390554260028601556001600160a01b038a16600090815260056020526040812080548392906129d1908490614921565b909155505060075460ff1680156129ed5750600485015460ff16155b15612a1c5760048501805460ff1916600190811790915560038054600090612a16908490614b97565b90915550505b81612a2b575050505050612cfb565b6000896001811115612a3f57612a3f614c1d565b1415612b275760015460405163a9059cbb60e01b81526001600160a01b038d81166004830152602482018590529091169063a9059cbb90604401602060405180830381600087803b158015612a9357600080fd5b505af1158015612aa7573d6000803e3d6000fd5b505050506040513d601f19601f82011682018060405250810190612acb91906146c2565b50896001600160a01b03168b6001600160a01b03167f013ceff621e16e2f96e454db0b811d5e35d3be38beab8a6bf4be6a3dc8cd23f38484604051612b1a929190918252602082015260400190565b60405180910390a3612cf5565b6001896001811115612b3b57612b3b614c1d565b14156127ae576000612b4c8b610e92565b90506000838211612b5d5781612b5f565b835b90506000612b6d8286614b97565b9050612b7a8e8e84613add565b8c6001600160a01b03168e6001600160a01b03167f661cda9d247039eabdcc72b8fed0de4ce46c907660a504c7e40889080fbd55908487604051612bc8929190918252602082015260400190565b60405180910390a3600081118015612bea57506001546001600160a01b031615155b15612cf157600160009054906101000a90046001600160a01b03166001600160a01b031663a9059cbb8f836040518363ffffffff1660e01b8152600401612c469291906001600160a01b03929092168252602082015260400190565b602060405180830381600087803b158015612c6057600080fd5b505af1158015612c74573d6000803e3d6000fd5b505050506040513d601f19601f82011682018060405250810190612c9891906146c2565b508c6001600160a01b03168e6001600160a01b03167f013ceff621e16e2f96e454db0b811d5e35d3be38beab8a6bf4be6a3dc8cd23f3836000604051612ce8929190918252602082015260400190565b60405180910390a35b5050505b50505050505b6001600160a01b038084166000908152600260209081526040808320938616835292905220548190612d2c90612d59565b600d54612d399190614921565b612d439190614b97565b600d55506011805460ff191690555b5050505050565b600081612d6857506000919050565b60038211612d7857506001919050565b60006002612d87846001614921565b612d919190614967565b90508291505b81811015612dca57905080600281612daf8186614967565b612db99190614921565b612dc39190614967565b9050612d97565b50919050565b6007546040517f099aba560000000000000000000000000000000000000000000000000000000081526001600160a01b0383811660048301526000926101009004169063099aba569060240160206040518083038186803b158015612e3457600080fd5b505afa158015612e48573d6000803e3d6000fd5b505050506040513d601f19601f8201168201806040525081019061078391906146c2565b60008151601414612ebf5760405162461bcd60e51b815260206004820152601f60248201527f696e76616c69642064617461206c656e67746820666f7220616464726573730060448201526064016107de565b506014015190565b6011548390839060ff1615612f8f57612edf84612dd0565b612f2b5760405162461bcd60e51b815260206004820152601860248201527f6e6f7420612076616c69642074616c656e7420746f6b656e000000000000000060448201526064016107de565b60008311612f735760405162461bcd60e51b8152602060048201526015602482015274616d6f756e742063616e6e6f74206265207a65726f60581b60448201526064016107de565b612f7f858560016122c0565b612f8a858585613add565b612d52565b6011805460ff191660011790556001600160a01b038083166000908152600260209081526040808320938516835292905290812054612fcd90612d59565b9050612fd885612dd0565b6130245760405162461bcd60e51b815260206004820152601860248201527f6e6f7420612076616c69642074616c656e7420746f6b656e000000000000000060448201526064016107de565b6000841161306c5760405162461bcd60e51b8152602060048201526015602482015274616d6f756e742063616e6e6f74206265207a65726f60581b60448201526064016107de565b613078868660016122c0565b612cfb868686613add565b6011546000908490849060ff16156133475761309e85612dd0565b6130ea5760405162461bcd60e51b815260206004820152601860248201527f6e6f7420612076616c69642074616c656e7420746f6b656e000000000000000060448201526064016107de565b6130f6868660016122c0565b6001600160a01b038087166000908152600260208181526040808420948a1684529390529190209081015461316d5760405162461bcd60e51b815260206004820152601460248201527f7374616b6520646f6573206e6f7420657869737400000000000000000000000060448201526064016107de565b848160010154101561317e57600080fd5b60018101546000906131956402540be40088614b39565b61319f9190614967565b905060006402540be4008284600001546131b99190614b39565b6131c39190614967565b6001546040516370a0823160e01b815230600482015291925082916001600160a01b03909116906370a082319060240160206040518083038186803b15801561320b57600080fd5b505afa15801561321f573d6000803e3d6000fd5b505050506040513d601f19601f8201168201806040525081019061324391906147f9565b101561329b5760405162461bcd60e51b815260206004820152602160248201527f6e6f7420656e6f7567682054414c20746f2066756c66696c6c207265717565736044820152601d60fa1b60648201526084016107de565b868360010160008282546132af9190614b97565b90915550508254819084906000906132c8908490614b97565b9250508190555080600b60008282546132e19190614b97565b909155505082541580156132fa5750600483015460ff16155b156133295760048301805460ff1916600190811790915560038054600090613323908490614b97565b90915550505b6133338888613b89565b61333d8982613c06565b945061368a915050565b6011805460ff191660011790556001600160a01b03808316600090815260026020908152604080832093851683529290529081205461338590612d59565b905061339086612dd0565b6133dc5760405162461bcd60e51b815260206004820152601860248201527f6e6f7420612076616c69642074616c656e7420746f6b656e000000000000000060448201526064016107de565b6133e8878760016122c0565b6001600160a01b038088166000908152600260208181526040808420948b1684529390529190209081015461345f5760405162461bcd60e51b815260206004820152601460248201527f7374616b6520646f6573206e6f7420657869737400000000000000000000000060448201526064016107de565b858160010154101561347057600080fd5b60018101546000906134876402540be40089614b39565b6134919190614967565b905060006402540be4008284600001546134ab9190614b39565b6134b59190614967565b6001546040516370a0823160e01b815230600482015291925082916001600160a01b03909116906370a082319060240160206040518083038186803b1580156134fd57600080fd5b505afa158015613511573d6000803e3d6000fd5b505050506040513d601f19601f8201168201806040525081019061353591906147f9565b101561358d5760405162461bcd60e51b815260206004820152602160248201527f6e6f7420656e6f7567682054414c20746f2066756c66696c6c207265717565736044820152601d60fa1b60648201526084016107de565b878360010160008282546135a19190614b97565b90915550508254819084906000906135ba908490614b97565b9250508190555080600b60008282546135d39190614b97565b909155505082541580156135ec5750600483015460ff16155b1561361b5760048301805460ff1916600190811790915560038054600090613615908490614b97565b90915550505b6136258989613b89565b61362f8a82613c06565b955050506001600160a01b03808416600090815260026020908152604080832093861683529290522054819061366490612d59565b600d546136719190614921565b61367b9190614b97565b600d55506011805460ff191690555b50509392505050565b60008060006136a28585613c8c565b915091506000806136b3848461405f565b9150915060006136c383836142a5565b9050306001600160a01b031663d19905386040518163ffffffff1660e01b815260040160206040518083038186803b1580156136fe57600080fd5b505afa158015613712573d6000803e3d6000fd5b505050506040513d601f19601f8201168201806040525081019061373691906147f9565b6137409082614b39565b98975050505050505050565b600080806402540be4006137608888614b97565b6137698a612d59565b6137739190614b39565b61377d9190614967565b9050600061378c828787614308565b90506137988183614b97565b999098509650505050505050565b60006137b9826301ffc9a760e01b6137d9565b801561078357506137d2826001600160e01b03196137d9565b1592915050565b604080516001600160e01b0319831660248083019190915282518083039091018152604490910182526020810180517bffffffffffffffffffffffffffffffffffffffffffffffffffffffff166301ffc9a760e01b179052905160009190829081906001600160a01b0387169061753090613855908690614812565b6000604051808303818686fa925050503d8060008114613891576040519150601f19603f3d011682016040523d82523d6000602084013e613896565b606091505b50915091506020815110156138b15760009350505050610783565b8180156138cd5750808060200190518101906138cd91906146c2565b9695505050505050565b600081518351148015610f675750508051602091820120825192909101919091201490565b6060600061390b836002614b39565b613916906002614921565b67ffffffffffffffff81111561392e5761392e614c49565b6040519080825280601f01601f191660200182016040528015613958576020820181803683370190505b5090507f30000000000000000000000000000000000000000000000000000000000000008160008151811061398f5761398f614c33565b60200101906001600160f81b031916908160001a9053507f7800000000000000000000000000000000000000000000000000000000000000816001815181106139da576139da614c33565b60200101906001600160f81b031916908160001a90535060006139fe846002614b39565b613a09906001614921565b90505b6001811115613a8e577f303132333435363738396162636465660000000000000000000000000000000085600f1660108110613a4a57613a4a614c33565b1a60f81b828281518110613a6057613a60614c33565b60200101906001600160f81b031916908160001a90535060049490941c93613a8781614bda565b9050613a0c565b508315610f675760405162461bcd60e51b815260206004820181905260248201527f537472696e67733a20686578206c656e67746820696e73756666696369656e7460448201526064016107de565b6000613ae882610d3c565b6001600160a01b038086166000908152600260209081526040808320938816835292905220805491925090613b3057600160036000828254613b2a9190614921565b90915550505b82816000016000828254613b449190614921565b9250508190555081816001016000828254613b5f9190614921565b9250508190555082600b6000828254613b789190614921565b90915550612d5290508585846143a6565b6040517f9dc29fac000000000000000000000000000000000000000000000000000000008152306004820152602481018290526001600160a01b03831690639dc29fac90604401600060405180830381600087803b158015613bea57600080fd5b505af1158015613bfe573d6000803e3d6000fd5b505050505050565b60015460405163a9059cbb60e01b81526001600160a01b038481166004830152602482018490529091169063a9059cbb90604401602060405180830381600087803b158015613c5457600080fd5b505af1158015613c68573d6000803e3d6000fd5b505050506040513d601f19601f82011682018060405250810190610a9891906146c2565b600080306001600160a01b031663be9a65556040518163ffffffff1660e01b815260040160206040518083038186803b158015613cc857600080fd5b505afa158015613cdc573d6000803e3d6000fd5b505050506040513d601f19601f82011682018060405250810190613d0091906147f9565b83111580613d7e5750306001600160a01b031663efbe1c1c6040518163ffffffff1660e01b815260040160206040518083038186803b158015613d4257600080fd5b505afa158015613d56573d6000803e3d6000fd5b505050506040513d601f19601f82011682018060405250810190613d7a91906147f9565b8410155b15613e6e57306001600160a01b031663be9a65556040518163ffffffff1660e01b815260040160206040518083038186803b158015613dbc57600080fd5b505afa158015613dd0573d6000803e3d6000fd5b505050506040513d601f19601f82011682018060405250810190613df491906147f9565b306001600160a01b031663be9a65556040518163ffffffff1660e01b815260040160206040518083038186803b158015613e2d57600080fd5b505afa158015613e41573d6000803e3d6000fd5b505050506040513d601f19601f82011682018060405250810190613e6591906147f9565b91509150614058565b6000306001600160a01b031663be9a65556040518163ffffffff1660e01b815260040160206040518083038186803b158015613ea957600080fd5b505afa158015613ebd573d6000803e3d6000fd5b505050506040513d601f19601f82011682018060405250810190613ee191906147f9565b8510613eed5784613f5e565b306001600160a01b031663be9a65556040518163ffffffff1660e01b815260040160206040518083038186803b158015613f2657600080fd5b505afa158015613f3a573d6000803e3d6000fd5b505050506040513d601f19601f82011682018060405250810190613f5e91906147f9565b90506000306001600160a01b031663efbe1c1c6040518163ffffffff1660e01b815260040160206040518083038186803b158015613f9b57600080fd5b505afa158015613faf573d6000803e3d6000fd5b505050506040513d601f19601f82011682018060405250810190613fd391906147f9565b8511613fdf5784614050565b306001600160a01b031663efbe1c1c6040518163ffffffff1660e01b815260040160206040518083038186803b15801561401857600080fd5b505afa15801561402c573d6000803e3d6000fd5b505050506040513d601f19601f8201168201806040525081019061405091906147f9565b919350909150505b9250929050565b6000806000306001600160a01b031663be9a65556040518163ffffffff1660e01b815260040160206040518083038186803b15801561409d57600080fd5b505afa1580156140b1573d6000803e3d6000fd5b505050506040513d601f19601f820116820180604052508101906140d591906147f9565b306001600160a01b031663efbe1c1c6040518163ffffffff1660e01b815260040160206040518083038186803b15801561410e57600080fd5b505afa158015614122573d6000803e3d6000fd5b505050506040513d601f19601f8201168201806040525081019061414691906147f9565b6141509190614b97565b90508061416557600060019250925050614058565b6000816402540be400306001600160a01b031663be9a65556040518163ffffffff1660e01b815260040160206040518083038186803b1580156141a757600080fd5b505afa1580156141bb573d6000803e3d6000fd5b505050506040513d601f19601f820116820180604052508101906141df91906147f9565b6141e99089614b97565b6141f39190614b39565b6141fd9190614967565b90506000826402540be400306001600160a01b031663be9a65556040518163ffffffff1660e01b815260040160206040518083038186803b15801561424157600080fd5b505afa158015614255573d6000803e3d6000fd5b505050506040513d601f19601f8201168201806040525081019061427991906147f9565b6142839089614b97565b61428d9190614b39565b6142979190614967565b919791965090945050505050565b6000806142b260006144dd565b6142c06402540be4006144dd565b6142ca9190614b58565b905060006142d7856144dd565b6142e0856144dd565b6142ea9190614b58565b90506000826142fe6402540be40084614ab2565b6138cd9190614939565b60008061432261431d6402540be40086614b39565b612d59565b9050600061433861431d6402540be40086614b39565b905060006143468284614921565b6143556402540be40084614b39565b61435f9190614967565b905060006402540be400614373838a614b39565b61437d9190614967565b9050600061438c60648a614967565b90508082101561439a578091505b50979650505050505050565b6040517f40c10f190000000000000000000000000000000000000000000000000000000081526001600160a01b038481166004830152602482018390528316906340c10f1990604401600060405180830381600087803b15801561440957600080fd5b505af115801561441d573d6000803e3d6000fd5b505050506001600160a01b0382166000908152600660205260409020541580156144b757506000826001600160a01b0316633e0075a16040518163ffffffff1660e01b815260040160206040518083038186803b15801561447d57600080fd5b505afa158015614491573d6000803e3d6000fd5b505050506040513d601f19601f820116820180604052508101906144b591906147f9565b115b15610a9857600f546001600160a01b038316600090815260066020526040902055505050565b6000816402540be400816144f2600283614aa3565b6144fc9190614ab2565b614507600284614aa3565b6145119083614ab2565b600361451d8186614aa3565b6145279190614939565b6145319190614b58565b61453b91906148e2565b949350505050565b60006020828403121561455557600080fd5b8135610f6781614c5f565b60006020828403121561457257600080fd5b8151610f6781614c5f565b6000806040838503121561459057600080fd5b823561459b81614c5f565b915060208301356145ab81614c5f565b809150509250929050565b6000806000606084860312156145cb57600080fd5b83356145d681614c5f565b925060208401356145e681614c5f565b929592945050506040919091013590565b60008060008060006080868803121561460f57600080fd5b853561461a81614c5f565b9450602086013561462a81614c5f565b935060408601359250606086013567ffffffffffffffff8082111561464e57600080fd5b818801915088601f83011261466257600080fd5b81358181111561467157600080fd5b89602082850101111561468357600080fd5b9699959850939650602001949392505050565b600080604083850312156146a957600080fd5b82356146b481614c5f565b946020939093013593505050565b6000602082840312156146d457600080fd5b81518015158114610f6757600080fd5b6000602082840312156146f657600080fd5b5035919050565b6000806040838503121561471057600080fd5b8235915060208301356145ab81614c5f565b60006020828403121561473457600080fd5b81356001600160e01b031981168114610f6757600080fd5b60006020828403121561475e57600080fd5b815167ffffffffffffffff8082111561477657600080fd5b818401915084601f83011261478a57600080fd5b81518181111561479c5761479c614c49565b604051601f8201601f19908116603f011681019083821181831017156147c4576147c4614c49565b816040528281528760208487010111156147dd57600080fd5b6147ee836020830160208801614bae565b979650505050505050565b60006020828403121561480b57600080fd5b5051919050565b60008251614824818460208701614bae565b9190910192915050565b7f416363657373436f6e74726f6c3a206163636f756e7420000000000000000000815260008351614866816017850160208801614bae565b7f206973206d697373696e6720726f6c652000000000000000000000000000000060179184019182015283516148a3816028840160208801614bae565b01602801949350505050565b60208152600082518060208401526148ce816040850160208701614bae565b601f01601f19169190910160400192915050565b6000808212826001600160ff1b030384138115161561490357614903614bf1565b82600160ff1b03841281161561491b5761491b614bf1565b50500190565b6000821982111561493457614934614bf1565b500190565b60008261494857614948614c07565b600160ff1b82146000198414161561496257614962614bf1565b500590565b60008261497657614976614c07565b500490565b80825b600180861161498d5750611daf565b816001600160ff1b03048211156149a6576149a6614bf1565b808616156149b357918102915b9490941c93800261497e565b60008280156149d557600181146149df576149e8565b6001915050610783565b82915050610783565b50816149f657506000610783565b50600160008213808214614a0f578015614a2d57614a46565b826001600160ff1b0304831115614a2857614a28614bf1565b614a46565b826001600160ff1b0305831215614a4657614a46614bf1565b5080831615614a525750805b614a628360011c8384028361497b565b806001600160ff1b03048211600083131615614a8057614a80614bf1565b80600160ff1b058212600083121615614a9b57614a9b614bf1565b029392505050565b6000610f6760ff8416836149bf565b60006001600160ff1b03600084136000841385830485118282161615614ada57614ada614bf1565b600160ff1b6000871286820588128184161615614af957614af9614bf1565b60008712925087820587128484161615614b1557614b15614bf1565b87850587128184161615614b2b57614b2b614bf1565b505050929093029392505050565b6000816000190483118215151615614b5357614b53614bf1565b500290565b600080831283600160ff1b01831281151615614b7657614b76614bf1565b836001600160ff1b03018313811615614b9157614b91614bf1565b50500390565b600082821015614ba957614ba9614bf1565b500390565b60005b83811015614bc9578181015183820152602001614bb1565b838111156111995750506000910152565b600081614be957614be9614bf1565b506000190190565b634e487b7160e01b600052601160045260246000fd5b634e487b7160e01b600052601260045260246000fd5b634e487b7160e01b600052602160045260246000fd5b634e487b7160e01b600052603260045260246000fd5b634e487b7160e01b600052604160045260246000fd5b6001600160a01b0381168114614c7457600080fd5b5056fea2646970667358221220d031d91cb21a9816057cc9015d38bffe0f5c09c4ac308dfa94d5300836dc16c664736f6c63430008070033",
  "linkReferences": {},
  "deployedLinkReferences": {}
}