{
  "_format": "hh-sol-artifact-1",
  "contractName": "StakingMigrationV2",
  "sourceName": "contracts/season3/StakingMigrationV2.sol",
  "abi": [
    {
      "anonymous": false,
      "inputs": [
        {
          "indexed": false,
          "internalType": "uint8",
          "name": "version",
          "type": "uint8"
        }
      ],
      "name": "Initialized",
      "type": "event"
    },
    {
      "anonymous": false,
      "inputs": [
        {
          "indexed": true,
          "internalType": "address",
          "name": "owner",
          "type": "address"
        },
        {
          "indexed": true,
          "internalType": "address",
          "name": "talentToken",
          "type": "address"
        },
        {
          "indexed": false,
          "internalType": "uint256",
          "name": "stakerReward",
          "type": "uint256"
        },
        {
          "indexed": false,
          "internalType": "uint256",
          "name": "talentReward",
          "type": "uint256"
        }
      ],
      "name": "RewardClaim",
      "type": "event"
    },
    {
      "anonymous": false,
      "inputs": [
        {
          "indexed": true,
          "internalType": "address",
          "name": "owner",
          "type": "address"
        },
        {
          "indexed": true,
          "internalType": "address",
          "name": "talentToken",
          "type": "address"
        },
        {
          "indexed": false,
          "internalType": "uint256",
          "name": "stakerReward",
          "type": "uint256"
        },
        {
          "indexed": false,
          "internalType": "uint256",
          "name": "talentReward",
          "type": "uint256"
        }
      ],
      "name": "RewardWithdrawal",
      "type": "event"
    },
    {
      "anonymous": false,
      "inputs": [
        {
          "indexed": true,
          "internalType": "bytes32",
          "name": "role",
          "type": "bytes32"
        },
        {
          "indexed": true,
          "internalType": "bytes32",
          "name": "previousAdminRole",
          "type": "bytes32"
        },
        {
          "indexed": true,
          "internalType": "bytes32",
          "name": "newAdminRole",
          "type": "bytes32"
        }
      ],
      "name": "RoleAdminChanged",
      "type": "event"
    },
    {
      "anonymous": false,
      "inputs": [
        {
          "indexed": true,
          "internalType": "bytes32",
          "name": "role",
          "type": "bytes32"
        },
        {
          "indexed": true,
          "internalType": "address",
          "name": "account",
          "type": "address"
        },
        {
          "indexed": true,
          "internalType": "address",
          "name": "sender",
          "type": "address"
        }
      ],
      "name": "RoleGranted",
      "type": "event"
    },
    {
      "anonymous": false,
      "inputs": [
        {
          "indexed": true,
          "internalType": "bytes32",
          "name": "role",
          "type": "bytes32"
        },
        {
          "indexed": true,
          "internalType": "address",
          "name": "account",
          "type": "address"
        },
        {
          "indexed": true,
          "internalType": "address",
          "name": "sender",
          "type": "address"
        }
      ],
      "name": "RoleRevoked",
      "type": "event"
    },
    {
      "anonymous": false,
      "inputs": [
        {
          "indexed": true,
          "internalType": "address",
          "name": "owner",
          "type": "address"
        },
        {
          "indexed": true,
          "internalType": "address",
          "name": "talentToken",
          "type": "address"
        },
        {
          "indexed": false,
          "internalType": "uint256",
          "name": "talAmount",
          "type": "uint256"
        },
        {
          "indexed": false,
          "internalType": "bool",
          "name": "stable",
          "type": "bool"
        }
      ],
      "name": "Stake",
      "type": "event"
    },
    {
      "anonymous": false,
      "inputs": [
        {
          "indexed": true,
          "internalType": "address",
          "name": "talentToken",
          "type": "address"
        },
        {
          "indexed": true,
          "internalType": "address",
          "name": "talentTokenWallet",
          "type": "address"
        },
        {
          "indexed": false,
          "internalType": "uint256",
          "name": "reward",
          "type": "uint256"
        }
      ],
      "name": "TalentRewardWithdrawal",
      "type": "event"
    },
    {
      "anonymous": false,
      "inputs": [
        {
          "indexed": true,
          "internalType": "address",
          "name": "owner",
          "type": "address"
        },
        {
          "indexed": true,
          "internalType": "address",
          "name": "talentToken",
          "type": "address"
        },
        {
          "indexed": false,
          "internalType": "uint256",
          "name": "talAmount",
          "type": "uint256"
        }
      ],
      "name": "Unstake",
      "type": "event"
    },
    {
      "inputs": [],
      "name": "DEFAULT_ADMIN_ROLE",
      "outputs": [
        {
          "internalType": "bytes32",
          "name": "",
          "type": "bytes32"
        }
      ],
      "stateMutability": "view",
      "type": "function"
    },
    {
      "inputs": [],
      "name": "S",
      "outputs": [
        {
          "internalType": "uint256",
          "name": "",
          "type": "uint256"
        }
      ],
      "stateMutability": "view",
      "type": "function"
    },
    {
      "inputs": [],
      "name": "SAt",
      "outputs": [
        {
          "internalType": "uint256",
          "name": "",
          "type": "uint256"
        }
      ],
      "stateMutability": "view",
      "type": "function"
    },
    {
      "inputs": [],
      "name": "__RewardCalculator_init",
      "outputs": [],
      "stateMutability": "nonpayable",
      "type": "function"
    },
    {
      "inputs": [],
      "name": "activeStakes",
      "outputs": [
        {
          "internalType": "uint256",
          "name": "",
          "type": "uint256"
        }
      ],
      "stateMutability": "view",
      "type": "function"
    },
    {
      "inputs": [],
      "name": "adminWithdraw",
      "outputs": [],
      "stateMutability": "nonpayable",
      "type": "function"
    },
    {
      "inputs": [
        {
          "internalType": "address",
          "name": "_owner",
          "type": "address"
        },
        {
          "internalType": "address",
          "name": "_talent",
          "type": "address"
        },
        {
          "internalType": "uint256",
          "name": "_currentTime",
          "type": "uint256"
        }
      ],
      "name": "calculateEstimatedReturns",
      "outputs": [
        {
          "internalType": "uint256",
          "name": "stakerRewards",
          "type": "uint256"
        },
        {
          "internalType": "uint256",
          "name": "talentRewards",
          "type": "uint256"
        }
      ],
      "stateMutability": "view",
      "type": "function"
    },
    {
      "inputs": [
        {
          "internalType": "address",
          "name": "_talent",
          "type": "address"
        }
      ],
      "name": "claimRewards",
      "outputs": [
        {
          "internalType": "bool",
          "name": "",
          "type": "bool"
        }
      ],
      "stateMutability": "nonpayable",
      "type": "function"
    },
    {
      "inputs": [
        {
          "internalType": "address",
          "name": "_owner",
          "type": "address"
        },
        {
          "internalType": "address",
          "name": "_talent",
          "type": "address"
        }
      ],
      "name": "claimRewardsOnBehalf",
      "outputs": [
        {
          "internalType": "bool",
          "name": "",
          "type": "bool"
        }
      ],
      "stateMutability": "nonpayable",
      "type": "function"
    },
    {
      "inputs": [
        {
          "internalType": "uint256",
          "name": "_talent",
          "type": "uint256"
        }
      ],
      "name": "convertTalentToToken",
      "outputs": [
        {
          "internalType": "uint256",
          "name": "",
          "type": "uint256"
        }
      ],
      "stateMutability": "view",
      "type": "function"
    },
    {
      "inputs": [
        {
          "internalType": "uint256",
          "name": "_tal",
          "type": "uint256"
        }
      ],
      "name": "convertTokenToTalent",
      "outputs": [
        {
          "internalType": "uint256",
          "name": "",
          "type": "uint256"
        }
      ],
      "stateMutability": "view",
      "type": "function"
    },
    {
      "inputs": [
        {
          "internalType": "uint256",
          "name": "_usd",
          "type": "uint256"
        }
      ],
      "name": "convertUsdToTalent",
      "outputs": [
        {
          "internalType": "uint256",
          "name": "",
          "type": "uint256"
        }
      ],
      "stateMutability": "view",
      "type": "function"
    },
    {
      "inputs": [
        {
          "internalType": "uint256",
          "name": "_usd",
          "type": "uint256"
        }
      ],
      "name": "convertUsdToToken",
      "outputs": [
        {
          "internalType": "uint256",
          "name": "",
          "type": "uint256"
        }
      ],
      "stateMutability": "view",
      "type": "function"
    },
    {
      "inputs": [],
      "name": "disable",
      "outputs": [],
      "stateMutability": "nonpayable",
      "type": "function"
    },
    {
      "inputs": [],
      "name": "disabled",
      "outputs": [
        {
          "internalType": "bool",
          "name": "",
          "type": "bool"
        }
      ],
      "stateMutability": "view",
      "type": "function"
    },
    {
      "inputs": [
        {
          "internalType": "address",
          "name": "_owner",
          "type": "address"
        },
        {
          "internalType": "address",
          "name": "_talentToken",
          "type": "address"
        },
        {
          "internalType": "uint256",
          "name": "_stakerReward",
          "type": "uint256"
        },
        {
          "internalType": "uint256",
          "name": "_talentReward",
          "type": "uint256"
        }
      ],
      "name": "emitRewardsClaimEvent",
      "outputs": [],
      "stateMutability": "nonpayable",
      "type": "function"
    },
    {
      "inputs": [
        {
          "internalType": "address",
          "name": "_owner",
          "type": "address"
        },
        {
          "internalType": "address",
          "name": "_talentToken",
          "type": "address"
        },
        {
          "internalType": "uint256",
          "name": "_talAmount",
          "type": "uint256"
        },
        {
          "internalType": "bool",
          "name": "_stable",
          "type": "bool"
        }
      ],
      "name": "emitStakeEvent",
      "outputs": [],
      "stateMutability": "nonpayable",
      "type": "function"
    },
    {
      "inputs": [],
      "name": "end",
      "outputs": [
        {
          "internalType": "uint256",
          "name": "",
          "type": "uint256"
        }
      ],
      "stateMutability": "view",
      "type": "function"
    },
    {
      "inputs": [],
      "name": "factory",
      "outputs": [
        {
          "internalType": "address",
          "name": "",
          "type": "address"
        }
      ],
      "stateMutability": "view",
      "type": "function"
    },
    {
      "inputs": [
        {
          "internalType": "bytes32",
          "name": "role",
          "type": "bytes32"
        }
      ],
      "name": "getRoleAdmin",
      "outputs": [
        {
          "internalType": "bytes32",
          "name": "",
          "type": "bytes32"
        }
      ],
      "stateMutability": "view",
      "type": "function"
    },
    {
      "inputs": [
        {
          "internalType": "bytes32",
          "name": "role",
          "type": "bytes32"
        },
        {
          "internalType": "uint256",
          "name": "index",
          "type": "uint256"
        }
      ],
      "name": "getRoleMember",
      "outputs": [
        {
          "internalType": "address",
          "name": "",
          "type": "address"
        }
      ],
      "stateMutability": "view",
      "type": "function"
    },
    {
      "inputs": [
        {
          "internalType": "bytes32",
          "name": "role",
          "type": "bytes32"
        }
      ],
      "name": "getRoleMemberCount",
      "outputs": [
        {
          "internalType": "uint256",
          "name": "",
          "type": "uint256"
        }
      ],
      "stateMutability": "view",
      "type": "function"
    },
    {
      "inputs": [
        {
          "internalType": "bytes32",
          "name": "role",
          "type": "bytes32"
        },
        {
          "internalType": "address",
          "name": "account",
          "type": "address"
        }
      ],
      "name": "grantRole",
      "outputs": [],
      "stateMutability": "nonpayable",
      "type": "function"
    },
    {
      "inputs": [
        {
          "internalType": "bytes32",
          "name": "role",
          "type": "bytes32"
        },
        {
          "internalType": "address",
          "name": "account",
          "type": "address"
        }
      ],
      "name": "hasRole",
      "outputs": [
        {
          "internalType": "bool",
          "name": "",
          "type": "bool"
        }
      ],
      "stateMutability": "view",
      "type": "function"
    },
    {
      "inputs": [
        {
          "internalType": "uint256",
          "name": "_start",
          "type": "uint256"
        },
        {
          "internalType": "uint256",
          "name": "_end",
          "type": "uint256"
        },
        {
          "internalType": "uint256",
          "name": "_rewardsMax",
          "type": "uint256"
        },
        {
          "internalType": "address",
          "name": "_stableCoin",
          "type": "address"
        },
        {
          "internalType": "address",
          "name": "_factory",
          "type": "address"
        },
        {
          "internalType": "uint256",
          "name": "_tokenPrice",
          "type": "uint256"
        },
        {
          "internalType": "uint256",
          "name": "_talentPrice",
          "type": "uint256"
        }
      ],
      "name": "initialize",
      "outputs": [],
      "stateMutability": "nonpayable",
      "type": "function"
    },
    {
      "inputs": [
        {
          "internalType": "address",
          "name": "",
          "type": "address"
        }
      ],
      "name": "maxSForTalent",
      "outputs": [
        {
          "internalType": "uint256",
          "name": "",
          "type": "uint256"
        }
      ],
      "stateMutability": "view",
      "type": "function"
    },
    {
      "inputs": [
        {
          "internalType": "address",
          "name": "",
          "type": "address"
        },
        {
          "internalType": "address",
          "name": "_sender",
          "type": "address"
        },
        {
          "internalType": "uint256",
          "name": "_amount",
          "type": "uint256"
        },
        {
          "internalType": "bytes",
          "name": "data",
          "type": "bytes"
        }
      ],
      "name": "onTransferReceived",
      "outputs": [
        {
          "internalType": "bytes4",
          "name": "",
          "type": "bytes4"
        }
      ],
      "stateMutability": "nonpayable",
      "type": "function"
    },
    {
      "inputs": [
        {
          "internalType": "bytes32",
          "name": "role",
          "type": "bytes32"
        },
        {
          "internalType": "address",
          "name": "account",
          "type": "address"
        }
      ],
      "name": "renounceRole",
      "outputs": [],
      "stateMutability": "nonpayable",
      "type": "function"
    },
    {
      "inputs": [
        {
          "internalType": "bytes32",
          "name": "role",
          "type": "bytes32"
        },
        {
          "internalType": "address",
          "name": "account",
          "type": "address"
        }
      ],
      "name": "revokeRole",
      "outputs": [],
      "stateMutability": "nonpayable",
      "type": "function"
    },
    {
      "inputs": [],
      "name": "rewardsGiven",
      "outputs": [
        {
          "internalType": "uint256",
          "name": "",
          "type": "uint256"
        }
      ],
      "stateMutability": "view",
      "type": "function"
    },
    {
      "inputs": [],
      "name": "rewardsLeft",
      "outputs": [
        {
          "internalType": "uint256",
          "name": "",
          "type": "uint256"
        }
      ],
      "stateMutability": "view",
      "type": "function"
    },
    {
      "inputs": [],
      "name": "rewardsMax",
      "outputs": [
        {
          "internalType": "uint256",
          "name": "",
          "type": "uint256"
        }
      ],
      "stateMutability": "view",
      "type": "function"
    },
    {
      "inputs": [
        {
          "internalType": "address",
          "name": "_owner",
          "type": "address"
        },
        {
          "internalType": "address",
          "name": "_talent",
          "type": "address"
        },
        {
          "internalType": "uint256",
          "name": "_timestamp",
          "type": "uint256"
        },
        {
          "internalType": "uint256",
          "name": "_stakerRewards",
          "type": "uint256"
        },
        {
          "internalType": "uint256",
          "name": "_talentRewards",
          "type": "uint256"
        }
      ],
      "name": "setClaimRewards",
      "outputs": [],
      "stateMutability": "nonpayable",
      "type": "function"
    },
    {
      "inputs": [
        {
          "internalType": "address",
          "name": "_factory",
          "type": "address"
        }
      ],
      "name": "setFactory",
      "outputs": [],
      "stateMutability": "nonpayable",
      "type": "function"
    },
    {
      "inputs": [
        {
          "internalType": "uint256",
          "name": "_start",
          "type": "uint256"
        },
        {
          "internalType": "uint256",
          "name": "_end",
          "type": "uint256"
        },
        {
          "internalType": "uint256",
          "name": "_tokenPrice",
          "type": "uint256"
        },
        {
          "internalType": "uint256",
          "name": "_talentPrice",
          "type": "uint256"
        },
        {
          "internalType": "uint256",
          "name": "_rewardsMax",
          "type": "uint256"
        }
      ],
      "name": "setInitialState",
      "outputs": [],
      "stateMutability": "nonpayable",
      "type": "function"
    },
    {
      "inputs": [
        {
          "internalType": "address",
          "name": "_talent",
          "type": "address"
        }
      ],
      "name": "setTalentRedeemableRewards",
      "outputs": [],
      "stateMutability": "nonpayable",
      "type": "function"
    },
    {
      "inputs": [
        {
          "internalType": "address",
          "name": "_talent",
          "type": "address"
        },
        {
          "internalType": "uint256",
          "name": "_talentRewards",
          "type": "uint256"
        },
        {
          "internalType": "uint256",
          "name": "_maxSTalent",
          "type": "uint256"
        }
      ],
      "name": "setTalentState",
      "outputs": [],
      "stateMutability": "nonpayable",
      "type": "function"
    },
    {
      "inputs": [
        {
          "internalType": "address",
          "name": "_token",
          "type": "address"
        }
      ],
      "name": "setToken",
      "outputs": [],
      "stateMutability": "nonpayable",
      "type": "function"
    },
    {
      "inputs": [
        {
          "internalType": "uint256",
          "name": "_price",
          "type": "uint256"
        }
      ],
      "name": "setTokenPrice",
      "outputs": [],
      "stateMutability": "nonpayable",
      "type": "function"
    },
    {
      "inputs": [],
      "name": "stableCoin",
      "outputs": [
        {
          "internalType": "address",
          "name": "",
          "type": "address"
        }
      ],
      "stateMutability": "view",
      "type": "function"
    },
    {
      "inputs": [],
      "name": "stableCoinBalance",
      "outputs": [
        {
          "internalType": "uint256",
          "name": "",
          "type": "uint256"
        }
      ],
      "stateMutability": "view",
      "type": "function"
    },
    {
      "inputs": [
        {
          "internalType": "address",
          "name": "_talent",
          "type": "address"
        }
      ],
      "name": "stakeAvailability",
      "outputs": [
        {
          "internalType": "uint256",
          "name": "",
          "type": "uint256"
        }
      ],
      "stateMutability": "view",
      "type": "function"
    },
    {
      "inputs": [
        {
          "internalType": "address",
          "name": "_talent",
          "type": "address"
        },
        {
          "internalType": "uint256",
          "name": "_amount",
          "type": "uint256"
        }
      ],
      "name": "stakeStable",
      "outputs": [
        {
          "internalType": "bool",
          "name": "",
          "type": "bool"
        }
      ],
      "stateMutability": "nonpayable",
      "type": "function"
    },
    {
      "inputs": [
        {
          "internalType": "address",
          "name": "",
          "type": "address"
        },
        {
          "internalType": "address",
          "name": "",
          "type": "address"
        }
      ],
      "name": "stakes",
      "outputs": [
        {
          "internalType": "uint256",
          "name": "tokenAmount",
          "type": "uint256"
        },
        {
          "internalType": "uint256",
          "name": "talentAmount",
          "type": "uint256"
        },
        {
          "internalType": "uint256",
          "name": "lastCheckpointAt",
          "type": "uint256"
        },
        {
          "internalType": "uint256",
          "name": "S",
          "type": "uint256"
        },
        {
          "internalType": "bool",
          "name": "finishedAccumulating",
          "type": "bool"
        }
      ],
      "stateMutability": "view",
      "type": "function"
    },
    {
      "inputs": [],
      "name": "start",
      "outputs": [
        {
          "internalType": "uint256",
          "name": "",
          "type": "uint256"
        }
      ],
      "stateMutability": "view",
      "type": "function"
    },
    {
      "inputs": [
        {
          "internalType": "bytes4",
          "name": "interfaceId",
          "type": "bytes4"
        }
      ],
      "name": "supportsInterface",
      "outputs": [
        {
          "internalType": "bool",
          "name": "",
          "type": "bool"
        }
      ],
      "stateMutability": "view",
      "type": "function"
    },
    {
      "inputs": [
        {
          "internalType": "uint256",
          "name": "_stableAmount",
          "type": "uint256"
        }
      ],
      "name": "swapStableForToken",
      "outputs": [],
      "stateMutability": "nonpayable",
      "type": "function"
    },
    {
      "inputs": [],
      "name": "talentPrice",
      "outputs": [
        {
          "internalType": "uint256",
          "name": "",
          "type": "uint256"
        }
      ],
      "stateMutability": "view",
      "type": "function"
    },
    {
      "inputs": [
        {
          "internalType": "address",
          "name": "",
          "type": "address"
        }
      ],
      "name": "talentRedeemableRewards",
      "outputs": [
        {
          "internalType": "uint256",
          "name": "",
          "type": "uint256"
        }
      ],
      "stateMutability": "view",
      "type": "function"
    },
    {
      "inputs": [],
      "name": "token",
      "outputs": [
        {
          "internalType": "address",
          "name": "",
          "type": "address"
        }
      ],
      "stateMutability": "view",
      "type": "function"
    },
    {
      "inputs": [],
      "name": "tokenBalance",
      "outputs": [
        {
          "internalType": "uint256",
          "name": "",
          "type": "uint256"
        }
      ],
      "stateMutability": "view",
      "type": "function"
    },
    {
      "inputs": [],
      "name": "tokenPrice",
      "outputs": [
        {
          "internalType": "uint256",
          "name": "",
          "type": "uint256"
        }
      ],
      "stateMutability": "view",
      "type": "function"
    },
    {
      "inputs": [],
      "name": "totalAdjustedShares",
      "outputs": [
        {
          "internalType": "uint256",
          "name": "",
          "type": "uint256"
        }
      ],
      "stateMutability": "view",
      "type": "function"
    },
    {
      "inputs": [],
      "name": "totalShares",
      "outputs": [
        {
          "internalType": "uint256",
          "name": "",
          "type": "uint256"
        }
      ],
      "stateMutability": "view",
      "type": "function"
    },
    {
      "inputs": [],
      "name": "totalStableStored",
      "outputs": [
        {
          "internalType": "uint256",
          "name": "",
          "type": "uint256"
        }
      ],
      "stateMutability": "view",
      "type": "function"
    },
    {
      "inputs": [],
      "name": "totalTokensStaked",
      "outputs": [
        {
          "internalType": "uint256",
          "name": "",
          "type": "uint256"
        }
      ],
      "stateMutability": "view",
      "type": "function"
    },
    {
      "inputs": [
        {
          "internalType": "address",
          "name": "_owner",
          "type": "address"
        },
        {
          "internalType": "address",
          "name": "_token",
          "type": "address"
        },
        {
          "internalType": "uint256",
          "name": "_tokenAmount",
          "type": "uint256"
        },
        {
          "internalType": "uint256",
          "name": "_timestamp",
          "type": "uint256"
        },
        {
          "internalType": "bool",
          "name": "firstStake",
          "type": "bool"
        }
      ],
      "name": "transferStake",
      "outputs": [],
      "stateMutability": "nonpayable",
      "type": "function"
    },
    {
      "inputs": [
        {
          "internalType": "address",
          "name": "_talent",
          "type": "address"
        }
      ],
      "name": "withdrawRewards",
      "outputs": [
        {
          "internalType": "bool",
          "name": "",
          "type": "bool"
        }
      ],
      "stateMutability": "nonpayable",
      "type": "function"
    },
    {
      "inputs": [
        {
          "internalType": "address",
          "name": "_talent",
          "type": "address"
        }
      ],
      "name": "withdrawTalentRewards",
      "outputs": [
        {
          "internalType": "bool",
          "name": "",
          "type": "bool"
        }
      ],
      "stateMutability": "nonpayable",
      "type": "function"
    }
  ],
  "bytecode": "0x608060405234801561001057600080fd5b506158a280620000216000396000f3fe608060405234801561001057600080fd5b50600436106103995760003560e01c80639010d07c116101e9578063be9a65551161010f578063e03352ce116100ad578063efbe1c1c1161007c578063efbe1c1c14610822578063f18d20be1461082c578063fb89960614610834578063fc0c546a1461084757600080fd5b8063e03352ce146107e5578063ed2f2369146107f8578063ee07080514610801578063ef5cfb8c1461080f57600080fd5b8063ca15c873116100e9578063ca15c873146107a2578063d1990538146107b5578063d4ce5789146107bf578063d547741f146107d257600080fd5b8063be9a655514610777578063bf55bd9714610781578063c45a01551461078957600080fd5b8063a217fddf11610187578063aa0b017911610156578063aa0b01791461072a578063aef2200d14610752578063b0e31b2d14610765578063b435842c1461076f57600080fd5b8063a217fddf14610692578063a4e47b661461069a578063a8bc58f21461070f578063a9895b1c1461071757600080fd5b806391d14854116101c357806391d148541461062b578063977bee8e14610664578063992642e5146106775780639e1a4d191461068a57600080fd5b80639010d07c146105e3578063904846731461060e57806391b70f601461061857600080fd5b806343f49d89116102ce57806373c56e641161026c5780637ff9b5961161023b5780637ff9b5961461058757806382f2f2e21461059157806388a7ca5c146105a45780638ba2855d146105d057600080fd5b806373c56e641461052d5780637773a92b146105405780637c27508c146105615780637eefc5251461057457600080fd5b80635bb47808116102a85780635bb47808146104ea5780636a0675cf146104fd5780636a61e5fc1461050757806371f19f941461051a57600080fd5b806343f49d89146104ba5780634be1c796146104cd5780634f7e5862146104d757600080fd5b80632f2ff15d1161033b5780633b039b9e116103155780633b039b9e146104615780633dbf35631461047457806342c0e5ef1461049457806342d86693146104a757600080fd5b80632f2ff15d1461043257806336568abe146104455780633a98ef391461045857600080fd5b806322b3a6a11161037757806322b3a6a1146103f3578063248a9ca3146103fd57806325b58c87146104205780632f2770db1461042a57600080fd5b806301ffc9a71461039e578063144fa6d7146103c65780631ea18fc5146103db575b600080fd5b6103b16103ac366004614fae565b61085a565b60405190151581526020015b60405180910390f35b6103d96103d4366004614fed565b61086b565b005b6103e56101035481565b6040519081526020016103bd565b6103e56101075481565b6103e561040b36600461500a565b60009081526065602052604090206001015490565b6103e56101045481565b6103d9610ac5565b6103d9610440366004615023565b610b3d565b6103d9610453366004615023565b610b67565b610105546103e5565b6103b161046f366004614fed565b610bf3565b6103e5610482366004614fed565b60ff6020526000908152604090205481565b6103e56104a236600461500a565b610dba565b6103b16104b5366004614fed565b610ddd565b6103e56104c8366004614fed565b610f0e565b6103e561010c5481565b6103d96104e5366004615061565b610fdb565b6103d96104f8366004614fed565b611038565b6103e56101095481565b6103d961051536600461500a565b61107a565b6103d961052836600461500a565b61108c565b6103d961053b3660046150b4565b611256565b6103e561054e366004614fed565b6101006020526000908152604090205481565b6103d961056f366004614fed565b611487565b6103e561058236600461500a565b6114ad565b6103e56101025481565b6103d961059f366004615113565b6114c6565b6105b76105b236600461514e565b611511565b6040516001600160e01b031990911681526020016103bd565b6103b16105de3660046151ed565b61183b565b6105f66105f136600461521b565b611916565b6040516001600160a01b0390911681526020016103bd565b6103e561010d5481565b6103d961062636600461523d565b61192e565b6103b1610639366004615023565b60009182526065602090815260408084206001600160a01b0393909316845291905290205460ff1690565b6103b16106723660046152a5565b611b73565b60c9546105f6906001600160a01b031681565b6103e5612023565b6103e5600081565b6106e56106a83660046151ed565b60fc602090815260009283526040808420909152908252902080546001820154600283015460038401546004909401549293919290919060ff1685565b6040805195865260208601949094529284019190915260608301521515608082015260a0016103bd565b6103e5612096565b6103d96107253660046152d1565b6120b8565b61073d610738366004615322565b6121ed565b604080519283526020830191909152016103bd565b6103e561076036600461500a565b61237b565b6103e56101055481565b6103e5612389565b6103e561010a5481565b6103d96123ba565b610101546105f69061010090046001600160a01b031681565b6103e56107b036600461500a565b6124d2565b6103e56101085481565b6103e56107cd36600461500a565b6124e9565b6103d96107e0366004615023565b612503565b6103d96107f3366004615363565b612528565b6103e560fd5481565b610101546103b19060ff1681565b6103b161081d366004614fed565b612581565b6103e561010b5481565b6103d9612596565b6103d96108423660046153a9565b612765565b60ca546105f6906001600160a01b031681565b600061086582612846565b92915050565b600061087681612884565b60ca546001600160a01b0316156108d45760405162461bcd60e51b815260206004820152601460248201527f537461626c6520636f696e2064697361626c656400000000000000000000000060448201526064015b60405180910390fd5b6001600160a01b0382166109205760405162461bcd60e51b81526020600482015260136024820152721059191c995cdcc81b5d5cdd081899481cd95d606a1b60448201526064016108cb565b6109536001600160a01b0383167f36372b070000000000000000000000000000000000000000000000000000000061288e565b61099f5760405162461bcd60e51b815260206004820152601760248201527f6e6f7420612076616c696420455243323020746f6b656e00000000000000000060448201526064016108cb565b6000829050610a48816001600160a01b03166395d89b416040518163ffffffff1660e01b8152600401600060405180830381865afa1580156109e5573d6000803e3d6000fd5b505050506040513d6000823e601f3d908101601f19168201604052610a0d9190810190615418565b6040518060400160405280600381526020017f54414c00000000000000000000000000000000000000000000000000000000008152506128aa565b610a945760405162461bcd60e51b815260206004820152601560248201527f746f6b656e206e616d65206973206e6f742054414c000000000000000000000060448201526064016108cb565b505060ca805473ffffffffffffffffffffffffffffffffffffffff19166001600160a01b0392909216919091179055565b6000610ad081612884565b6101015460ff1615610b245760405162461bcd60e51b815260206004820152601060248201527f616c72656164792064697361626c65640000000000000000000000000000000060448201526064016108cb565b610b2c6128cf565b50610101805460ff19166001179055565b600082815260656020526040902060010154610b5881612884565b610b62838361291e565b505050565b6001600160a01b0381163314610be55760405162461bcd60e51b815260206004820152602f60248201527f416363657373436f6e74726f6c3a2063616e206f6e6c792072656e6f756e636560448201527f20726f6c657320666f722073656c66000000000000000000000000000000000060648201526084016108cb565b610bef8282612940565b5050565b6000610c0960ca546001600160a01b0316151590565b610c4d5760405162461bcd60e51b8152602060048201526015602482015274151053081d1bdad95b881b9bdd081e595d081cd95d605a1b60448201526064016108cb565b816001600160a01b031663c4daa5936040518163ffffffff1660e01b8152600401602060405180830381865afa158015610c8b573d6000803e3d6000fd5b505050506040513d601f19601f82011682018060405250810190610caf91906154ba565b6001600160a01b0316336001600160a01b031614610d0f5760405162461bcd60e51b815260206004820152601e60248201527f6f6e6c79206f776e65722063616e20776974686472617720736861726573000060448201526064016108cb565b6001600160a01b03828116600090815260ff6020526040908190205460ca54915163a9059cbb60e01b8152336004820152602481018290529092919091169063a9059cbb906044016020604051808303816000875af1158015610d76573d6000803e3d6000fd5b505050506040513d601f19601f82011682018060405250810190610d9a91906154d7565b5050506001600160a01b0316600090815260ff6020526040812055600190565b61010354600090610dd383670de0b6b3a764000061550a565b6108659190615537565b6000610df360ca546001600160a01b0316151590565b610e375760405162461bcd60e51b8152602060048201526015602482015274151053081d1bdad95b881b9bdd081e595d081cd95d605a1b60448201526064016108cb565b61010e543390839060ff1615610e5c57610e5333856000612962565b60019250610f07565b61010e805460ff191660011790556001600160a01b03808316600090815260fc60209081526040808320938516835292905290812054610e9b906133a3565b9050610ea933866000612962565b600193506001600160a01b03808416600090815260fc60209081526040808320938616835292905220548190610ede906133a3565b61010754610eec919061554b565b610ef6919061555e565b610107555061010e805460ff191690555b5050919050565b6000610f198261341d565b610f655760405162461bcd60e51b815260206004820152601860248201527f6e6f7420612076616c69642074616c656e7420746f6b656e000000000000000060448201526064016108cb565b6000826001600160a01b031663aafa93716040518163ffffffff1660e01b8152600401602060405180830381865afa158015610fa5573d6000803e3d6000fd5b505050506040513d601f19601f82011682018060405250810190610fc99190615571565b9050610fd4816124e9565b9392505050565b6000610fe681612884565b6040805184815283151560208201526001600160a01b0380871692908816917f929ad80cfbf532d1e879107de0553ee80942d13c8043f2b2615f9b15b87d10da91015b60405180910390a35050505050565b600061104381612884565b5061010180546001600160a01b039092166101000274ffffffffffffffffffffffffffffffffffffffff0019909216919091179055565b600061108581612884565b5061010255565b600061109781612884565b60ca546001600160a01b03166110e75760405162461bcd60e51b8152602060048201526015602482015274151053081d1bdad95b881b9bdd081e595d081cd95d605a1b60448201526064016108cb565b6101045482111561113a5760405162461bcd60e51b815260206004820152601d60248201527f6e6f7420656e6f75676820737461626c6520696e20636f6e747261637400000060448201526064016108cb565b6000611145836114ad565b905082610104600082825461115a919061555e565b909155505060ca546040516323b872dd60e01b8152336004820152306024820152604481018390526001600160a01b03909116906323b872dd906064016020604051808303816000875af11580156111b6573d6000803e3d6000fd5b505050506040513d601f19601f820116820180604052508101906111da91906154d7565b5060c95460405163a9059cbb60e01b8152336004820152602481018590526001600160a01b039091169063a9059cbb906044016020604051808303816000875af115801561122c573d6000803e3d6000fd5b505050506040513d601f19601f8201168201806040525081019061125091906154d7565b50505050565b600061126181612884565b6001600160a01b0385166112ad5760405162461bcd60e51b81526020600482015260136024820152721059191c995cdcc81b5d5cdd081899481cd95d606a1b60448201526064016108cb565b6001600160a01b0386166112f95760405162461bcd60e51b81526020600482015260136024820152721059191c995cdcc81b5d5cdd081899481cd95d606a1b60448201526064016108cb565b6113028561341d565b6113595760405162461bcd60e51b815260206004820152602260248201527f546f6b656e206d75737420626520612076616c69642074616c656e7420746f6b60448201526132b760f11b60648201526084016108cb565b6001600160a01b03808716600090815260fc60209081526040808320938916835292905220821561138f57600080825560018201555b61010554156113cc57610107546113a961010d54866134ab565b6113b39190615537565b61010c546113c1919061554b565b61010c5561010d8490555b60006113db82600001546133a3565b82549091506000036113f95760fd546113f590600161554b565b60fd555b815461140690879061554b565b825561141186610dba565b8260010154611420919061554b565b60018301556002820185905561010c54600383015560048201805460ff191690556101055461145090879061554b565b6101055581548190611461906133a3565b6101075461146f919061554b565b611479919061555e565b610107555050505050505050565b600061149281612884565b506001600160a01b0316600090815260ff6020526040812055565b61010254600090610dd383670de0b6b3a764000061550a565b60006114d181612884565b5061010a85905561010b9390935561010291909155610103556101085561010d55600061010c81905561010781905561010581905560fd81905561010955565b600061010a544210156115665760405162461bcd60e51b815260206004820152601e60248201527f7374616b696e6720706572696f64206e6f74207965742073746172746564000060448201526064016108cb565b61010b544211156115b95760405162461bcd60e51b815260206004820152601f60248201527f7374616b696e6720706572696f6420616c72656164792066696e69736865640060448201526064016108cb565b60ca546001600160a01b031633036116df576101015460ff161561161f5760405162461bcd60e51b815260206004820152601960248201527f7374616b696e6720686173206265656e2064697361626c65640000000000000060448201526064016108cb565b600061166084848080601f01602080910402602001604051908101604052809392919081815260200183838082843760009201919091525061355592505050565b905061166d8682876135b0565b60408051868152600060208201526001600160a01b0380841692908916917f929ad80cfbf532d1e879107de0553ee80942d13c8043f2b2615f9b15b87d10da910160405180910390a37f88a7ca5c75456956db1e96e88ee87aca8bdad85895835c2dc76fcc96396569cf915050611832565b6116e83361341d565b156117c45760ca546001600160a01b031661173d5760405162461bcd60e51b8152602060048201526015602482015274151053081d1bdad95b881b9bdd081e595d081cd95d605a1b60448201526064016108cb565b33600061174b87838861376e565b9050816001600160a01b0316876001600160a01b03167f390b1276974b9463e5d66ab10df69b6f3d7b930eb066a0e66df327edd2cc811c8360405161179291815260200190565b60405180910390a37f88a7ca5c75456956db1e96e88ee87aca8bdad85895835c2dc76fcc96396569cf92505050611832565b60405162461bcd60e51b815260206004820152602360248201527f556e7265636f676e697a6564204552433133363320746f6b656e20726563656960448201527f766564000000000000000000000000000000000000000000000000000000000060648201526084016108cb565b95945050505050565b61010e546000908390839060ff16156118635761185a85856001612962565b6001925061190e565b61010e805460ff191660011790556001600160a01b03808316600090815260fc602090815260408083209385168352929052908120546118a2906133a3565b90506118b086866001612962565b600193506001600160a01b03808416600090815260fc602090815260408083209386168352929052205481906118e5906133a3565b610107546118f3919061554b565b6118fd919061555e565b610107555061010e805460ff191690555b505092915050565b6000828152609760205260408120610fd49083613ddf565b600054610100900460ff161580801561194e5750600054600160ff909116105b806119685750303b158015611968575060005460ff166001145b6119da5760405162461bcd60e51b815260206004820152602e60248201527f496e697469616c697a61626c653a20636f6e747261637420697320616c72656160448201527f647920696e697469616c697a656400000000000000000000000000000000000060648201526084016108cb565b6000805460ff1916600117905580156119fd576000805461ff0019166101001790555b60008311611a4d5760405162461bcd60e51b815260206004820152601760248201527f5f746f6b656e50726963652063616e6e6f74206265203000000000000000000060448201526064016108cb565b60008211611a9d5760405162461bcd60e51b815260206004820152601860248201527f5f74616c656e7450726963652063616e6e6f742062652030000000000000000060448201526064016108cb565b611aa5613deb565b611aad613deb565b611ab5613deb565b611abe85613e58565b611ac66123ba565b61010a88905561010b879055610108869055610101805474ffffffffffffffffffffffffffffffffffffffff0019166101006001600160a01b0387160217905561010283905561010382905561010d889055611b2360003361291e565b8015611b69576000805461ff0019169055604051600181527f7f26b83ff96e1f2b6a682f133852f6798a09c465da95921460cefb38474024989060200160405180910390a15b5050505050505050565b600061010a54421015611bc85760405162461bcd60e51b815260206004820152601e60248201527f7374616b696e6720706572696f64206e6f74207965742073746172746564000060448201526064016108cb565b61010b54421115611c1b5760405162461bcd60e51b815260206004820152601f60248201527f7374616b696e6720706572696f6420616c72656164792066696e69736865640060448201526064016108cb565b60ca546001600160a01b031615611c745760405162461bcd60e51b815260206004820152601460248201527f537461626c6520636f696e2064697361626c656400000000000000000000000060448201526064016108cb565b61010e543390849060ff1615611e1d5760008411611ccc5760405162461bcd60e51b8152602060048201526015602482015274616d6f756e742063616e6e6f74206265207a65726f60581b60448201526064016108cb565b6101015460ff1615611d205760405162461bcd60e51b815260206004820152601960248201527f7374616b696e6720686173206265656e2064697361626c65640000000000000060448201526064016108cb565b6000611d2b856114ad565b9050846101046000828254611d40919061554b565b90915550611d5190503387836135b0565b60c9546040516323b872dd60e01b8152336004820152306024820152604481018790526001600160a01b03909116906323b872dd906064016020604051808303816000875af1158015611da8573d6000803e3d6000fd5b505050506040513d601f19601f82011682018060405250810190611dcc91906154d7565b5060408051828152600160208201526001600160a01b0388169133917f929ad80cfbf532d1e879107de0553ee80942d13c8043f2b2615f9b15b87d10da910160405180910390a3600193505061190e565b61010e805460ff191660011790556001600160a01b03808316600090815260fc60209081526040808320938516835292905290812054611e5c906133a3565b905060008511611ea65760405162461bcd60e51b8152602060048201526015602482015274616d6f756e742063616e6e6f74206265207a65726f60581b60448201526064016108cb565b6101015460ff1615611efa5760405162461bcd60e51b815260206004820152601960248201527f7374616b696e6720686173206265656e2064697361626c65640000000000000060448201526064016108cb565b6000611f05866114ad565b9050856101046000828254611f1a919061554b565b90915550611f2b90503388836135b0565b60c9546040516323b872dd60e01b8152336004820152306024820152604481018890526001600160a01b03909116906323b872dd906064016020604051808303816000875af1158015611f82573d6000803e3d6000fd5b505050506040513d601f19601f82011682018060405250810190611fa691906154d7565b5060408051828152600160208201526001600160a01b0389169133917f929ad80cfbf532d1e879107de0553ee80942d13c8043f2b2615f9b15b87d10da910160405180910390a360019450506001600160a01b03808416600090815260fc602090815260408083209386168352929052205481906118e5906133a3565b60ca546040516370a0823160e01b81523060048201526000916001600160a01b0316906370a08231906024015b602060405180830381865afa15801561206d573d6000803e3d6000fd5b505050506040513d601f19601f820116820180604052508101906120919190615571565b905090565b60006101065461010954610108546120ae919061555e565b612091919061555e565b60006120c381612884565b6001600160a01b03808716600090815260fc602090815260408083209389168352929052206101055415612125576101075461210261010d54876134ab565b61210c9190615537565b61010c5461211a919061554b565b61010c5561010d8590555b600061213482600001546133a3565b9050838561010954612146919061554b565b612150919061554b565b6101095561010c54600383015560028201869055815461217190869061554b565b825561217c85610dba565b826001015461218b919061554b565b60018301556101055461219f90869061554b565b610105556001600160a01b038716600090815260ff60205260409020546121c790859061554b565b6001600160a01b038816600090815260ff602052604090205581548190611461906133a3565b6001600160a01b03808416600090815260fc602090815260408083209386168352928152828220610100909152918120549091829182901561224957506001600160a01b03851660009081526101006020526040902054612275565b6101075461225a61010d54876134ab565b6122649190615537565b61010c54612272919061554b565b90505b6000866001600160a01b031663c4daa5936040518163ffffffff1660e01b8152600401602060405180830381865afa1580156122b5573d6000803e3d6000fd5b505050506040513d601f19601f820116820180604052508101906122d991906154ba565b6040516370a0823160e01b81526001600160a01b0380831660048301529192506000918916906370a0823190602401602060405180830381865afa158015612325573d6000803e3d6000fd5b505050506040513d601f19601f820116820180604052508101906123499190615571565b90506000806123678660000154876003015487896001015487613f4c565b90985096505050505050505b935093915050565b60006108656104a2836114ad565b60c9546040516370a0823160e01b81523060048201526000916001600160a01b0316906370a0823190602401612050565b600054610100900460ff16158080156123da5750600054600160ff909116105b806123f45750303b1580156123f4575060005460ff166001145b6124665760405162461bcd60e51b815260206004820152602e60248201527f496e697469616c697a61626c653a20636f6e747261637420697320616c72656160448201527f647920696e697469616c697a656400000000000000000000000000000000000060648201526084016108cb565b6000805460ff191660011790558015612489576000805461ff0019166101001790555b80156124cf576000805461ff0019169055604051600181527f7f26b83ff96e1f2b6a682f133852f6798a09c465da95921460cefb38474024989060200160405180910390a15b50565b600081815260976020526040812061086590613fa6565b6000670de0b6b3a76400006101035483610dd3919061550a565b60008281526065602052604090206001015461251e81612884565b610b628383612940565b600061253381612884565b836001600160a01b0316856001600160a01b03167f661cda9d247039eabdcc72b8fed0de4ce46c907660a504c7e40889080fbd55908585604051611029929190918252602082015260400190565b600061258d338361183b565b50600192915050565b60006125a181612884565b6101015460ff16806125b5575061010b5442105b6126275760405162461bcd60e51b815260206004820152602b60248201527f6e6f742064697361626c65642c20616e64206e6f7420656e64206f662073746160448201527f6b696e672065697468657200000000000000000000000000000000000000000060648201526084016108cb565b60fd54156126775760405162461bcd60e51b815260206004820152601d60248201527f746865726520617265207374696c6c20616374697665207374616b657300000060448201526064016108cb565b6000612681612096565b9050600081116126d35760405162461bcd60e51b815260206004820152601860248201527f6e6f7468696e67206c65667420746f207769746864726177000000000000000060448201526064016108cb565b60ca5460405163a9059cbb60e01b8152336004820152602481018390526001600160a01b039091169063a9059cbb906044016020604051808303816000875af1158015612724573d6000803e3d6000fd5b505050506040513d601f19601f8201168201806040525081019061274891906154d7565b5080610106600082825461275c919061554b565b90915550505050565b600061277081612884565b6001600160a01b0384166127bc5760405162461bcd60e51b81526020600482015260136024820152721059191c995cdcc81b5d5cdd081899481cd95d606a1b60448201526064016108cb565b6127c58461341d565b61281c5760405162461bcd60e51b815260206004820152602260248201527f546f6b656e206d75737420626520612076616c69642074616c656e7420746f6b60448201526132b760f11b60648201526084016108cb565b506001600160a01b03909216600090815260ff602090815260408083209390935561010090522055565b60006001600160e01b031982167f5a05180f000000000000000000000000000000000000000000000000000000001480610865575061086582613fb0565b6124cf8133613ffe565b600061289983614073565b8015610fd45750610fd483836140a6565b600081518351148015610fd45750508051602091820120825192909101919091201490565b6101015460ff16156128dd57565b610105546000036128ea57565b610107546128fb61010d54426134ab565b6129059190615537565b61010c54612913919061554b565b61010c554261010d55565b6129288282614144565b6000828152609760205260409020610b6290826141e6565b61294a82826141fb565b6000828152609760205260409020610b62908261427e565b61010e548390839060ff1615612e6d576001600160a01b03808616600090815260fc6020908152604080832093881683529290522061299f6128cf565b6000856001600160a01b031663c4daa5936040518163ffffffff1660e01b8152600401602060405180830381865afa1580156129df573d6000803e3d6000fd5b505050506040513d601f19601f82011682018060405250810190612a0391906154ba565b6001600160a01b0387166000908152610100602052604081205491925090612a2e5761010c54612a49565b6001600160a01b038716600090815261010060205260409020545b8354600385015460018601546040516370a0823160e01b81526001600160a01b0387811660048301529495506000948594612ad7949093909288928f16906370a08231906024015b602060405180830381865afa158015612aae573d6000803e3d6000fd5b505050506040513d601f19601f82011682018060405250810190612ad29190615571565b613f4c565b9092509050612ae6818361554b565b6101096000828254612af8919061554b565b9091555050600385018390554260028601556001600160a01b038916600090815260ff602052604081208054839290612b3290849061554b565b90915550506101015460ff168015612b4f5750600485015460ff16155b15612b7e5760048501805460ff1916600190811790915560fd8054600090612b7890849061555e565b90915550505b81600003612b9057505050505061339c565b6000886001811115612ba457612ba461558a565b03612c7c5760ca5460405163a9059cbb60e01b81526001600160a01b038c81166004830152602482018590529091169063a9059cbb906044016020604051808303816000875af1158015612bfc573d6000803e3d6000fd5b505050506040513d601f19601f82011682018060405250810190612c2091906154d7565b50886001600160a01b03168a6001600160a01b03167f013ceff621e16e2f96e454db0b811d5e35d3be38beab8a6bf4be6a3dc8cd23f38484604051612c6f929190918252602082015260400190565b60405180910390a3612e63565b6001886001811115612c9057612c9061558a565b03612e1b576000612ca08a610f0e565b90506000838211612cb15781612cb3565b835b90506000612cc1828661555e565b9050612cce8d8d84614293565b8b6001600160a01b03168d6001600160a01b03167f661cda9d247039eabdcc72b8fed0de4ce46c907660a504c7e40889080fbd55908487604051612d1c929190918252602082015260400190565b60405180910390a3600081118015612d3e575060ca546001600160a01b031615155b15612e135760ca5460405163a9059cbb60e01b81526001600160a01b038f81166004830152602482018490529091169063a9059cbb906044016020604051808303816000875af1158015612d96573d6000803e3d6000fd5b505050506040513d601f19601f82011682018060405250810190612dba91906154d7565b508b6001600160a01b03168d6001600160a01b03167f013ceff621e16e2f96e454db0b811d5e35d3be38beab8a6bf4be6a3dc8cd23f3836000604051612e0a929190918252602082015260400190565b60405180910390a35b505050612e63565b60405162461bcd60e51b815260206004820152601e60248201527f556e7265636f676e697a656420636865636b706f696e7420616374696f6e000060448201526064016108cb565b505050505061339c565b61010e805460ff191660011790556001600160a01b03808316600090815260fc60209081526040808320938516835292905290812054612eac906133a3565b6001600160a01b03808816600090815260fc60209081526040808320938a16835292905220909150612edc6128cf565b6000866001600160a01b031663c4daa5936040518163ffffffff1660e01b8152600401602060405180830381865afa158015612f1c573d6000803e3d6000fd5b505050506040513d601f19601f82011682018060405250810190612f4091906154ba565b6001600160a01b0388166000908152610100602052604081205491925090612f6b5761010c54612f86565b6001600160a01b038816600090815261010060205260409020545b9050600080612fd9856000015486600301548588600101548e6001600160a01b03166370a082318a6040518263ffffffff1660e01b8152600401612a9191906001600160a01b0391909116815260200190565b9092509050612fe8818361554b565b6101096000828254612ffa919061554b565b9091555050600385018390554260028601556001600160a01b038a16600090815260ff60205260408120805483929061303490849061554b565b90915550506101015460ff1680156130515750600485015460ff16155b156130805760048501805460ff1916600190811790915560fd805460009061307a90849061555e565b90915550505b81600003613092575050505050613342565b60008960018111156130a6576130a661558a565b0361317e5760ca5460405163a9059cbb60e01b81526001600160a01b038d81166004830152602482018590529091169063a9059cbb906044016020604051808303816000875af11580156130fe573d6000803e3d6000fd5b505050506040513d601f19601f8201168201806040525081019061312291906154d7565b50896001600160a01b03168b6001600160a01b03167f013ceff621e16e2f96e454db0b811d5e35d3be38beab8a6bf4be6a3dc8cd23f38484604051613171929190918252602082015260400190565b60405180910390a361333c565b60018960018111156131925761319261558a565b03612e1b5760006131a28b610f0e565b905060008382116131b357816131b5565b835b905060006131c3828661555e565b90506131d08e8e84614293565b8c6001600160a01b03168e6001600160a01b03167f661cda9d247039eabdcc72b8fed0de4ce46c907660a504c7e40889080fbd5590848760405161321e929190918252602082015260400190565b60405180910390a3600081118015613240575060ca546001600160a01b031615155b156133385760ca60009054906101000a90046001600160a01b03166001600160a01b031663a9059cbb8f836040518363ffffffff1660e01b815260040161329c9291906001600160a01b03929092168252602082015260400190565b6020604051808303816000875af11580156132bb573d6000803e3d6000fd5b505050506040513d601f19601f820116820180604052508101906132df91906154d7565b508c6001600160a01b03168e6001600160a01b03167f013ceff621e16e2f96e454db0b811d5e35d3be38beab8a6bf4be6a3dc8cd23f383600060405161332f929190918252602082015260400190565b60405180910390a35b5050505b50505050505b6001600160a01b03808416600090815260fc60209081526040808320938616835292905220548190613373906133a3565b61010754613381919061554b565b61338b919061555e565b610107555061010e805460ff191690555b5050505050565b6000816000036133b557506000919050565b600382116133c557506001919050565b600060026133d484600161554b565b6133de9190615537565b90508291505b81811015613417579050806002816133fc8186615537565b613406919061554b565b6134109190615537565b90506133e4565b50919050565b610101546040517f099aba560000000000000000000000000000000000000000000000000000000081526001600160a01b0383811660048301526000926101009004169063099aba5690602401602060405180830381865afa158015613487573d6000803e3d6000fd5b505050506040513d601f19601f8201168201806040525081019061086591906154d7565b60008060006134ba8585614350565b915091506000806134cb84846146ab565b9150915060006134db83836148b8565b9050306001600160a01b031663d19905386040518163ffffffff1660e01b8152600401602060405180830381865afa15801561351b573d6000803e3d6000fd5b505050506040513d601f19601f8201168201806040525081019061353f9190615571565b613549908261550a565b98975050505050505050565b600081516014146135a85760405162461bcd60e51b815260206004820152601f60248201527f696e76616c69642064617461206c656e67746820666f7220616464726573730060448201526064016108cb565b506014015190565b61010e548390839060ff1615613679576135c98461341d565b6136155760405162461bcd60e51b815260206004820152601860248201527f6e6f7420612076616c69642074616c656e7420746f6b656e000000000000000060448201526064016108cb565b6000831161365d5760405162461bcd60e51b8152602060048201526015602482015274616d6f756e742063616e6e6f74206265207a65726f60581b60448201526064016108cb565b61366985856001612962565b613674858585614293565b61339c565b61010e805460ff191660011790556001600160a01b03808316600090815260fc602090815260408083209385168352929052908120546136b8906133a3565b90506136c38561341d565b61370f5760405162461bcd60e51b815260206004820152601860248201527f6e6f7420612076616c69642074616c656e7420746f6b656e000000000000000060448201526064016108cb565b600084116137575760405162461bcd60e51b8152602060048201526015602482015274616d6f756e742063616e6e6f74206265207a65726f60581b60448201526064016108cb565b61376386866001612962565b613342868686614293565b61010e546000908490849060ff1615613a615761378a8561341d565b6137d65760405162461bcd60e51b815260206004820152601860248201527f6e6f7420612076616c69642074616c656e7420746f6b656e000000000000000060448201526064016108cb565b6001600160a01b03808716600090815260fc602090815260408083209389168352929052206001810154851480156138195761381488886000612962565b613825565b61382588886001612962565b6001600160a01b03808916600090815260fc60209081526040808320938b16835292905220600281015490925061389e5760405162461bcd60e51b815260206004820152601460248201527f7374616b6520646f6573206e6f7420657869737400000000000000000000000060448201526064016108cb565b85826001015410156138af57600080fd5b60018201546000906138c66402540be4008961550a565b6138d09190615537565b905060006402540be4008285600001546138ea919061550a565b6138f49190615537565b60ca546040516370a0823160e01b815230600482015291925082916001600160a01b03909116906370a0823190602401602060405180830381865afa158015613941573d6000803e3d6000fd5b505050506040513d601f19601f820116820180604052508101906139659190615571565b10156139b35760405162461bcd60e51b815260206004820152601a60248201527f6e6f7420656e6f7567682054414c20746f20776974686472617700000000000060448201526064016108cb565b878460010160008282546139c7919061555e565b90915550508354819085906000906139e090849061555e565b925050819055508061010560008282546139fa919061555e565b90915550508354158015613a135750600484015460ff16155b15613a425760048401805460ff1916600190811790915560fd8054600090613a3c90849061555e565b90915550505b613a4c8989614925565b613a568a826149a2565b9550613dd692505050565b61010e805460ff191660011790556001600160a01b03808316600090815260fc60209081526040808320938516835292905290812054613aa0906133a3565b9050613aab8661341d565b613af75760405162461bcd60e51b815260206004820152601860248201527f6e6f7420612076616c69642074616c656e7420746f6b656e000000000000000060448201526064016108cb565b6001600160a01b03808816600090815260fc60209081526040808320938a16835292905220600181015486148015613b3a57613b3589896000612962565b613b46565b613b4689896001612962565b6001600160a01b03808a16600090815260fc60209081526040808320938c168352929052206002810154909250613bbf5760405162461bcd60e51b815260206004820152601460248201527f7374616b6520646f6573206e6f7420657869737400000000000000000000000060448201526064016108cb565b8682600101541015613bd057600080fd5b6001820154600090613be76402540be4008a61550a565b613bf19190615537565b905060006402540be400828560000154613c0b919061550a565b613c159190615537565b60ca546040516370a0823160e01b815230600482015291925082916001600160a01b03909116906370a0823190602401602060405180830381865afa158015613c62573d6000803e3d6000fd5b505050506040513d601f19601f82011682018060405250810190613c869190615571565b1015613cd45760405162461bcd60e51b815260206004820152601a60248201527f6e6f7420656e6f7567682054414c20746f20776974686472617700000000000060448201526064016108cb565b88846001016000828254613ce8919061555e565b9091555050835481908590600090613d0190849061555e565b92505081905550806101056000828254613d1b919061555e565b90915550508354158015613d345750600484015460ff16155b15613d635760048401805460ff1916600190811790915560fd8054600090613d5d90849061555e565b90915550505b613d6d8a8a614925565b613d778b826149a2565b96505050506001600160a01b03808416600090815260fc60209081526040808320938616835292905220548190613dad906133a3565b61010754613dbb919061554b565b613dc5919061555e565b610107555061010e805460ff191690555b50509392505050565b6000610fd48383614a19565b600054610100900460ff16613e565760405162461bcd60e51b815260206004820152602b60248201527f496e697469616c697a61626c653a20636f6e7472616374206973206e6f74206960448201526a6e697469616c697a696e6760a81b60648201526084016108cb565b565b600054610100900460ff16613ec35760405162461bcd60e51b815260206004820152602b60248201527f496e697469616c697a61626c653a20636f6e7472616374206973206e6f74206960448201526a6e697469616c697a696e6760a81b60648201526084016108cb565b6001600160a01b038116613f195760405162461bcd60e51b815260206004820152601c60248201527f737461626c652061646472657373206d7573742062652076616c69640000000060448201526064016108cb565b60c9805473ffffffffffffffffffffffffffffffffffffffff19166001600160a01b0383161790556124cf60003361291e565b600080806402540be400613f60888861555e565b613f698a6133a3565b613f73919061550a565b613f7d9190615537565b90506000613f8c828787614a43565b9050613f98818361555e565b999098509650505050505050565b6000610865825490565b60006001600160e01b031982167f7965db0b00000000000000000000000000000000000000000000000000000000148061086557506301ffc9a760e01b6001600160e01b0319831614610865565b60008281526065602090815260408083206001600160a01b038516845290915290205460ff16610bef5761403181614ae1565b61403c836020614af3565b60405160200161404d9291906155a0565b60408051601f198184030181529082905262461bcd60e51b82526108cb91600401615621565b6000614086826301ffc9a760e01b6140a6565b8015610865575061409f826001600160e01b03196140a6565b1592915050565b604080516001600160e01b03198316602480830191909152825180830390910181526044909101909152602080820180517bffffffffffffffffffffffffffffffffffffffffffffffffffffffff166301ffc9a760e01b178152825160009392849283928392918391908a617530fa92503d9150600051905082801561412d575060208210155b80156141395750600081115b979650505050505050565b60008281526065602090815260408083206001600160a01b038516845290915290205460ff16610bef5760008281526065602090815260408083206001600160a01b03851684529091529020805460ff191660011790556141a23390565b6001600160a01b0316816001600160a01b0316837f2f8788117e7eff1d82e926ec794901d17c78024a50270940304540a733656f0d60405160405180910390a45050565b6000610fd4836001600160a01b038416614cd4565b60008281526065602090815260408083206001600160a01b038516845290915290205460ff1615610bef5760008281526065602090815260408083206001600160a01b0385168085529252808320805460ff1916905551339285917ff6391f5c32d9c69d2a47ea670b442974b53935d1edc7fd64eb21e047a839171b9190a45050565b6000610fd4836001600160a01b038416614d23565b600061429e82610dba565b6001600160a01b03808616600090815260fc60209081526040808320938816835292905290812080549293509190036142f657600160fd60008282546142e4919061554b565b909155505060048101805460ff191690555b8281600001600082825461430a919061554b565b9250508190555081816001016000828254614325919061554b565b9250508190555082610105600082825461433f919061554b565b9091555061339c9050858584614e1d565b600080306001600160a01b031663be9a65556040518163ffffffff1660e01b8152600401602060405180830381865afa158015614391573d6000803e3d6000fd5b505050506040513d601f19601f820116820180604052508101906143b59190615571565b831115806144245750306001600160a01b031663efbe1c1c6040518163ffffffff1660e01b8152600401602060405180830381865afa1580156143fc573d6000803e3d6000fd5b505050506040513d601f19601f820116820180604052508101906144209190615571565b8410155b156144f657306001600160a01b031663be9a65556040518163ffffffff1660e01b8152600401602060405180830381865afa158015614467573d6000803e3d6000fd5b505050506040513d601f19601f8201168201806040525081019061448b9190615571565b306001600160a01b031663be9a65556040518163ffffffff1660e01b8152600401602060405180830381865afa1580156144c9573d6000803e3d6000fd5b505050506040513d601f19601f820116820180604052508101906144ed9190615571565b915091506146a4565b6000306001600160a01b031663be9a65556040518163ffffffff1660e01b8152600401602060405180830381865afa158015614536573d6000803e3d6000fd5b505050506040513d601f19601f8201168201806040525081019061455a9190615571565b851061456657846145c8565b306001600160a01b031663be9a65556040518163ffffffff1660e01b8152600401602060405180830381865afa1580156145a4573d6000803e3d6000fd5b505050506040513d601f19601f820116820180604052508101906145c89190615571565b90506000306001600160a01b031663efbe1c1c6040518163ffffffff1660e01b8152600401602060405180830381865afa15801561460a573d6000803e3d6000fd5b505050506040513d601f19601f8201168201806040525081019061462e9190615571565b851161463a578461469c565b306001600160a01b031663efbe1c1c6040518163ffffffff1660e01b8152600401602060405180830381865afa158015614678573d6000803e3d6000fd5b505050506040513d601f19601f8201168201806040525081019061469c9190615571565b919350909150505b9250929050565b6000806000306001600160a01b031663be9a65556040518163ffffffff1660e01b8152600401602060405180830381865afa1580156146ee573d6000803e3d6000fd5b505050506040513d601f19601f820116820180604052508101906147129190615571565b306001600160a01b031663efbe1c1c6040518163ffffffff1660e01b8152600401602060405180830381865afa158015614750573d6000803e3d6000fd5b505050506040513d601f19601f820116820180604052508101906147749190615571565b61477e919061555e565b905080600003614796576000600192509250506146a4565b6000816402540be400306001600160a01b031663be9a65556040518163ffffffff1660e01b8152600401602060405180830381865afa1580156147dd573d6000803e3d6000fd5b505050506040513d601f19601f820116820180604052508101906148019190615571565b61480b908961555e565b614815919061550a565b61481f9190615537565b90506000826402540be400306001600160a01b031663be9a65556040518163ffffffff1660e01b8152600401602060405180830381865afa158015614868573d6000803e3d6000fd5b505050506040513d601f19601f8201168201806040525081019061488c9190615571565b614896908961555e565b6148a0919061550a565b6148aa9190615537565b919791965090945050505050565b6000806148c56000614f48565b6148d36402540be400614f48565b6148dd9190615654565b905060006148ea85614f48565b6148f385614f48565b6148fd9190615654565b90506000826149116402540be40084615674565b61491b91906156a4565b9695505050505050565b6040517f9dc29fac000000000000000000000000000000000000000000000000000000008152306004820152602481018290526001600160a01b03831690639dc29fac90604401600060405180830381600087803b15801561498657600080fd5b505af115801561499a573d6000803e3d6000fd5b505050505050565b60ca5460405163a9059cbb60e01b81526001600160a01b038481166004830152602482018490529091169063a9059cbb906044016020604051808303816000875af11580156149f5573d6000803e3d6000fd5b505050506040513d601f19601f82011682018060405250810190610b6291906154d7565b6000826000018281548110614a3057614a306156d2565b9060005260206000200154905092915050565b600080614a5d614a586402540be4008661550a565b6133a3565b90506000614a73614a586402540be4008661550a565b90506000614a81828461554b565b614a906402540be4008461550a565b614a9a9190615537565b905060006402540be400614aae838a61550a565b614ab89190615537565b90506000614ac760648a615537565b905080821015614ad5578091505b50979650505050505050565b60606108656001600160a01b03831660145b60606000614b0283600261550a565b614b0d90600261554b565b67ffffffffffffffff811115614b2557614b256153de565b6040519080825280601f01601f191660200182016040528015614b4f576020820181803683370190505b5090507f300000000000000000000000000000000000000000000000000000000000000081600081518110614b8657614b866156d2565b60200101906001600160f81b031916908160001a9053507f780000000000000000000000000000000000000000000000000000000000000081600181518110614bd157614bd16156d2565b60200101906001600160f81b031916908160001a9053506000614bf584600261550a565b614c0090600161554b565b90505b6001811115614c85577f303132333435363738396162636465660000000000000000000000000000000085600f1660108110614c4157614c416156d2565b1a60f81b828281518110614c5757614c576156d2565b60200101906001600160f81b031916908160001a90535060049490941c93614c7e816156e8565b9050614c03565b508315610fd45760405162461bcd60e51b815260206004820181905260248201527f537472696e67733a20686578206c656e67746820696e73756666696369656e7460448201526064016108cb565b6000818152600183016020526040812054614d1b57508154600181810184556000848152602080822090930184905584548482528286019093526040902091909155610865565b506000610865565b60008181526001830160205260408120548015614e0c576000614d4760018361555e565b8554909150600090614d5b9060019061555e565b9050818114614dc0576000866000018281548110614d7b57614d7b6156d2565b9060005260206000200154905080876000018481548110614d9e57614d9e6156d2565b6000918252602080832090910192909255918252600188019052604090208390555b8554869080614dd157614dd16156ff565b600190038181906000526020600020016000905590558560010160008681526020019081526020016000206000905560019350505050610865565b6000915050610865565b5092915050565b6040517f40c10f190000000000000000000000000000000000000000000000000000000081526001600160a01b038481166004830152602482018390528316906340c10f1990604401600060405180830381600087803b158015614e8057600080fd5b505af1158015614e94573d6000803e3d6000fd5b505050506001600160a01b03821660009081526101006020526040902054158015614f2057506000826001600160a01b0316633e0075a16040518163ffffffff1660e01b8152600401602060405180830381865afa158015614efa573d6000803e3d6000fd5b505050506040513d601f19601f82011682018060405250810190614f1e9190615571565b115b15610b625761010c546001600160a01b03831660009081526101006020526040902055505050565b6000816402540be40081614f5d60028361583d565b614f679190615674565b614f7260028461583d565b614f7c9083615674565b6003614f88818661583d565b614f9291906156a4565b614f9c9190615654565b614fa6919061584c565b949350505050565b600060208284031215614fc057600080fd5b81356001600160e01b031981168114610fd457600080fd5b6001600160a01b03811681146124cf57600080fd5b600060208284031215614fff57600080fd5b8135610fd481614fd8565b60006020828403121561501c57600080fd5b5035919050565b6000806040838503121561503657600080fd5b82359150602083013561504881614fd8565b809150509250929050565b80151581146124cf57600080fd5b6000806000806080858703121561507757600080fd5b843561508281614fd8565b9350602085013561509281614fd8565b92506040850135915060608501356150a981615053565b939692955090935050565b600080600080600060a086880312156150cc57600080fd5b85356150d781614fd8565b945060208601356150e781614fd8565b93506040860135925060608601359150608086013561510581615053565b809150509295509295909350565b600080600080600060a0868803121561512b57600080fd5b505083359560208501359550604085013594606081013594506080013592509050565b60008060008060006080868803121561516657600080fd5b853561517181614fd8565b9450602086013561518181614fd8565b935060408601359250606086013567ffffffffffffffff808211156151a557600080fd5b818801915088601f8301126151b957600080fd5b8135818111156151c857600080fd5b8960208285010111156151da57600080fd5b9699959850939650602001949392505050565b6000806040838503121561520057600080fd5b823561520b81614fd8565b9150602083013561504881614fd8565b6000806040838503121561522e57600080fd5b50508035926020909101359150565b600080600080600080600060e0888a03121561525857600080fd5b873596506020880135955060408801359450606088013561527881614fd8565b9350608088013561528881614fd8565b9699959850939692959460a0840135945060c09093013592915050565b600080604083850312156152b857600080fd5b82356152c381614fd8565b946020939093013593505050565b600080600080600060a086880312156152e957600080fd5b85356152f481614fd8565b9450602086013561530481614fd8565b94979496505050506040830135926060810135926080909101359150565b60008060006060848603121561533757600080fd5b833561534281614fd8565b9250602084013561535281614fd8565b929592945050506040919091013590565b6000806000806080858703121561537957600080fd5b843561538481614fd8565b9350602085013561539481614fd8565b93969395505050506040820135916060013590565b6000806000606084860312156153be57600080fd5b83356153c981614fd8565b95602085013595506040909401359392505050565b634e487b7160e01b600052604160045260246000fd5b60005b8381101561540f5781810151838201526020016153f7565b50506000910152565b60006020828403121561542a57600080fd5b815167ffffffffffffffff8082111561544257600080fd5b818401915084601f83011261545657600080fd5b815181811115615468576154686153de565b604051601f8201601f19908116603f01168101908382118183101715615490576154906153de565b816040528281528760208487010111156154a957600080fd5b6141398360208301602088016153f4565b6000602082840312156154cc57600080fd5b8151610fd481614fd8565b6000602082840312156154e957600080fd5b8151610fd481615053565b634e487b7160e01b600052601160045260246000fd5b8082028115828204841417610865576108656154f4565b634e487b7160e01b600052601260045260246000fd5b60008261554657615546615521565b500490565b80820180821115610865576108656154f4565b81810381811115610865576108656154f4565b60006020828403121561558357600080fd5b5051919050565b634e487b7160e01b600052602160045260246000fd5b7f416363657373436f6e74726f6c3a206163636f756e74200000000000000000008152600083516155d88160178501602088016153f4565b7f206973206d697373696e6720726f6c652000000000000000000000000000000060179184019182015283516156158160288401602088016153f4565b01602801949350505050565b60208152600082518060208401526156408160408501602087016153f4565b601f01601f19169190910160400192915050565b8181036000831280158383131683831282161715614e1657614e166154f4565b80820260008212600160ff1b84141615615690576156906154f4565b8181058314821517610865576108656154f4565b6000826156b3576156b3615521565b600160ff1b8214600019841416156156cd576156cd6154f4565b500590565b634e487b7160e01b600052603260045260246000fd5b6000816156f7576156f76154f4565b506000190190565b634e487b7160e01b600052603160045260246000fd5b80825b60018086116157275750612373565b816001600160ff1b0304821115615740576157406154f4565b8086161561574d57918102915b9490941c938002615718565b600082801561576f576001811461577957615782565b6001915050610865565b82915050610865565b508161579057506000610865565b506001600082138082146157a95780156157c7576157e0565b826001600160ff1b03048311156157c2576157c26154f4565b6157e0565b826001600160ff1b03058312156157e0576157e06154f4565b50808316156157ec5750805b6157fc8360011c83840283615715565b806001600160ff1b0304821160008313161561581a5761581a6154f4565b80600160ff1b058212600083121615615835576158356154f4565b029392505050565b6000610fd460ff841683615759565b808201828112600083128015821682158216171561190e5761190e6154f456fea2646970667358221220c351c618f449403ac868ae715138a8277763527b7655d7516c2ed05f3c93f92564736f6c63430008110033",
  "linkReferences": {},
  "deployedLinkReferences": {}
}