{
  "_format": "hh-sol-artifact-1",
  "contractName": "TalentToken",
  "sourceName": "contracts/TalentToken.sol",
  "abi": [
    {
      "anonymous": false,
      "inputs": [
        {
          "indexed": false,
          "internalType": "address",
          "name": "previousAdmin",
          "type": "address"
        },
        {
          "indexed": false,
          "internalType": "address",
          "name": "newAdmin",
          "type": "address"
        }
      ],
      "name": "AdminChanged",
      "type": "event"
    },
    {
      "anonymous": false,
      "inputs": [
        {
          "indexed": true,
          "internalType": "address",
          "name": "owner",
          "type": "address"
        },
        {
          "indexed": true,
          "internalType": "address",
          "name": "spender",
          "type": "address"
        },
        {
          "indexed": false,
          "internalType": "uint256",
          "name": "value",
          "type": "uint256"
        }
      ],
      "name": "Approval",
      "type": "event"
    },
    {
      "anonymous": false,
      "inputs": [
        {
          "indexed": true,
          "internalType": "address",
          "name": "beacon",
          "type": "address"
        }
      ],
      "name": "BeaconUpgraded",
      "type": "event"
    },
    {
      "anonymous": false,
      "inputs": [
        {
          "indexed": true,
          "internalType": "bytes32",
          "name": "role",
          "type": "bytes32"
        },
        {
          "indexed": true,
          "internalType": "bytes32",
          "name": "previousAdminRole",
          "type": "bytes32"
        },
        {
          "indexed": true,
          "internalType": "bytes32",
          "name": "newAdminRole",
          "type": "bytes32"
        }
      ],
      "name": "RoleAdminChanged",
      "type": "event"
    },
    {
      "anonymous": false,
      "inputs": [
        {
          "indexed": true,
          "internalType": "bytes32",
          "name": "role",
          "type": "bytes32"
        },
        {
          "indexed": true,
          "internalType": "address",
          "name": "account",
          "type": "address"
        },
        {
          "indexed": true,
          "internalType": "address",
          "name": "sender",
          "type": "address"
        }
      ],
      "name": "RoleGranted",
      "type": "event"
    },
    {
      "anonymous": false,
      "inputs": [
        {
          "indexed": true,
          "internalType": "bytes32",
          "name": "role",
          "type": "bytes32"
        },
        {
          "indexed": true,
          "internalType": "address",
          "name": "account",
          "type": "address"
        },
        {
          "indexed": true,
          "internalType": "address",
          "name": "sender",
          "type": "address"
        }
      ],
      "name": "RoleRevoked",
      "type": "event"
    },
    {
      "anonymous": false,
      "inputs": [
        {
          "indexed": true,
          "internalType": "address",
          "name": "from",
          "type": "address"
        },
        {
          "indexed": true,
          "internalType": "address",
          "name": "to",
          "type": "address"
        },
        {
          "indexed": false,
          "internalType": "uint256",
          "name": "value",
          "type": "uint256"
        }
      ],
      "name": "Transfer",
      "type": "event"
    },
    {
      "anonymous": false,
      "inputs": [
        {
          "indexed": true,
          "internalType": "address",
          "name": "implementation",
          "type": "address"
        }
      ],
      "name": "Upgraded",
      "type": "event"
    },
    {
      "inputs": [],
      "name": "DEFAULT_ADMIN_ROLE",
      "outputs": [
        {
          "internalType": "bytes32",
          "name": "",
          "type": "bytes32"
        }
      ],
      "stateMutability": "view",
      "type": "function"
    },
    {
      "inputs": [],
      "name": "MAX_SUPPLY",
      "outputs": [
        {
          "internalType": "uint256",
          "name": "",
          "type": "uint256"
        }
      ],
      "stateMutability": "view",
      "type": "function"
    },
    {
      "inputs": [],
      "name": "ROLE_MINTER",
      "outputs": [
        {
          "internalType": "bytes32",
          "name": "",
          "type": "bytes32"
        }
      ],
      "stateMutability": "view",
      "type": "function"
    },
    {
      "inputs": [],
      "name": "ROLE_TALENT",
      "outputs": [
        {
          "internalType": "bytes32",
          "name": "",
          "type": "bytes32"
        }
      ],
      "stateMutability": "view",
      "type": "function"
    },
    {
      "inputs": [
        {
          "internalType": "address",
          "name": "owner",
          "type": "address"
        },
        {
          "internalType": "address",
          "name": "spender",
          "type": "address"
        }
      ],
      "name": "allowance",
      "outputs": [
        {
          "internalType": "uint256",
          "name": "",
          "type": "uint256"
        }
      ],
      "stateMutability": "view",
      "type": "function"
    },
    {
      "inputs": [
        {
          "internalType": "address",
          "name": "spender",
          "type": "address"
        },
        {
          "internalType": "uint256",
          "name": "amount",
          "type": "uint256"
        }
      ],
      "name": "approve",
      "outputs": [
        {
          "internalType": "bool",
          "name": "",
          "type": "bool"
        }
      ],
      "stateMutability": "nonpayable",
      "type": "function"
    },
    {
      "inputs": [
        {
          "internalType": "address",
          "name": "spender",
          "type": "address"
        },
        {
          "internalType": "uint256",
          "name": "amount",
          "type": "uint256"
        }
      ],
      "name": "approveAndCall",
      "outputs": [
        {
          "internalType": "bool",
          "name": "",
          "type": "bool"
        }
      ],
      "stateMutability": "nonpayable",
      "type": "function"
    },
    {
      "inputs": [
        {
          "internalType": "address",
          "name": "spender",
          "type": "address"
        },
        {
          "internalType": "uint256",
          "name": "amount",
          "type": "uint256"
        },
        {
          "internalType": "bytes",
          "name": "data",
          "type": "bytes"
        }
      ],
      "name": "approveAndCall",
      "outputs": [
        {
          "internalType": "bool",
          "name": "",
          "type": "bool"
        }
      ],
      "stateMutability": "nonpayable",
      "type": "function"
    },
    {
      "inputs": [
        {
          "internalType": "address",
          "name": "account",
          "type": "address"
        }
      ],
      "name": "balanceOf",
      "outputs": [
        {
          "internalType": "uint256",
          "name": "",
          "type": "uint256"
        }
      ],
      "stateMutability": "view",
      "type": "function"
    },
    {
      "inputs": [
        {
          "internalType": "address",
          "name": "_from",
          "type": "address"
        },
        {
          "internalType": "uint256",
          "name": "_amount",
          "type": "uint256"
        }
      ],
      "name": "burn",
      "outputs": [],
      "stateMutability": "nonpayable",
      "type": "function"
    },
    {
      "inputs": [],
      "name": "decimals",
      "outputs": [
        {
          "internalType": "uint8",
          "name": "",
          "type": "uint8"
        }
      ],
      "stateMutability": "view",
      "type": "function"
    },
    {
      "inputs": [
        {
          "internalType": "address",
          "name": "spender",
          "type": "address"
        },
        {
          "internalType": "uint256",
          "name": "subtractedValue",
          "type": "uint256"
        }
      ],
      "name": "decreaseAllowance",
      "outputs": [
        {
          "internalType": "bool",
          "name": "",
          "type": "bool"
        }
      ],
      "stateMutability": "nonpayable",
      "type": "function"
    },
    {
      "inputs": [
        {
          "internalType": "bytes32",
          "name": "role",
          "type": "bytes32"
        }
      ],
      "name": "getRoleAdmin",
      "outputs": [
        {
          "internalType": "bytes32",
          "name": "",
          "type": "bytes32"
        }
      ],
      "stateMutability": "view",
      "type": "function"
    },
    {
      "inputs": [
        {
          "internalType": "bytes32",
          "name": "role",
          "type": "bytes32"
        },
        {
          "internalType": "address",
          "name": "account",
          "type": "address"
        }
      ],
      "name": "grantRole",
      "outputs": [],
      "stateMutability": "nonpayable",
      "type": "function"
    },
    {
      "inputs": [
        {
          "internalType": "bytes32",
          "name": "role",
          "type": "bytes32"
        },
        {
          "internalType": "address",
          "name": "account",
          "type": "address"
        }
      ],
      "name": "hasRole",
      "outputs": [
        {
          "internalType": "bool",
          "name": "",
          "type": "bool"
        }
      ],
      "stateMutability": "view",
      "type": "function"
    },
    {
      "inputs": [
        {
          "internalType": "address",
          "name": "spender",
          "type": "address"
        },
        {
          "internalType": "uint256",
          "name": "addedValue",
          "type": "uint256"
        }
      ],
      "name": "increaseAllowance",
      "outputs": [
        {
          "internalType": "bool",
          "name": "",
          "type": "bool"
        }
      ],
      "stateMutability": "nonpayable",
      "type": "function"
    },
    {
      "inputs": [
        {
          "internalType": "string",
          "name": "_name",
          "type": "string"
        },
        {
          "internalType": "string",
          "name": "_symbol",
          "type": "string"
        },
        {
          "internalType": "uint256",
          "name": "_initialSupply",
          "type": "uint256"
        },
        {
          "internalType": "address",
          "name": "_talent",
          "type": "address"
        },
        {
          "internalType": "address",
          "name": "_minter",
          "type": "address"
        },
        {
          "internalType": "address",
          "name": "_admin",
          "type": "address"
        }
      ],
      "name": "initialize",
      "outputs": [],
      "stateMutability": "nonpayable",
      "type": "function"
    },
    {
      "inputs": [
        {
          "internalType": "address",
          "name": "_to",
          "type": "address"
        },
        {
          "internalType": "uint256",
          "name": "_amount",
          "type": "uint256"
        }
      ],
      "name": "mint",
      "outputs": [],
      "stateMutability": "nonpayable",
      "type": "function"
    },
    {
      "inputs": [],
      "name": "mintingAvailability",
      "outputs": [
        {
          "internalType": "uint256",
          "name": "",
          "type": "uint256"
        }
      ],
      "stateMutability": "view",
      "type": "function"
    },
    {
      "inputs": [],
      "name": "mintingFinishedAt",
      "outputs": [
        {
          "internalType": "uint256",
          "name": "",
          "type": "uint256"
        }
      ],
      "stateMutability": "view",
      "type": "function"
    },
    {
      "inputs": [],
      "name": "name",
      "outputs": [
        {
          "internalType": "string",
          "name": "",
          "type": "string"
        }
      ],
      "stateMutability": "view",
      "type": "function"
    },
    {
      "inputs": [
        {
          "internalType": "bytes32",
          "name": "role",
          "type": "bytes32"
        },
        {
          "internalType": "address",
          "name": "account",
          "type": "address"
        }
      ],
      "name": "renounceRole",
      "outputs": [],
      "stateMutability": "nonpayable",
      "type": "function"
    },
    {
      "inputs": [
        {
          "internalType": "bytes32",
          "name": "role",
          "type": "bytes32"
        },
        {
          "internalType": "address",
          "name": "account",
          "type": "address"
        }
      ],
      "name": "revokeRole",
      "outputs": [],
      "stateMutability": "nonpayable",
      "type": "function"
    },
    {
      "inputs": [
        {
          "internalType": "bytes4",
          "name": "interfaceId",
          "type": "bytes4"
        }
      ],
      "name": "supportsInterface",
      "outputs": [
        {
          "internalType": "bool",
          "name": "",
          "type": "bool"
        }
      ],
      "stateMutability": "view",
      "type": "function"
    },
    {
      "inputs": [],
      "name": "symbol",
      "outputs": [
        {
          "internalType": "string",
          "name": "",
          "type": "string"
        }
      ],
      "stateMutability": "view",
      "type": "function"
    },
    {
      "inputs": [],
      "name": "talent",
      "outputs": [
        {
          "internalType": "address",
          "name": "",
          "type": "address"
        }
      ],
      "stateMutability": "view",
      "type": "function"
    },
    {
      "inputs": [],
      "name": "totalSupply",
      "outputs": [
        {
          "internalType": "uint256",
          "name": "",
          "type": "uint256"
        }
      ],
      "stateMutability": "view",
      "type": "function"
    },
    {
      "inputs": [
        {
          "internalType": "address",
          "name": "recipient",
          "type": "address"
        },
        {
          "internalType": "uint256",
          "name": "amount",
          "type": "uint256"
        }
      ],
      "name": "transfer",
      "outputs": [
        {
          "internalType": "bool",
          "name": "",
          "type": "bool"
        }
      ],
      "stateMutability": "nonpayable",
      "type": "function"
    },
    {
      "inputs": [
        {
          "internalType": "address",
          "name": "recipient",
          "type": "address"
        },
        {
          "internalType": "uint256",
          "name": "amount",
          "type": "uint256"
        }
      ],
      "name": "transferAndCall",
      "outputs": [
        {
          "internalType": "bool",
          "name": "",
          "type": "bool"
        }
      ],
      "stateMutability": "nonpayable",
      "type": "function"
    },
    {
      "inputs": [
        {
          "internalType": "address",
          "name": "recipient",
          "type": "address"
        },
        {
          "internalType": "uint256",
          "name": "amount",
          "type": "uint256"
        },
        {
          "internalType": "bytes",
          "name": "data",
          "type": "bytes"
        }
      ],
      "name": "transferAndCall",
      "outputs": [
        {
          "internalType": "bool",
          "name": "",
          "type": "bool"
        }
      ],
      "stateMutability": "nonpayable",
      "type": "function"
    },
    {
      "inputs": [
        {
          "internalType": "address",
          "name": "sender",
          "type": "address"
        },
        {
          "internalType": "address",
          "name": "recipient",
          "type": "address"
        },
        {
          "internalType": "uint256",
          "name": "amount",
          "type": "uint256"
        }
      ],
      "name": "transferFrom",
      "outputs": [
        {
          "internalType": "bool",
          "name": "",
          "type": "bool"
        }
      ],
      "stateMutability": "nonpayable",
      "type": "function"
    },
    {
      "inputs": [
        {
          "internalType": "address",
          "name": "sender",
          "type": "address"
        },
        {
          "internalType": "address",
          "name": "recipient",
          "type": "address"
        },
        {
          "internalType": "uint256",
          "name": "amount",
          "type": "uint256"
        },
        {
          "internalType": "bytes",
          "name": "data",
          "type": "bytes"
        }
      ],
      "name": "transferFromAndCall",
      "outputs": [
        {
          "internalType": "bool",
          "name": "",
          "type": "bool"
        }
      ],
      "stateMutability": "nonpayable",
      "type": "function"
    },
    {
      "inputs": [
        {
          "internalType": "address",
          "name": "sender",
          "type": "address"
        },
        {
          "internalType": "address",
          "name": "recipient",
          "type": "address"
        },
        {
          "internalType": "uint256",
          "name": "amount",
          "type": "uint256"
        }
      ],
      "name": "transferFromAndCall",
      "outputs": [
        {
          "internalType": "bool",
          "name": "",
          "type": "bool"
        }
      ],
      "stateMutability": "nonpayable",
      "type": "function"
    },
    {
      "inputs": [
        {
          "internalType": "address",
          "name": "_newTalent",
          "type": "address"
        }
      ],
      "name": "transferTalentWallet",
      "outputs": [],
      "stateMutability": "nonpayable",
      "type": "function"
    },
    {
      "inputs": [
        {
          "internalType": "address",
          "name": "newImplementation",
          "type": "address"
        }
      ],
      "name": "upgradeTo",
      "outputs": [],
      "stateMutability": "nonpayable",
      "type": "function"
    },
    {
      "inputs": [
        {
          "internalType": "address",
          "name": "newImplementation",
          "type": "address"
        },
        {
          "internalType": "bytes",
          "name": "data",
          "type": "bytes"
        }
      ],
      "name": "upgradeToAndCall",
      "outputs": [],
      "stateMutability": "payable",
      "type": "function"
    }
  ],
  "bytecode": "0x608060405234801561001057600080fd5b506128a3806100206000396000f3fe60806040526004361061024f5760003560e01c80636ef7626c11610138578063a9059cbb116100b0578063cae9ca511161007f578063d547741f11610064578063d547741f146106db578063d8fbe994146106fb578063dd62ed3e1461071b57600080fd5b8063cae9ca511461069b578063ccf00634146106bb57600080fd5b8063a9059cbb1461060d578063aafa93711461062d578063c1d34b8914610643578063c4daa5931461066357600080fd5b806392afc33a116101075780639dc29fac116100ec5780639dc29fac146105b8578063a217fddf146105d8578063a457c2d7146105ed57600080fd5b806392afc33a1461056f57806395d89b41146105a357600080fd5b80636ef7626c1461049f57806370a08231146104bf5780637a12083a146104f557806391d148541461052957600080fd5b80633177029f116101cb578063395093511161019a5780634000aea01161017f5780634000aea01461044c57806340c10f191461046c5780634f1ef2861461048c57600080fd5b806339509351146104165780633e0075a11461043657600080fd5b80633177029f1461039857806332cb6b0c146103b857806336568abe146103d65780633659cfe6146103f657600080fd5b806318160ddd11610222578063248a9ca311610207578063248a9ca31461032a5780632f2ff15d1461035a578063313ce5671461037c57600080fd5b806318160ddd146102eb57806323b872dd1461030a57600080fd5b806301ffc9a71461025457806306fdde0314610289578063095ea7b3146102ab5780631296ee62146102cb575b600080fd5b34801561026057600080fd5b5061027461026f36600461250b565b610761565b60405190151581526020015b60405180910390f35b34801561029557600080fd5b5061029e6107c0565b604051610280919061270f565b3480156102b757600080fd5b506102746102c636600461244e565b610852565b3480156102d757600080fd5b506102746102e636600461244e565b610868565b3480156102f757600080fd5b506099545b604051908152602001610280565b34801561031657600080fd5b5061027461032536600461235c565b61088b565b34801561033657600080fd5b506102fc6103453660046124cf565b60009081526065602052604090206001015490565b34801561036657600080fd5b5061037a6103753660046124e8565b61094f565b005b34801561038857600080fd5b5060405160128152602001610280565b3480156103a457600080fd5b506102746103b336600461244e565b61097a565b3480156103c457600080fd5b506102fc69d3c21bcecceda100000081565b3480156103e257600080fd5b5061037a6103f13660046124e8565b610996565b34801561040257600080fd5b5061037a61041136600461230e565b610a22565b34801561042257600080fd5b5061027461043136600461244e565b610a49565b34801561044257600080fd5b506102fc60ca5481565b34801561045857600080fd5b50610274610467366004612478565b610a85565b34801561047857600080fd5b5061037a61048736600461244e565b610b03565b61037a61049a366004612400565b610bd2565b3480156104ab57600080fd5b5061037a6104ba366004612545565b610be7565b3480156104cb57600080fd5b506102fc6104da36600461230e565b6001600160a01b031660009081526097602052604090205490565b34801561050157600080fd5b506102fc7f8fad061cdace53638a92e8940b81545ab8169bcf17f044b6ab490075da827c9481565b34801561053557600080fd5b506102746105443660046124e8565b60009182526065602090815260408084206001600160a01b0393909316845291905290205460ff1690565b34801561057b57600080fd5b506102fc7ff0887ba65ee2024ea881d91b74c2450ef19e1557f03bed3ea9f16b037cbe2dc981565b3480156105af57600080fd5b5061029e610d94565b3480156105c457600080fd5b5061037a6105d336600461244e565b610da3565b3480156105e457600080fd5b506102fc600081565b3480156105f957600080fd5b5061027461060836600461244e565b610df8565b34801561061957600080fd5b5061027461062836600461244e565b610e9f565b34801561063957600080fd5b506102fc60c95481565b34801561064f57600080fd5b5061027461065e366004612398565b610eac565b34801561066f57600080fd5b5060cb54610683906001600160a01b031681565b6040516001600160a01b039091168152602001610280565b3480156106a757600080fd5b506102746106b6366004612478565b610f29565b3480156106c757600080fd5b5061037a6106d636600461230e565b610fb3565b3480156106e757600080fd5b5061037a6106f63660046124e8565b61102b565b34801561070757600080fd5b5061027461071636600461235c565b611051565b34801561072757600080fd5b506102fc610736366004612329565b6001600160a01b03918216600090815260986020908152604080832093909416825291909152205490565b60006001600160e01b031982167f36372b070000000000000000000000000000000000000000000000000000000014806107ab57506001600160e01b0319821663b0202a1160e01b145b806107ba57506107ba8261106e565b92915050565b6060609a80546107cf906127b3565b80601f01602080910402602001604051908101604052809291908181526020018280546107fb906127b3565b80156108485780601f1061081d57610100808354040283529160200191610848565b820191906000526020600020905b81548152906001019060200180831161082b57829003601f168201915b5050505050905090565b600061085f338484611093565b50600192915050565b6000610884838360405180602001604052806000815250610a85565b9392505050565b60006108988484846111eb565b6001600160a01b0384166000908152609860209081526040808320338452909152902054828110156109375760405162461bcd60e51b815260206004820152602860248201527f45524332303a207472616e7366657220616d6f756e742065786365656473206160448201527f6c6c6f77616e636500000000000000000000000000000000000000000000000060648201526084015b60405180910390fd5b6109448533858403611093565b506001949350505050565b60008281526065602052604090206001015461096b8133611404565b6109758383611484565b505050565b6000610884838360405180602001604052806000815250610f29565b6001600160a01b0381163314610a145760405162461bcd60e51b815260206004820152602f60248201527f416363657373436f6e74726f6c3a2063616e206f6e6c792072656e6f756e636560448201527f20726f6c657320666f722073656c660000000000000000000000000000000000606482015260840161092e565b610a1e8282611526565b5050565b610a2b816115a9565b610a46816040518060200160405280600081525060006115b5565b50565b3360008181526098602090815260408083206001600160a01b0387168452909152812054909161085f918590610a80908690612722565b611093565b6000610a918484610e9f565b50610a9e33858585611779565b610af95760405162461bcd60e51b815260206004820152602660248201527f455243313336333a205f636865636b416e6443616c6c5472616e73666572207260448201526565766572747360d01b606482015260840161092e565b5060019392505050565b7ff0887ba65ee2024ea881d91b74c2450ef19e1557f03bed3ea9f16b037cbe2dc9610b2e8133611404565b8160c9541015610ba55760405162461bcd60e51b8152602060048201526024808201527f5f616d6f756e742065786365656473206d696e74696e6720617661696c61626960448201527f6c69747900000000000000000000000000000000000000000000000000000000606482015260840161092e565b8160c96000828254610bb79190612759565b909155505060c954610bc8574260ca555b6109758383611837565b610bdb826115a9565b610a1e828260016115b5565b600054610100900460ff1680610c00575060005460ff16155b610c635760405162461bcd60e51b815260206004820152602e60248201527f496e697469616c697a61626c653a20636f6e747261637420697320616c72656160448201526d191e481a5b9a5d1a585b1a5e995960921b606482015260840161092e565b600054610100900460ff16158015610c85576000805461ffff19166101011790555b610c8d611916565b610c95611916565b610c9f87876119c8565b610ca7611916565b60cb805473ffffffffffffffffffffffffffffffffffffffff19166001600160a01b038616179055610cda600083611aa4565b610d047f8fad061cdace53638a92e8940b81545ab8169bcf17f044b6ab490075da827c9485611aa4565b610d2e7ff0887ba65ee2024ea881d91b74c2450ef19e1557f03bed3ea9f16b037cbe2dc984611aa4565b610d587f8fad061cdace53638a92e8940b81545ab8169bcf17f044b6ab490075da827c9480611aae565b610d628486611837565b610d768569d3c21bcecceda1000000612759565b60c9558015610d8b576000805461ff00191690555b50505050505050565b6060609b80546107cf906127b3565b7ff0887ba65ee2024ea881d91b74c2450ef19e1557f03bed3ea9f16b037cbe2dc9610dce8133611404565b60c95415610dee578160c96000828254610de89190612722565b90915550505b6109758383611af9565b3360009081526098602090815260408083206001600160a01b038616845290915281205482811015610e925760405162461bcd60e51b815260206004820152602560248201527f45524332303a2064656372656173656420616c6c6f77616e63652062656c6f7760448201527f207a65726f000000000000000000000000000000000000000000000000000000606482015260840161092e565b610af93385858403611093565b600061085f3384846111eb565b6000610eb985858561088b565b50610ec685858585611779565b6109445760405162461bcd60e51b815260206004820152602660248201527f455243313336333a205f636865636b416e6443616c6c5472616e73666572207260448201526565766572747360d01b606482015260840161092e565b949350505050565b6000610f358484610852565b50610f41848484611c7e565b610af95760405162461bcd60e51b815260206004820152602560248201527f455243313336333a205f636865636b416e6443616c6c417070726f766520726560448201527f7665727473000000000000000000000000000000000000000000000000000000606482015260840161092e565b60cb805473ffffffffffffffffffffffffffffffffffffffff19166001600160a01b0383161790556110057f8fad061cdace53638a92e8940b81545ab8169bcf17f044b6ab490075da827c948261094f565b610a467f8fad061cdace53638a92e8940b81545ab8169bcf17f044b6ab490075da827c94335b6000828152606560205260409020600101546110478133611404565b6109758383611526565b6000610f2184848460405180602001604052806000815250610eac565b60006001600160e01b0319821663b0202a1160e01b14806107ba57506107ba82611d39565b6001600160a01b03831661110e5760405162461bcd60e51b8152602060048201526024808201527f45524332303a20617070726f76652066726f6d20746865207a65726f2061646460448201527f7265737300000000000000000000000000000000000000000000000000000000606482015260840161092e565b6001600160a01b03821661118a5760405162461bcd60e51b815260206004820152602260248201527f45524332303a20617070726f766520746f20746865207a65726f20616464726560448201527f7373000000000000000000000000000000000000000000000000000000000000606482015260840161092e565b6001600160a01b0383811660008181526098602090815260408083209487168084529482529182902085905590518481527f8c5be1e5ebec7d5bd14f71427d1e84f3dd0314c0f7b2291e5b200ac8c7c3b925910160405180910390a3505050565b6001600160a01b0383166112675760405162461bcd60e51b815260206004820152602560248201527f45524332303a207472616e736665722066726f6d20746865207a65726f20616460448201527f6472657373000000000000000000000000000000000000000000000000000000606482015260840161092e565b6001600160a01b0382166112e35760405162461bcd60e51b815260206004820152602360248201527f45524332303a207472616e7366657220746f20746865207a65726f206164647260448201527f6573730000000000000000000000000000000000000000000000000000000000606482015260840161092e565b6001600160a01b038316600090815260976020526040902054818110156113725760405162461bcd60e51b815260206004820152602660248201527f45524332303a207472616e7366657220616d6f756e742065786365656473206260448201527f616c616e63650000000000000000000000000000000000000000000000000000606482015260840161092e565b6001600160a01b038085166000908152609760205260408082208585039055918516815290812080548492906113a9908490612722565b92505081905550826001600160a01b0316846001600160a01b03167fddf252ad1be2c89b69c2b068fc378daa952ba7f163c4a11628f55a4df523b3ef846040516113f591815260200190565b60405180910390a35b50505050565b60008281526065602090815260408083206001600160a01b038516845290915290205460ff16610a1e57611442816001600160a01b03166014611da0565b61144d836020611da0565b60405160200161145e92919061262b565b60408051601f198184030181529082905262461bcd60e51b825261092e9160040161270f565b60008281526065602090815260408083206001600160a01b038516845290915290205460ff16610a1e5760008281526065602090815260408083206001600160a01b03851684529091529020805460ff191660011790556114e23390565b6001600160a01b0316816001600160a01b0316837f2f8788117e7eff1d82e926ec794901d17c78024a50270940304540a733656f0d60405160405180910390a45050565b60008281526065602090815260408083206001600160a01b038516845290915290205460ff1615610a1e5760008281526065602090815260408083206001600160a01b0385168085529252808320805460ff1916905551339285917ff6391f5c32d9c69d2a47ea670b442974b53935d1edc7fd64eb21e047a839171b9190a45050565b6000610a1e8133611404565b60006115e87f360894a13ba1a3210667c828492db98dca3e2076cc3735a920a3ca505d382bbc546001600160a01b031690565b90506115f384611f81565b6000835111806116005750815b156116115761160f8484612043565b505b7f4910fdfa16fed3260ed0e7147f7cc6da11a60208b5b9406d12a635614ffd9143805460ff1661177257805460ff191660011781556040516001600160a01b03831660248201526116be90869060440160408051601f198184030181529190526020810180517bffffffffffffffffffffffffffffffffffffffffffffffffffffffff167f3659cfe600000000000000000000000000000000000000000000000000000000179052612043565b50805460ff191681557f360894a13ba1a3210667c828492db98dca3e2076cc3735a920a3ca505d382bbc546001600160a01b038381169116146117695760405162461bcd60e51b815260206004820152602f60248201527f45524331393637557067726164653a207570677261646520627265616b73206660448201527f7572746865722075706772616465730000000000000000000000000000000000606482015260840161092e565b61177285612068565b5050505050565b60006001600160a01b0384163b61179257506000610f21565b604051632229f29760e21b81526000906001600160a01b038616906388a7ca5c906117c79033908a90899089906004016126ac565b602060405180830381600087803b1580156117e157600080fd5b505af11580156117f5573d6000803e3d6000fd5b505050506040513d601f19601f820116820180604052508101906118199190612528565b6001600160e01b031916632229f29760e21b14915050949350505050565b6001600160a01b03821661188d5760405162461bcd60e51b815260206004820152601f60248201527f45524332303a206d696e7420746f20746865207a65726f206164647265737300604482015260640161092e565b806099600082825461189f9190612722565b90915550506001600160a01b038216600090815260976020526040812080548392906118cc908490612722565b90915550506040518181526001600160a01b038316906000907fddf252ad1be2c89b69c2b068fc378daa952ba7f163c4a11628f55a4df523b3ef9060200160405180910390a35050565b600054610100900460ff168061192f575060005460ff16155b6119925760405162461bcd60e51b815260206004820152602e60248201527f496e697469616c697a61626c653a20636f6e747261637420697320616c72656160448201526d191e481a5b9a5d1a585b1a5e995960921b606482015260840161092e565b600054610100900460ff161580156119b4576000805461ffff19166101011790555b8015610a46576000805461ff001916905550565b600054610100900460ff16806119e1575060005460ff16155b611a445760405162461bcd60e51b815260206004820152602e60248201527f496e697469616c697a61626c653a20636f6e747261637420697320616c72656160448201526d191e481a5b9a5d1a585b1a5e995960921b606482015260840161092e565b600054610100900460ff16158015611a66576000805461ffff19166101011790555b8251611a7990609a9060208601906121cc565b508151611a8d90609b9060208501906121cc565b508015610975576000805461ff0019169055505050565b610a1e8282611484565b600082815260656020526040808220600101805490849055905190918391839186917fbd79b86ffe0ab8e8776151514217cd7cacd52c909f66475c3af44e129f0b00ff9190a4505050565b6001600160a01b038216611b755760405162461bcd60e51b815260206004820152602160248201527f45524332303a206275726e2066726f6d20746865207a65726f2061646472657360448201527f7300000000000000000000000000000000000000000000000000000000000000606482015260840161092e565b6001600160a01b03821660009081526097602052604090205481811015611c045760405162461bcd60e51b815260206004820152602260248201527f45524332303a206275726e20616d6f756e7420657863656564732062616c616e60448201527f6365000000000000000000000000000000000000000000000000000000000000606482015260840161092e565b6001600160a01b0383166000908152609760205260408120838303905560998054849290611c33908490612759565b90915550506040518281526000906001600160a01b038516907fddf252ad1be2c89b69c2b068fc378daa952ba7f163c4a11628f55a4df523b3ef9060200160405180910390a3505050565b60006001600160a01b0384163b611c9757506000610884565b6040516307b04a2d60e41b81526000906001600160a01b03861690637b04a2d090611cca903390889088906004016126de565b602060405180830381600087803b158015611ce457600080fd5b505af1158015611cf8573d6000803e3d6000fd5b505050506040513d601f19601f82011682018060405250810190611d1c9190612528565b6001600160e01b0319166307b04a2d60e41b149150509392505050565b60006001600160e01b031982167f7965db0b0000000000000000000000000000000000000000000000000000000014806107ba57507f01ffc9a7000000000000000000000000000000000000000000000000000000006001600160e01b03198316146107ba565b60606000611daf83600261273a565b611dba906002612722565b67ffffffffffffffff811115611dd257611dd261281a565b6040519080825280601f01601f191660200182016040528015611dfc576020820181803683370190505b5090507f300000000000000000000000000000000000000000000000000000000000000081600081518110611e3357611e33612804565b60200101906001600160f81b031916908160001a9053507f780000000000000000000000000000000000000000000000000000000000000081600181518110611e7e57611e7e612804565b60200101906001600160f81b031916908160001a9053506000611ea284600261273a565b611ead906001612722565b90505b6001811115611f32577f303132333435363738396162636465660000000000000000000000000000000085600f1660108110611eee57611eee612804565b1a60f81b828281518110611f0457611f04612804565b60200101906001600160f81b031916908160001a90535060049490941c93611f2b8161279c565b9050611eb0565b5083156108845760405162461bcd60e51b815260206004820181905260248201527f537472696e67733a20686578206c656e67746820696e73756666696369656e74604482015260640161092e565b803b611ff55760405162461bcd60e51b815260206004820152602d60248201527f455243313936373a206e657720696d706c656d656e746174696f6e206973206e60448201527f6f74206120636f6e747261637400000000000000000000000000000000000000606482015260840161092e565b7f360894a13ba1a3210667c828492db98dca3e2076cc3735a920a3ca505d382bbc805473ffffffffffffffffffffffffffffffffffffffff19166001600160a01b0392909216919091179055565b60606108848383604051806060016040528060278152602001612847602791396120a8565b61207181611f81565b6040516001600160a01b038216907fbc7cd75a20ee27fd9adebab32041f755214dbc6bffa90cc0225b39da2e5c2d3b90600090a250565b6060833b61211e5760405162461bcd60e51b815260206004820152602660248201527f416464726573733a2064656c65676174652063616c6c20746f206e6f6e2d636f60448201527f6e74726163740000000000000000000000000000000000000000000000000000606482015260840161092e565b600080856001600160a01b031685604051612139919061260f565b600060405180830381855af49150503d8060008114612174576040519150601f19603f3d011682016040523d82523d6000602084013e612179565b606091505b5091509150612189828286612193565b9695505050505050565b606083156121a2575081610884565b8251156121b25782518084602001fd5b8160405162461bcd60e51b815260040161092e919061270f565b8280546121d8906127b3565b90600052602060002090601f0160209004810192826121fa5760008555612240565b82601f1061221357805160ff1916838001178555612240565b82800160010185558215612240579182015b82811115612240578251825591602001919060010190612225565b5061224c929150612250565b5090565b5b8082111561224c5760008155600101612251565b80356001600160a01b038116811461227c57600080fd5b919050565b600082601f83011261229257600080fd5b813567ffffffffffffffff808211156122ad576122ad61281a565b604051601f8301601f19908116603f011681019082821181831017156122d5576122d561281a565b816040528381528660208588010111156122ee57600080fd5b836020870160208301376000602085830101528094505050505092915050565b60006020828403121561232057600080fd5b61088482612265565b6000806040838503121561233c57600080fd5b61234583612265565b915061235360208401612265565b90509250929050565b60008060006060848603121561237157600080fd5b61237a84612265565b925061238860208501612265565b9150604084013590509250925092565b600080600080608085870312156123ae57600080fd5b6123b785612265565b93506123c560208601612265565b925060408501359150606085013567ffffffffffffffff8111156123e857600080fd5b6123f487828801612281565b91505092959194509250565b6000806040838503121561241357600080fd5b61241c83612265565b9150602083013567ffffffffffffffff81111561243857600080fd5b61244485828601612281565b9150509250929050565b6000806040838503121561246157600080fd5b61246a83612265565b946020939093013593505050565b60008060006060848603121561248d57600080fd5b61249684612265565b925060208401359150604084013567ffffffffffffffff8111156124b957600080fd5b6124c586828701612281565b9150509250925092565b6000602082840312156124e157600080fd5b5035919050565b600080604083850312156124fb57600080fd5b8235915061235360208401612265565b60006020828403121561251d57600080fd5b813561088481612830565b60006020828403121561253a57600080fd5b815161088481612830565b60008060008060008060c0878903121561255e57600080fd5b863567ffffffffffffffff8082111561257657600080fd5b6125828a838b01612281565b9750602089013591508082111561259857600080fd5b506125a589828a01612281565b955050604087013593506125bb60608801612265565b92506125c960808801612265565b91506125d760a08801612265565b90509295509295509295565b600081518084526125fb816020860160208601612770565b601f01601f19169290920160200192915050565b60008251612621818460208701612770565b9190910192915050565b7f416363657373436f6e74726f6c3a206163636f756e7420000000000000000000815260008351612663816017850160208801612770565b7f206973206d697373696e6720726f6c652000000000000000000000000000000060179184019182015283516126a0816028840160208801612770565b01602801949350505050565b60006001600160a01b0380871683528086166020840152508360408301526080606083015261218960808301846125e3565b6001600160a01b038416815282602082015260606040820152600061270660608301846125e3565b95945050505050565b60208152600061088460208301846125e3565b60008219821115612735576127356127ee565b500190565b6000816000190483118215151615612754576127546127ee565b500290565b60008282101561276b5761276b6127ee565b500390565b60005b8381101561278b578181015183820152602001612773565b838111156113fe5750506000910152565b6000816127ab576127ab6127ee565b506000190190565b600181811c908216806127c757607f821691505b602082108114156127e857634e487b7160e01b600052602260045260246000fd5b50919050565b634e487b7160e01b600052601160045260246000fd5b634e487b7160e01b600052603260045260246000fd5b634e487b7160e01b600052604160045260246000fd5b6001600160e01b031981168114610a4657600080fdfe416464726573733a206c6f772d6c6576656c2064656c65676174652063616c6c206661696c6564a2646970667358221220f797de56cc89b29df1847a01755aba52b4f16513029b1ee7556a1a13530182f864736f6c63430008070033",
  "linkReferences": {},
  "deployedLinkReferences": {}
}