{
  "_format": "hh-sol-artifact-1",
  "contractName": "TalentFactoryV3",
  "sourceName": "contracts/season3/TalentFactoryV3.sol",
  "abi": [
    {
      "anonymous": false,
      "inputs": [
        {
          "indexed": false,
          "internalType": "uint8",
          "name": "version",
          "type": "uint8"
        }
      ],
      "name": "Initialized",
      "type": "event"
    },
    {
      "anonymous": false,
      "inputs": [
        {
          "indexed": true,
          "internalType": "bytes32",
          "name": "role",
          "type": "bytes32"
        },
        {
          "indexed": true,
          "internalType": "bytes32",
          "name": "previousAdminRole",
          "type": "bytes32"
        },
        {
          "indexed": true,
          "internalType": "bytes32",
          "name": "newAdminRole",
          "type": "bytes32"
        }
      ],
      "name": "RoleAdminChanged",
      "type": "event"
    },
    {
      "anonymous": false,
      "inputs": [
        {
          "indexed": true,
          "internalType": "bytes32",
          "name": "role",
          "type": "bytes32"
        },
        {
          "indexed": true,
          "internalType": "address",
          "name": "account",
          "type": "address"
        },
        {
          "indexed": true,
          "internalType": "address",
          "name": "sender",
          "type": "address"
        }
      ],
      "name": "RoleGranted",
      "type": "event"
    },
    {
      "anonymous": false,
      "inputs": [
        {
          "indexed": true,
          "internalType": "bytes32",
          "name": "role",
          "type": "bytes32"
        },
        {
          "indexed": true,
          "internalType": "address",
          "name": "account",
          "type": "address"
        },
        {
          "indexed": true,
          "internalType": "address",
          "name": "sender",
          "type": "address"
        }
      ],
      "name": "RoleRevoked",
      "type": "event"
    },
    {
      "anonymous": false,
      "inputs": [
        {
          "indexed": true,
          "internalType": "address",
          "name": "talent",
          "type": "address"
        },
        {
          "indexed": true,
          "internalType": "address",
          "name": "token",
          "type": "address"
        }
      ],
      "name": "TalentCreated",
      "type": "event"
    },
    {
      "inputs": [],
      "name": "DEFAULT_ADMIN_ROLE",
      "outputs": [
        {
          "internalType": "bytes32",
          "name": "",
          "type": "bytes32"
        }
      ],
      "stateMutability": "view",
      "type": "function"
    },
    {
      "inputs": [],
      "name": "INITIAL_SUPPLY",
      "outputs": [
        {
          "internalType": "uint256",
          "name": "",
          "type": "uint256"
        }
      ],
      "stateMutability": "view",
      "type": "function"
    },
    {
      "inputs": [],
      "name": "ROLE_MINTER",
      "outputs": [
        {
          "internalType": "bytes32",
          "name": "",
          "type": "bytes32"
        }
      ],
      "stateMutability": "view",
      "type": "function"
    },
    {
      "inputs": [
        {
          "internalType": "address",
          "name": "talentAddress",
          "type": "address"
        },
        {
          "internalType": "address",
          "name": "tokenAddress",
          "type": "address"
        }
      ],
      "name": "addAddressToTokensToTalents",
      "outputs": [
        {
          "internalType": "bool",
          "name": "",
          "type": "bool"
        }
      ],
      "stateMutability": "nonpayable",
      "type": "function"
    },
    {
      "inputs": [
        {
          "internalType": "address",
          "name": "_talent",
          "type": "address"
        },
        {
          "internalType": "string",
          "name": "_name",
          "type": "string"
        },
        {
          "internalType": "string",
          "name": "_symbol",
          "type": "string"
        }
      ],
      "name": "createTalent",
      "outputs": [
        {
          "internalType": "address",
          "name": "",
          "type": "address"
        }
      ],
      "stateMutability": "nonpayable",
      "type": "function"
    },
    {
      "inputs": [
        {
          "internalType": "bytes32",
          "name": "role",
          "type": "bytes32"
        }
      ],
      "name": "getRoleAdmin",
      "outputs": [
        {
          "internalType": "bytes32",
          "name": "",
          "type": "bytes32"
        }
      ],
      "stateMutability": "view",
      "type": "function"
    },
    {
      "inputs": [
        {
          "internalType": "bytes32",
          "name": "role",
          "type": "bytes32"
        },
        {
          "internalType": "uint256",
          "name": "index",
          "type": "uint256"
        }
      ],
      "name": "getRoleMember",
      "outputs": [
        {
          "internalType": "address",
          "name": "",
          "type": "address"
        }
      ],
      "stateMutability": "view",
      "type": "function"
    },
    {
      "inputs": [
        {
          "internalType": "bytes32",
          "name": "role",
          "type": "bytes32"
        }
      ],
      "name": "getRoleMemberCount",
      "outputs": [
        {
          "internalType": "uint256",
          "name": "",
          "type": "uint256"
        }
      ],
      "stateMutability": "view",
      "type": "function"
    },
    {
      "inputs": [
        {
          "internalType": "bytes32",
          "name": "role",
          "type": "bytes32"
        },
        {
          "internalType": "address",
          "name": "account",
          "type": "address"
        }
      ],
      "name": "grantRole",
      "outputs": [],
      "stateMutability": "nonpayable",
      "type": "function"
    },
    {
      "inputs": [
        {
          "internalType": "bytes32",
          "name": "role",
          "type": "bytes32"
        },
        {
          "internalType": "address",
          "name": "account",
          "type": "address"
        }
      ],
      "name": "hasRole",
      "outputs": [
        {
          "internalType": "bool",
          "name": "",
          "type": "bool"
        }
      ],
      "stateMutability": "view",
      "type": "function"
    },
    {
      "inputs": [
        {
          "internalType": "address",
          "name": "addr",
          "type": "address"
        }
      ],
      "name": "hasTalentToken",
      "outputs": [
        {
          "internalType": "bool",
          "name": "",
          "type": "bool"
        }
      ],
      "stateMutability": "view",
      "type": "function"
    },
    {
      "inputs": [],
      "name": "implementationBeacon",
      "outputs": [
        {
          "internalType": "address",
          "name": "",
          "type": "address"
        }
      ],
      "stateMutability": "view",
      "type": "function"
    },
    {
      "inputs": [],
      "name": "initialize",
      "outputs": [],
      "stateMutability": "nonpayable",
      "type": "function"
    },
    {
      "inputs": [
        {
          "internalType": "string",
          "name": "_symbol",
          "type": "string"
        }
      ],
      "name": "isSymbol",
      "outputs": [
        {
          "internalType": "bool",
          "name": "",
          "type": "bool"
        }
      ],
      "stateMutability": "view",
      "type": "function"
    },
    {
      "inputs": [
        {
          "internalType": "address",
          "name": "addr",
          "type": "address"
        }
      ],
      "name": "isTalentToken",
      "outputs": [
        {
          "internalType": "bool",
          "name": "",
          "type": "bool"
        }
      ],
      "stateMutability": "view",
      "type": "function"
    },
    {
      "inputs": [],
      "name": "isV2",
      "outputs": [
        {
          "internalType": "bool",
          "name": "",
          "type": "bool"
        }
      ],
      "stateMutability": "pure",
      "type": "function"
    },
    {
      "inputs": [],
      "name": "isV3",
      "outputs": [
        {
          "internalType": "bool",
          "name": "",
          "type": "bool"
        }
      ],
      "stateMutability": "pure",
      "type": "function"
    },
    {
      "inputs": [],
      "name": "minter",
      "outputs": [
        {
          "internalType": "address",
          "name": "",
          "type": "address"
        }
      ],
      "stateMutability": "view",
      "type": "function"
    },
    {
      "inputs": [
        {
          "internalType": "bytes32",
          "name": "role",
          "type": "bytes32"
        },
        {
          "internalType": "address",
          "name": "account",
          "type": "address"
        }
      ],
      "name": "renounceRole",
      "outputs": [],
      "stateMutability": "nonpayable",
      "type": "function"
    },
    {
      "inputs": [
        {
          "internalType": "bytes32",
          "name": "role",
          "type": "bytes32"
        },
        {
          "internalType": "address",
          "name": "account",
          "type": "address"
        }
      ],
      "name": "revokeRole",
      "outputs": [],
      "stateMutability": "nonpayable",
      "type": "function"
    },
    {
      "inputs": [
        {
          "internalType": "address",
          "name": "_minter",
          "type": "address"
        }
      ],
      "name": "setMinter",
      "outputs": [],
      "stateMutability": "nonpayable",
      "type": "function"
    },
    {
      "inputs": [
        {
          "internalType": "bytes4",
          "name": "interfaceId",
          "type": "bytes4"
        }
      ],
      "name": "supportsInterface",
      "outputs": [
        {
          "internalType": "bool",
          "name": "",
          "type": "bool"
        }
      ],
      "stateMutability": "view",
      "type": "function"
    },
    {
      "inputs": [
        {
          "internalType": "string",
          "name": "",
          "type": "string"
        }
      ],
      "name": "symbolsToTokens",
      "outputs": [
        {
          "internalType": "address",
          "name": "",
          "type": "address"
        }
      ],
      "stateMutability": "view",
      "type": "function"
    },
    {
      "inputs": [
        {
          "internalType": "address",
          "name": "",
          "type": "address"
        }
      ],
      "name": "talentsToTokens",
      "outputs": [
        {
          "internalType": "address",
          "name": "",
          "type": "address"
        }
      ],
      "stateMutability": "view",
      "type": "function"
    },
    {
      "inputs": [
        {
          "internalType": "address",
          "name": "",
          "type": "address"
        }
      ],
      "name": "tokensToTalents",
      "outputs": [
        {
          "internalType": "address",
          "name": "",
          "type": "address"
        }
      ],
      "stateMutability": "view",
      "type": "function"
    },
    {
      "inputs": [
        {
          "internalType": "address",
          "name": "_newMinter",
          "type": "address"
        }
      ],
      "name": "transferMinter",
      "outputs": [],
      "stateMutability": "nonpayable",
      "type": "function"
    }
  ],
  "bytecode": "0x608060405234801561001057600080fd5b506153fc806100206000396000f3fe60806040523480156200001157600080fd5b5060043610620001d15760003560e01c80635810e96d1162000101578063a217fddf11620000a3578063ef31f424116200007a578063ef31f4241462000456578063f7bad69f1462000482578063fca3b5aa14620004b3578063fe99ad5a14620004ca57600080fd5b8063a217fddf146200041f578063ca15c8731462000428578063d547741f146200043f57600080fd5b80639010d07c11620000d85780639010d07c14620003a457806391d1485414620003bb57806392afc33a14620003f757600080fd5b80635810e96d14620003575780637ffed926146200036e5780638129fc1c146200039a57600080fd5b8063248a9ca311620001775780632f2ff15d116200014e5780632f2ff15d14620003025780632ff2e9dc146200031b57806336568abe146200032c57806357bc3cd9146200034357600080fd5b8063248a9ca314620002965780632d94a2d014620002775780632dbc679c14620002cb57600080fd5b80631b0f287411620001ac5780631b0f28741462000260578063201e65541462000277578063242fa5db146200027f57600080fd5b806301ffc9a714620001d6578063075461721462000202578063099aba56146200022f575b600080fd5b620001ed620001e7366004620015f0565b620004e1565b60405190151581526020015b60405180910390f35b60cc5462000216906001600160a01b031681565b6040516001600160a01b039091168152602001620001f9565b620001ed62000240366004620014ba565b6001600160a01b03908116600090815260ca602052604090205416151590565b620001ed620002713660046200161c565b620004f4565b6001620001ed565b620002166200029036600462001510565b62000533565b620002bc620002a73660046200158d565b60009081526065602052604090206001015490565b604051908152602001620001f9565b62000216620002dc3660046200161c565b805160208183018101805160cb825292820191909301209152546001600160a01b031681565b6200031962000313366004620015a7565b620007b1565b005b620002bc686c6b935b8bbd40000081565b620003196200033d366004620015a7565b620007df565b60cd5462000216906001600160a01b031681565b620001ed62000368366004620014d8565b6200086f565b620002166200037f366004620014ba565b60c9602052600090815260409020546001600160a01b031681565b62000319620008bd565b62000216620003b5366004620015cd565b62000b16565b620001ed620003cc366004620015a7565b60009182526065602090815260408084206001600160a01b0393909316845291905290205460ff1690565b620002bc7ff0887ba65ee2024ea881d91b74c2450ef19e1557f03bed3ea9f16b037cbe2dc981565b620002bc600081565b620002bc620004393660046200158d565b62000b37565b6200031962000450366004620015a7565b62000b50565b6200021662000467366004620014ba565b60ca602052600090815260409020546001600160a01b031681565b620001ed62000493366004620014ba565b6001600160a01b03908116600090815260c9602052604090205416151590565b62000319620004c4366004620014ba565b62000b79565b62000319620004db366004620014ba565b62000c35565b6000620004ee8262000cd5565b92915050565b6000806001600160a01b031660cb836040516200051291906200168b565b908152604051908190036020019020546001600160a01b0316141592915050565b60006200054082620004f4565b15620005b95760405162461bcd60e51b815260206004820152602c60248201527f74616c656e7420746f6b656e207769746820746869732073796d626f6c20616c60448201527f726561647920657869737473000000000000000000000000000000000000000060648201526084015b60405180910390fd5b60cc546001600160a01b0316620006135760405162461bcd60e51b815260206004820152601260248201527f6d696e746572206e6f74207965742073657400000000000000000000000000006044820152606401620005b0565b60cd5460cc546000916001600160a01b03908116917f6ef7626c000000000000000000000000000000000000000000000000000000009187918791686c6b935b8bbd400000918b911662000668888062000b16565b6040516024016200067f9695949392919062001767565b60408051601f198184030181529181526020820180517bffffffffffffffffffffffffffffffffffffffffffffffffffffffff166001600160e01b0319909416939093179092529051620006d390620013de565b620006e09291906200172e565b604051809103906000f080158015620006fd573d6000803e3d6000fd5b50905060008190508060cb856040516200071891906200168b565b9081526040805160209281900383018120805473ffffffffffffffffffffffffffffffffffffffff199081166001600160a01b0396871617909155858516600081815260ca865284812080548416978e16978817905586815260c99095529284208054909116831790559092917fc3cff6724200e4907489fef1d1ede51dd32ca7ac86d62c448475be4c3b1d5b5091a395945050505050565b600082815260656020526040902060010154620007ce8162000d16565b620007da838362000d22565b505050565b6001600160a01b03811633146200085f5760405162461bcd60e51b815260206004820152602f60248201527f416363657373436f6e74726f6c3a2063616e206f6e6c792072656e6f756e636560448201527f20726f6c657320666f722073656c6600000000000000000000000000000000006064820152608401620005b0565b6200086b828262000d48565b5050565b6000806200087d8162000d16565b50506001600160a01b03918216600090815260ca60205260409020805473ffffffffffffffffffffffffffffffffffffffff191691909216179055600190565b600054610100900460ff1615808015620008de5750600054600160ff909116105b80620008fa5750303b158015620008fa575060005460ff166001145b6200096e5760405162461bcd60e51b815260206004820152602e60248201527f496e697469616c697a61626c653a20636f6e747261637420697320616c72656160448201527f647920696e697469616c697a65640000000000000000000000000000000000006064820152608401620005b0565b6000805460ff19166001179055801562000992576000805461ff0019166101001790555b6200099c62000d6e565b620009a662000d6e565b620009b062000d6e565b620009bd60003362000def565b6000604051620009cd90620013ec565b604051809103906000f080158015620009ea573d6000803e3d6000fd5b50604051620009f990620013fa565b6001600160a01b039091168152602001604051809103906000f08015801562000a26573d6000803e3d6000fd5b506040517ff2fde38b0000000000000000000000000000000000000000000000000000000081523360048201529091506001600160a01b0382169063f2fde38b90602401600060405180830381600087803b15801562000a8557600080fd5b505af115801562000a9a573d6000803e3d6000fd5b505060cd805473ffffffffffffffffffffffffffffffffffffffff19166001600160a01b0394909416939093179092555050801562000b13576000805461ff0019169055604051600181527f7f26b83ff96e1f2b6a682f133852f6798a09c465da95921460cefb38474024989060200160405180910390a15b50565b600082815260976020526040812062000b30908362000dfb565b9392505050565b6000818152609760205260408120620004ee9062000e09565b60008281526065602052604090206001015462000b6d8162000d16565b620007da838362000d48565b600062000b868162000d16565b60cc546001600160a01b03161562000be15760405162461bcd60e51b815260206004820152601260248201527f6d696e74657220616c72656164792073657400000000000000000000000000006044820152606401620005b0565b60cc805473ffffffffffffffffffffffffffffffffffffffff19166001600160a01b0384161790556200086b7ff0887ba65ee2024ea881d91b74c2450ef19e1557f03bed3ea9f16b037cbe2dc98362000def565b600062000c428162000d16565b60cc546001600160a01b031662000c9c5760405162461bcd60e51b815260206004820152601160248201527f6d696e746572206973206e6f74207365740000000000000000000000000000006044820152606401620005b0565b60cc5462000be1907ff0887ba65ee2024ea881d91b74c2450ef19e1557f03bed3ea9f16b037cbe2dc9906001600160a01b031662000b50565b60006001600160e01b031982167f5a05180f000000000000000000000000000000000000000000000000000000001480620004ee5750620004ee8262000e14565b62000b13813362000e7d565b62000d2e828262000f06565b6000828152609760205260409020620007da908262000faa565b62000d54828262000fc1565b6000828152609760205260409020620007da908262001045565b600054610100900460ff1662000ded5760405162461bcd60e51b815260206004820152602b60248201527f496e697469616c697a61626c653a20636f6e7472616374206973206e6f74206960448201527f6e697469616c697a696e670000000000000000000000000000000000000000006064820152608401620005b0565b565b6200086b828262000d22565b600062000b3083836200105c565b6000620004ee825490565b60006001600160e01b031982167f7965db0b000000000000000000000000000000000000000000000000000000001480620004ee57507f01ffc9a7000000000000000000000000000000000000000000000000000000006001600160e01b0319831614620004ee565b60008281526065602090815260408083206001600160a01b038516845290915290205460ff166200086b5762000ebe816001600160a01b0316601462001089565b62000ecb83602062001089565b60405160200162000ede929190620016a9565b60408051601f198184030181529082905262461bcd60e51b8252620005b09160040162001752565b60008281526065602090815260408083206001600160a01b038516845290915290205460ff166200086b5760008281526065602090815260408083206001600160a01b03851684529091529020805460ff1916600117905562000f663390565b6001600160a01b0316816001600160a01b0316837f2f8788117e7eff1d82e926ec794901d17c78024a50270940304540a733656f0d60405160405180910390a45050565b600062000b30836001600160a01b03841662001288565b60008281526065602090815260408083206001600160a01b038516845290915290205460ff16156200086b5760008281526065602090815260408083206001600160a01b0385168085529252808320805460ff1916905551339285917ff6391f5c32d9c69d2a47ea670b442974b53935d1edc7fd64eb21e047a839171b9190a45050565b600062000b30836001600160a01b038416620012da565b600082600001828154811062001076576200107662001891565b9060005260206000200154905092915050565b606060006200109a836002620017dc565b620010a7906002620017c1565b67ffffffffffffffff811115620010c257620010c2620018a7565b6040519080825280601f01601f191660200182016040528015620010ed576020820181803683370190505b5090507f30000000000000000000000000000000000000000000000000000000000000008160008151811062001127576200112762001891565b60200101906001600160f81b031916908160001a9053507f78000000000000000000000000000000000000000000000000000000000000008160018151811062001175576200117562001891565b60200101906001600160f81b031916908160001a90535060006200119b846002620017dc565b620011a8906001620017c1565b90505b600181111562001237577f303132333435363738396162636465660000000000000000000000000000000085600f1660108110620011ed57620011ed62001891565b1a60f81b82828151811062001206576200120662001891565b60200101906001600160f81b031916908160001a90535060049490941c936200122f816200184b565b9050620011ab565b50831562000b305760405162461bcd60e51b815260206004820181905260248201527f537472696e67733a20686578206c656e67746820696e73756666696369656e746044820152606401620005b0565b6000818152600183016020526040812054620012d157508154600181810184556000848152602080822090930184905584548482528286019093526040902091909155620004ee565b506000620004ee565b60008181526001830160205260408120548015620013d357600062001301600183620017fe565b85549091506000906200131790600190620017fe565b9050818114620013835760008660000182815481106200133b576200133b62001891565b906000526020600020015490508087600001848154811062001361576200136162001891565b6000918252602080832090910192909255918252600188019052604090208390555b85548690806200139757620013976200187b565b600190038181906000526020600020016000905590558560010160008681526020019081526020016000206000905560019350505050620004ee565b6000915050620004ee565b61093e80620018be83390190565b612c9c80620021fc83390190565b61052f8062004e9883390190565b80356001600160a01b03811681146200142057600080fd5b919050565b600082601f8301126200143757600080fd5b813567ffffffffffffffff80821115620014555762001455620018a7565b604051601f8301601f19908116603f01168101908282118183101715620014805762001480620018a7565b816040528381528660208588010111156200149a57600080fd5b836020870160208301376000602085830101528094505050505092915050565b600060208284031215620014cd57600080fd5b62000b308262001408565b60008060408385031215620014ec57600080fd5b620014f78362001408565b9150620015076020840162001408565b90509250929050565b6000806000606084860312156200152657600080fd5b620015318462001408565b9250602084013567ffffffffffffffff808211156200154f57600080fd5b6200155d8783880162001425565b935060408601359150808211156200157457600080fd5b50620015838682870162001425565b9150509250925092565b600060208284031215620015a057600080fd5b5035919050565b60008060408385031215620015bb57600080fd5b82359150620015076020840162001408565b60008060408385031215620015e157600080fd5b50508035926020909101359150565b6000602082840312156200160357600080fd5b81356001600160e01b03198116811462000b3057600080fd5b6000602082840312156200162f57600080fd5b813567ffffffffffffffff8111156200164757600080fd5b620016558482850162001425565b949350505050565b600081518084526200167781602086016020860162001818565b601f01601f19169290920160200192915050565b600082516200169f81846020870162001818565b9190910192915050565b7f416363657373436f6e74726f6c3a206163636f756e7420000000000000000000815260008351620016e381601785016020880162001818565b7f206973206d697373696e6720726f6c652000000000000000000000000000000060179184019182015283516200172281602884016020880162001818565b01602801949350505050565b6001600160a01b03831681526040602082015260006200165560408301846200165d565b60208152600062000b3060208301846200165d565b60c0815260006200177c60c08301896200165d565b82810360208401526200179081896200165d565b604084019790975250506001600160a01b039384166060820152918316608083015290911660a09091015292915050565b60008219821115620017d757620017d762001865565b500190565b6000816000190483118215151615620017f957620017f962001865565b500290565b60008282101562001813576200181362001865565b500390565b60005b83811015620018355781810151838201526020016200181b565b8381111562001845576000848401525b50505050565b6000816200185d576200185d62001865565b506000190190565b634e487b7160e01b600052601160045260246000fd5b634e487b7160e01b600052603160045260246000fd5b634e487b7160e01b600052603260045260246000fd5b634e487b7160e01b600052604160045260246000fdfe608060405260405161093e38038061093e8339810160408190526100229161044d565b61002e82826000610035565b505061059e565b61003e8361010f565b6040516001600160a01b038416907f1cf3b03a6cf19fa2baba4df148e9dcabedea7f8a5c07840e207e5c089be95d3e90600090a260008251118061007f5750805b1561010a57610108836001600160a01b0316635c60da1b6040518163ffffffff1660e01b815260040160206040518083038186803b1580156100c057600080fd5b505afa1580156100d4573d6000803e3d6000fd5b505050506040513d601f19601f820116820180604052508101906100f89190610432565b836102c160201b6100291760201c565b505b505050565b610122816102ed60201b6100551760201c565b6101815760405162461bcd60e51b815260206004820152602560248201527f455243313936373a206e657720626561636f6e206973206e6f74206120636f6e6044820152641d1c9858dd60da1b60648201526084015b60405180910390fd5b610204816001600160a01b0316635c60da1b6040518163ffffffff1660e01b815260040160206040518083038186803b1580156101bd57600080fd5b505afa1580156101d1573d6000803e3d6000fd5b505050506040513d601f19601f820116820180604052508101906101f59190610432565b6102ed60201b6100551760201c565b6102695760405162461bcd60e51b815260206004820152603060248201527f455243313936373a20626561636f6e20696d706c656d656e746174696f6e206960448201526f1cc81b9bdd08184818dbdb9d1c9858dd60821b6064820152608401610178565b806102a07fa3f0ad74e5423aebfd80d3ef4346578335a9a72aeaee59ff6cb3582b35133d5060001b6102fc60201b6100641760201c565b80546001600160a01b0319166001600160a01b039290921691909117905550565b60606102e68383604051806060016040528060278152602001610917602791396102ff565b9392505050565b6001600160a01b03163b151590565b90565b60606001600160a01b0384163b6103675760405162461bcd60e51b815260206004820152602660248201527f416464726573733a2064656c65676174652063616c6c20746f206e6f6e2d636f6044820152651b9d1c9858dd60d21b6064820152608401610178565b600080856001600160a01b031685604051610382919061050d565b600060405180830381855af49150503d80600081146103bd576040519150601f19603f3d011682016040523d82523d6000602084013e6103c2565b606091505b5090925090506103d38282866103dd565b9695505050505050565b606083156103ec5750816102e6565b8251156103fc5782518084602001fd5b8160405162461bcd60e51b81526004016101789190610529565b80516001600160a01b038116811461042d57600080fd5b919050565b60006020828403121561044457600080fd5b6102e682610416565b6000806040838503121561046057600080fd5b61046983610416565b60208401519092506001600160401b038082111561048657600080fd5b818501915085601f83011261049a57600080fd5b8151818111156104ac576104ac610588565b604051601f8201601f19908116603f011681019083821181831017156104d4576104d4610588565b816040528281528860208487010111156104ed57600080fd5b6104fe83602083016020880161055c565b80955050505050509250929050565b6000825161051f81846020870161055c565b9190910192915050565b602081526000825180602084015261054881604085016020870161055c565b601f01601f19169190910160400192915050565b60005b8381101561057757818101518382015260200161055f565b838111156101085750506000910152565b634e487b7160e01b600052604160045260246000fd5b61036a806105ad6000396000f3fe60806040523661001357610011610017565b005b6100115b610027610022610067565b61010f565b565b606061004e838360405180606001604052806027815260200161030e60279139610133565b9392505050565b6001600160a01b03163b151590565b90565b600061009a7fa3f0ad74e5423aebfd80d3ef4346578335a9a72aeaee59ff6cb3582b35133d50546001600160a01b031690565b6001600160a01b0316635c60da1b6040518163ffffffff1660e01b815260040160206040518083038186803b1580156100d257600080fd5b505afa1580156100e6573d6000803e3d6000fd5b505050506040513d601f19601f8201168201806040525081019061010a9190610265565b905090565b3660008037600080366000845af43d6000803e80801561012e573d6000f35b3d6000fd5b60606001600160a01b0384163b6101b75760405162461bcd60e51b815260206004820152602660248201527f416464726573733a2064656c65676174652063616c6c20746f206e6f6e2d636f60448201527f6e7472616374000000000000000000000000000000000000000000000000000060648201526084015b60405180910390fd5b600080856001600160a01b0316856040516101d2919061028e565b600060405180830381855af49150503d806000811461020d576040519150601f19603f3d011682016040523d82523d6000602084013e610212565b606091505b509150915061022282828661022c565b9695505050505050565b6060831561023b57508161004e565b82511561024b5782518084602001fd5b8160405162461bcd60e51b81526004016101ae91906102aa565b60006020828403121561027757600080fd5b81516001600160a01b038116811461004e57600080fd5b600082516102a08184602087016102dd565b9190910192915050565b60208152600082518060208401526102c98160408501602087016102dd565b601f01601f19169190910160400192915050565b60005b838110156102f85781810151838201526020016102e0565b83811115610307576000848401525b5050505056fe416464726573733a206c6f772d6c6576656c2064656c65676174652063616c6c206661696c6564a2646970667358221220d2923618c23dd282fbe1f573fa51fcbeaf822c83a3f407848f486ee5b664466864736f6c63430008070033416464726573733a206c6f772d6c6576656c2064656c65676174652063616c6c206661696c656460a06040523060601b60805234801561001757600080fd5b5060805160601c612c4a610052600039600081816109c601528181610a4b01528181610cc701528181610d4c0152610e320152612c4a6000f3fe60806040526004361061026a5760003560e01c806352d1902d11610153578063a457c2d7116100cb578063cae9ca511161007f578063d547741f11610064578063d547741f1461070e578063d8fbe9941461072e578063dd62ed3e1461074e57600080fd5b8063cae9ca51146106ce578063ccf00634146106ee57600080fd5b8063aafa9371116100b0578063aafa93711461065e578063c1d34b8914610675578063c4daa5931461069557600080fd5b8063a457c2d71461061e578063a9059cbb1461063e57600080fd5b806391d148541161012257806395d89b411161010757806395d89b41146105d45780639dc29fac146105e9578063a217fddf1461060957600080fd5b806391d148541461055a57806392afc33a146105a057600080fd5b806352d1902d146104bb5780636ef7626c146104d057806370a08231146104f05780637a12083a1461052657600080fd5b80633177029f116101e657806339509351116101b55780634000aea01161019a5780634000aea01461046857806340c10f19146104885780634f1ef286146104a857600080fd5b806339509351146104315780633e0075a11461045157600080fd5b80633177029f146103b357806332cb6b0c146103d357806336568abe146103f15780633659cfe61461041157600080fd5b806318160ddd1161023d578063248a9ca311610222578063248a9ca3146103455780632f2ff15d14610375578063313ce5671461039757600080fd5b806318160ddd1461030657806323b872dd1461032557600080fd5b806301ffc9a71461026f57806306fdde03146102a4578063095ea7b3146102c65780631296ee62146102e6575b600080fd5b34801561027b57600080fd5b5061028f61028a3660046128b1565b610794565b60405190151581526020015b60405180910390f35b3480156102b057600080fd5b506102b96107f3565b60405161029b9190612ab6565b3480156102d257600080fd5b5061028f6102e13660046127db565b610885565b3480156102f257600080fd5b5061028f6103013660046127db565b61089d565b34801561031257600080fd5b506099545b60405190815260200161029b565b34801561033157600080fd5b5061028f6103403660046126e9565b6108c0565b34801561035157600080fd5b5061031761036036600461285c565b60009081526065602052604090206001015490565b34801561038157600080fd5b5061039561039036600461288e565b6108e4565b005b3480156103a357600080fd5b506040516012815260200161029b565b3480156103bf57600080fd5b5061028f6103ce3660046127db565b61090e565b3480156103df57600080fd5b5061031769d3c21bcecceda100000081565b3480156103fd57600080fd5b5061039561040c36600461288e565b61092a565b34801561041d57600080fd5b5061039561042c36600461269b565b6109bb565b34801561043d57600080fd5b5061028f61044c3660046127db565b610b37565b34801561045d57600080fd5b5061031761012e5481565b34801561047457600080fd5b5061028f610483366004612805565b610b76565b34801561049457600080fd5b506103956104a33660046127db565b610bea565b6103956104b636600461278d565b610cbc565b3480156104c757600080fd5b50610317610e25565b3480156104dc57600080fd5b506103956104eb3660046128eb565b610eea565b3480156104fc57600080fd5b5061031761050b36600461269b565b6001600160a01b031660009081526097602052604090205490565b34801561053257600080fd5b506103177f8fad061cdace53638a92e8940b81545ab8169bcf17f044b6ab490075da827c9481565b34801561056657600080fd5b5061028f61057536600461288e565b60009182526065602090815260408084206001600160a01b0393909316845291905290205460ff1690565b3480156105ac57600080fd5b506103177ff0887ba65ee2024ea881d91b74c2450ef19e1557f03bed3ea9f16b037cbe2dc981565b3480156105e057600080fd5b506102b96110fe565b3480156105f557600080fd5b506103956106043660046127db565b61110d565b34801561061557600080fd5b50610317600081565b34801561062a57600080fd5b5061028f6106393660046127db565b611163565b34801561064a57600080fd5b5061028f6106593660046127db565b61120d565b34801561066a57600080fd5b5061031761012d5481565b34801561068157600080fd5b5061028f610690366004612725565b61121b565b3480156106a157600080fd5b5061012f546106b6906001600160a01b031681565b6040516001600160a01b03909116815260200161029b565b3480156106da57600080fd5b5061028f6106e9366004612805565b611298565b3480156106fa57600080fd5b5061039561070936600461269b565b611322565b34801561071a57600080fd5b5061039561072936600461288e565b61139b565b34801561073a57600080fd5b5061028f6107493660046126e9565b6113c0565b34801561075a57600080fd5b506103176107693660046126b6565b6001600160a01b03918216600090815260986020908152604080832093909416825291909152205490565b60006001600160e01b031982167f36372b070000000000000000000000000000000000000000000000000000000014806107de57506001600160e01b0319821663b0202a1160e01b145b806107ed57506107ed826113dd565b92915050565b6060609a805461080290612b5a565b80601f016020809104026020016040519081016040528092919081815260200182805461082e90612b5a565b801561087b5780601f106108505761010080835404028352916020019161087b565b820191906000526020600020905b81548152906001019060200180831161085e57829003601f168201915b5050505050905090565b600033610893818585611402565b5060019392505050565b60006108b9838360405180602001604052806000815250610b76565b9392505050565b6000336108ce85828561155a565b6108d98585856115ec565b506001949350505050565b6000828152606560205260409020600101546108ff81611803565b610909838361180d565b505050565b60006108b9838360405180602001604052806000815250611298565b6001600160a01b03811633146109ad5760405162461bcd60e51b815260206004820152602f60248201527f416363657373436f6e74726f6c3a2063616e206f6e6c792072656e6f756e636560448201527f20726f6c657320666f722073656c66000000000000000000000000000000000060648201526084015b60405180910390fd5b6109b782826118af565b5050565b306001600160a01b037f0000000000000000000000000000000000000000000000000000000000000000161415610a495760405162461bcd60e51b815260206004820152602c60248201527f46756e6374696f6e206d7573742062652063616c6c6564207468726f7567682060448201526b19195b1959d85d1958d85b1b60a21b60648201526084016109a4565b7f00000000000000000000000000000000000000000000000000000000000000006001600160a01b0316610aa47f360894a13ba1a3210667c828492db98dca3e2076cc3735a920a3ca505d382bbc546001600160a01b031690565b6001600160a01b031614610b0f5760405162461bcd60e51b815260206004820152602c60248201527f46756e6374696f6e206d7573742062652063616c6c6564207468726f7567682060448201526b6163746976652070726f787960a01b60648201526084016109a4565b610b1881611932565b60408051600080825260208201909252610b349183919061193d565b50565b3360008181526098602090815260408083206001600160a01b03871684529091528120549091906108939082908690610b71908790612ac9565b611402565b6000610b82848461120d565b50610b8f33858585611aec565b6108935760405162461bcd60e51b815260206004820152602660248201527f455243313336333a205f636865636b416e6443616c6c5472616e73666572207260448201526565766572747360d01b60648201526084016109a4565b7ff0887ba65ee2024ea881d91b74c2450ef19e1557f03bed3ea9f16b037cbe2dc9610c1481611803565b8161012d541015610c8c5760405162461bcd60e51b8152602060048201526024808201527f5f616d6f756e742065786365656473206d696e74696e6720617661696c61626960448201527f6c6974790000000000000000000000000000000000000000000000000000000060648201526084016109a4565b8161012d6000828254610c9f9190612b00565b909155505061012d54610cb2574261012e555b6109098383611baa565b306001600160a01b037f0000000000000000000000000000000000000000000000000000000000000000161415610d4a5760405162461bcd60e51b815260206004820152602c60248201527f46756e6374696f6e206d7573742062652063616c6c6564207468726f7567682060448201526b19195b1959d85d1958d85b1b60a21b60648201526084016109a4565b7f00000000000000000000000000000000000000000000000000000000000000006001600160a01b0316610da57f360894a13ba1a3210667c828492db98dca3e2076cc3735a920a3ca505d382bbc546001600160a01b031690565b6001600160a01b031614610e105760405162461bcd60e51b815260206004820152602c60248201527f46756e6374696f6e206d7573742062652063616c6c6564207468726f7567682060448201526b6163746976652070726f787960a01b60648201526084016109a4565b610e1982611932565b6109b78282600161193d565b6000306001600160a01b037f00000000000000000000000000000000000000000000000000000000000000001614610ec55760405162461bcd60e51b815260206004820152603860248201527f555550535570677261646561626c653a206d757374206e6f742062652063616c60448201527f6c6564207468726f7567682064656c656761746563616c6c000000000000000060648201526084016109a4565b507f360894a13ba1a3210667c828492db98dca3e2076cc3735a920a3ca505d382bbc90565b600054610100900460ff1615808015610f0a5750600054600160ff909116105b80610f245750303b158015610f24575060005460ff166001145b610f965760405162461bcd60e51b815260206004820152602e60248201527f496e697469616c697a61626c653a20636f6e747261637420697320616c72656160448201527f647920696e697469616c697a656400000000000000000000000000000000000060648201526084016109a4565b6000805460ff191660011790558015610fb9576000805461ff0019166101001790555b610fc1611c89565b610fc9611c89565b610fd38787611cf6565b610fdb611c89565b61012f805473ffffffffffffffffffffffffffffffffffffffff19166001600160a01b03861617905561100f600083611d88565b6110397f8fad061cdace53638a92e8940b81545ab8169bcf17f044b6ab490075da827c9485611d88565b6110637ff0887ba65ee2024ea881d91b74c2450ef19e1557f03bed3ea9f16b037cbe2dc984611d88565b61108d7f8fad061cdace53638a92e8940b81545ab8169bcf17f044b6ab490075da827c9480611d92565b6110978486611baa565b6110ab8569d3c21bcecceda1000000612b00565b61012d5580156110f5576000805461ff0019169055604051600181527f7f26b83ff96e1f2b6a682f133852f6798a09c465da95921460cefb38474024989060200160405180910390a15b50505050505050565b6060609b805461080290612b5a565b7ff0887ba65ee2024ea881d91b74c2450ef19e1557f03bed3ea9f16b037cbe2dc961113781611803565b61012d5415611159578161012d60008282546111539190612ac9565b90915550505b6109098383611ddd565b3360008181526098602090815260408083206001600160a01b0387168452909152812054909190838110156112005760405162461bcd60e51b815260206004820152602560248201527f45524332303a2064656372656173656420616c6c6f77616e63652062656c6f7760448201527f207a65726f00000000000000000000000000000000000000000000000000000060648201526084016109a4565b6108d98286868403611402565b6000336108938185856115ec565b60006112288585856108c0565b5061123585858585611aec565b6108d95760405162461bcd60e51b815260206004820152602660248201527f455243313336333a205f636865636b416e6443616c6c5472616e73666572207260448201526565766572747360d01b60648201526084016109a4565b949350505050565b60006112a48484610885565b506112b0848484611f62565b6108935760405162461bcd60e51b815260206004820152602560248201527f455243313336333a205f636865636b416e6443616c6c417070726f766520726560448201527f766572747300000000000000000000000000000000000000000000000000000060648201526084016109a4565b61012f805473ffffffffffffffffffffffffffffffffffffffff19166001600160a01b0383161790556113757f8fad061cdace53638a92e8940b81545ab8169bcf17f044b6ab490075da827c94826108e4565b610b347f8fad061cdace53638a92e8940b81545ab8169bcf17f044b6ab490075da827c94335b6000828152606560205260409020600101546113b681611803565b61090983836118af565b60006112908484846040518060200160405280600081525061121b565b60006001600160e01b0319821663b0202a1160e01b14806107ed57506107ed8261201d565b6001600160a01b03831661147d5760405162461bcd60e51b8152602060048201526024808201527f45524332303a20617070726f76652066726f6d20746865207a65726f2061646460448201527f726573730000000000000000000000000000000000000000000000000000000060648201526084016109a4565b6001600160a01b0382166114f95760405162461bcd60e51b815260206004820152602260248201527f45524332303a20617070726f766520746f20746865207a65726f20616464726560448201527f737300000000000000000000000000000000000000000000000000000000000060648201526084016109a4565b6001600160a01b0383811660008181526098602090815260408083209487168084529482529182902085905590518481527f8c5be1e5ebec7d5bd14f71427d1e84f3dd0314c0f7b2291e5b200ac8c7c3b925910160405180910390a3505050565b6001600160a01b0383811660009081526098602090815260408083209386168352929052205460001981146115e657818110156115d95760405162461bcd60e51b815260206004820152601d60248201527f45524332303a20696e73756666696369656e7420616c6c6f77616e636500000060448201526064016109a4565b6115e68484848403611402565b50505050565b6001600160a01b0383166116685760405162461bcd60e51b815260206004820152602560248201527f45524332303a207472616e736665722066726f6d20746865207a65726f20616460448201527f647265737300000000000000000000000000000000000000000000000000000060648201526084016109a4565b6001600160a01b0382166116e45760405162461bcd60e51b815260206004820152602360248201527f45524332303a207472616e7366657220746f20746865207a65726f206164647260448201527f657373000000000000000000000000000000000000000000000000000000000060648201526084016109a4565b6001600160a01b038316600090815260976020526040902054818110156117735760405162461bcd60e51b815260206004820152602660248201527f45524332303a207472616e7366657220616d6f756e742065786365656473206260448201527f616c616e6365000000000000000000000000000000000000000000000000000060648201526084016109a4565b6001600160a01b038085166000908152609760205260408082208585039055918516815290812080548492906117aa908490612ac9565b92505081905550826001600160a01b0316846001600160a01b03167fddf252ad1be2c89b69c2b068fc378daa952ba7f163c4a11628f55a4df523b3ef846040516117f691815260200190565b60405180910390a36115e6565b610b348133612084565b60008281526065602090815260408083206001600160a01b038516845290915290205460ff166109b75760008281526065602090815260408083206001600160a01b03851684529091529020805460ff1916600117905561186b3390565b6001600160a01b0316816001600160a01b0316837f2f8788117e7eff1d82e926ec794901d17c78024a50270940304540a733656f0d60405160405180910390a45050565b60008281526065602090815260408083206001600160a01b038516845290915290205460ff16156109b75760008281526065602090815260408083206001600160a01b0385168085529252808320805460ff1916905551339285917ff6391f5c32d9c69d2a47ea670b442974b53935d1edc7fd64eb21e047a839171b9190a45050565b60006109b781611803565b7f4910fdfa16fed3260ed0e7147f7cc6da11a60208b5b9406d12a635614ffd91435460ff16156119705761090983612104565b826001600160a01b03166352d1902d6040518163ffffffff1660e01b815260040160206040518083038186803b1580156119a957600080fd5b505afa9250505080156119d9575060408051601f3d908101601f191682019092526119d691810190612875565b60015b611a4b5760405162461bcd60e51b815260206004820152602e60248201527f45524331393637557067726164653a206e657720696d706c656d656e7461746960448201527f6f6e206973206e6f74205555505300000000000000000000000000000000000060648201526084016109a4565b7f360894a13ba1a3210667c828492db98dca3e2076cc3735a920a3ca505d382bbc8114611ae05760405162461bcd60e51b815260206004820152602960248201527f45524331393637557067726164653a20756e737570706f727465642070726f7860448201527f6961626c6555554944000000000000000000000000000000000000000000000060648201526084016109a4565b506109098383836121cf565b60006001600160a01b0384163b611b0557506000611290565b604051632229f29760e21b81526000906001600160a01b038616906388a7ca5c90611b3a9033908a9089908990600401612a52565b602060405180830381600087803b158015611b5457600080fd5b505af1158015611b68573d6000803e3d6000fd5b505050506040513d601f19601f82011682018060405250810190611b8c91906128ce565b6001600160e01b031916632229f29760e21b14915050949350505050565b6001600160a01b038216611c005760405162461bcd60e51b815260206004820152601f60248201527f45524332303a206d696e7420746f20746865207a65726f20616464726573730060448201526064016109a4565b8060996000828254611c129190612ac9565b90915550506001600160a01b03821660009081526097602052604081208054839290611c3f908490612ac9565b90915550506040518181526001600160a01b038316906000907fddf252ad1be2c89b69c2b068fc378daa952ba7f163c4a11628f55a4df523b3ef9060200160405180910390a35050565b600054610100900460ff16611cf45760405162461bcd60e51b815260206004820152602b60248201527f496e697469616c697a61626c653a20636f6e7472616374206973206e6f74206960448201526a6e697469616c697a696e6760a81b60648201526084016109a4565b565b600054610100900460ff16611d615760405162461bcd60e51b815260206004820152602b60248201527f496e697469616c697a61626c653a20636f6e7472616374206973206e6f74206960448201526a6e697469616c697a696e6760a81b60648201526084016109a4565b8151611d7490609a906020850190612559565b50805161090990609b906020840190612559565b6109b7828261180d565b600082815260656020526040808220600101805490849055905190918391839186917fbd79b86ffe0ab8e8776151514217cd7cacd52c909f66475c3af44e129f0b00ff9190a4505050565b6001600160a01b038216611e595760405162461bcd60e51b815260206004820152602160248201527f45524332303a206275726e2066726f6d20746865207a65726f2061646472657360448201527f730000000000000000000000000000000000000000000000000000000000000060648201526084016109a4565b6001600160a01b03821660009081526097602052604090205481811015611ee85760405162461bcd60e51b815260206004820152602260248201527f45524332303a206275726e20616d6f756e7420657863656564732062616c616e60448201527f636500000000000000000000000000000000000000000000000000000000000060648201526084016109a4565b6001600160a01b0383166000908152609760205260408120838303905560998054849290611f17908490612b00565b90915550506040518281526000906001600160a01b038516907fddf252ad1be2c89b69c2b068fc378daa952ba7f163c4a11628f55a4df523b3ef9060200160405180910390a3505050565b60006001600160a01b0384163b611f7b575060006108b9565b6040516307b04a2d60e41b81526000906001600160a01b03861690637b04a2d090611fae90339088908890600401612a8e565b602060405180830381600087803b158015611fc857600080fd5b505af1158015611fdc573d6000803e3d6000fd5b505050506040513d601f19601f8201168201806040525081019061200091906128ce565b6001600160e01b0319166307b04a2d60e41b149150509392505050565b60006001600160e01b031982167f7965db0b0000000000000000000000000000000000000000000000000000000014806107ed57507f01ffc9a7000000000000000000000000000000000000000000000000000000006001600160e01b03198316146107ed565b60008281526065602090815260408083206001600160a01b038516845290915290205460ff166109b7576120c2816001600160a01b031660146121f4565b6120cd8360206121f4565b6040516020016120de9291906129d1565b60408051601f198184030181529082905262461bcd60e51b82526109a491600401612ab6565b6001600160a01b0381163b6121815760405162461bcd60e51b815260206004820152602d60248201527f455243313936373a206e657720696d706c656d656e746174696f6e206973206e60448201527f6f74206120636f6e74726163740000000000000000000000000000000000000060648201526084016109a4565b7f360894a13ba1a3210667c828492db98dca3e2076cc3735a920a3ca505d382bbc805473ffffffffffffffffffffffffffffffffffffffff19166001600160a01b0392909216919091179055565b6121d8836123d5565b6000825111806121e55750805b15610909576115e68383612415565b60606000612203836002612ae1565b61220e906002612ac9565b67ffffffffffffffff81111561222657612226612bc1565b6040519080825280601f01601f191660200182016040528015612250576020820181803683370190505b5090507f30000000000000000000000000000000000000000000000000000000000000008160008151811061228757612287612bab565b60200101906001600160f81b031916908160001a9053507f7800000000000000000000000000000000000000000000000000000000000000816001815181106122d2576122d2612bab565b60200101906001600160f81b031916908160001a90535060006122f6846002612ae1565b612301906001612ac9565b90505b6001811115612386577f303132333435363738396162636465660000000000000000000000000000000085600f166010811061234257612342612bab565b1a60f81b82828151811061235857612358612bab565b60200101906001600160f81b031916908160001a90535060049490941c9361237f81612b43565b9050612304565b5083156108b95760405162461bcd60e51b815260206004820181905260248201527f537472696e67733a20686578206c656e67746820696e73756666696369656e7460448201526064016109a4565b6123de81612104565b6040516001600160a01b038216907fbc7cd75a20ee27fd9adebab32041f755214dbc6bffa90cc0225b39da2e5c2d3b90600090a250565b60606001600160a01b0383163b6124945760405162461bcd60e51b815260206004820152602660248201527f416464726573733a2064656c65676174652063616c6c20746f206e6f6e2d636f60448201527f6e7472616374000000000000000000000000000000000000000000000000000060648201526084016109a4565b600080846001600160a01b0316846040516124af91906129b5565b600060405180830381855af49150503d80600081146124ea576040519150601f19603f3d011682016040523d82523d6000602084013e6124ef565b606091505b50915091506125178282604051806060016040528060278152602001612bee60279139612520565b95945050505050565b6060831561252f5750816108b9565b82511561253f5782518084602001fd5b8160405162461bcd60e51b81526004016109a49190612ab6565b82805461256590612b5a565b90600052602060002090601f01602090048101928261258757600085556125cd565b82601f106125a057805160ff19168380011785556125cd565b828001600101855582156125cd579182015b828111156125cd5782518255916020019190600101906125b2565b506125d99291506125dd565b5090565b5b808211156125d957600081556001016125de565b80356001600160a01b038116811461260957600080fd5b919050565b600082601f83011261261f57600080fd5b813567ffffffffffffffff8082111561263a5761263a612bc1565b604051601f8301601f19908116603f0116810190828211818310171561266257612662612bc1565b8160405283815286602085880101111561267b57600080fd5b836020870160208301376000602085830101528094505050505092915050565b6000602082840312156126ad57600080fd5b6108b9826125f2565b600080604083850312156126c957600080fd5b6126d2836125f2565b91506126e0602084016125f2565b90509250929050565b6000806000606084860312156126fe57600080fd5b612707846125f2565b9250612715602085016125f2565b9150604084013590509250925092565b6000806000806080858703121561273b57600080fd5b612744856125f2565b9350612752602086016125f2565b925060408501359150606085013567ffffffffffffffff81111561277557600080fd5b6127818782880161260e565b91505092959194509250565b600080604083850312156127a057600080fd5b6127a9836125f2565b9150602083013567ffffffffffffffff8111156127c557600080fd5b6127d18582860161260e565b9150509250929050565b600080604083850312156127ee57600080fd5b6127f7836125f2565b946020939093013593505050565b60008060006060848603121561281a57600080fd5b612823846125f2565b925060208401359150604084013567ffffffffffffffff81111561284657600080fd5b6128528682870161260e565b9150509250925092565b60006020828403121561286e57600080fd5b5035919050565b60006020828403121561288757600080fd5b5051919050565b600080604083850312156128a157600080fd5b823591506126e0602084016125f2565b6000602082840312156128c357600080fd5b81356108b981612bd7565b6000602082840312156128e057600080fd5b81516108b981612bd7565b60008060008060008060c0878903121561290457600080fd5b863567ffffffffffffffff8082111561291c57600080fd5b6129288a838b0161260e565b9750602089013591508082111561293e57600080fd5b5061294b89828a0161260e565b95505060408701359350612961606088016125f2565b925061296f608088016125f2565b915061297d60a088016125f2565b90509295509295509295565b600081518084526129a1816020860160208601612b17565b601f01601f19169290920160200192915050565b600082516129c7818460208701612b17565b9190910192915050565b7f416363657373436f6e74726f6c3a206163636f756e7420000000000000000000815260008351612a09816017850160208801612b17565b7f206973206d697373696e6720726f6c65200000000000000000000000000000006017918401918201528351612a46816028840160208801612b17565b01602801949350505050565b60006001600160a01b03808716835280861660208401525083604083015260806060830152612a846080830184612989565b9695505050505050565b6001600160a01b03841681528260208201526060604082015260006125176060830184612989565b6020815260006108b96020830184612989565b60008219821115612adc57612adc612b95565b500190565b6000816000190483118215151615612afb57612afb612b95565b500290565b600082821015612b1257612b12612b95565b500390565b60005b83811015612b32578181015183820152602001612b1a565b838111156115e65750506000910152565b600081612b5257612b52612b95565b506000190190565b600181811c90821680612b6e57607f821691505b60208210811415612b8f57634e487b7160e01b600052602260045260246000fd5b50919050565b634e487b7160e01b600052601160045260246000fd5b634e487b7160e01b600052603260045260246000fd5b634e487b7160e01b600052604160045260246000fd5b6001600160e01b031981168114610b3457600080fdfe416464726573733a206c6f772d6c6576656c2064656c65676174652063616c6c206661696c6564a26469706673582212209ed395967b2d77621ea80f8010946bfe625fa8f6089a567ce14aa48da105964364736f6c63430008070033608060405234801561001057600080fd5b5060405161052f38038061052f83398101604081905261002f91610151565b61003833610047565b61004181610097565b50610181565b600080546001600160a01b038381166001600160a01b0319831681178455604051919092169283917f8be0079c531659141344cd1fd0a4f28419497f9722a3daafe3b4186f6b6457e09190a35050565b6100aa8161014260201b6101c71760201c565b6101205760405162461bcd60e51b815260206004820152603360248201527f5570677261646561626c65426561636f6e3a20696d706c656d656e746174696f60448201527f6e206973206e6f74206120636f6e747261637400000000000000000000000000606482015260840160405180910390fd5b600180546001600160a01b0319166001600160a01b0392909216919091179055565b6001600160a01b03163b151590565b60006020828403121561016357600080fd5b81516001600160a01b038116811461017a57600080fd5b9392505050565b61039f806101906000396000f3fe608060405234801561001057600080fd5b50600436106100675760003560e01c8063715018a611610050578063715018a6146100aa5780638da5cb5b146100b2578063f2fde38b146100c357600080fd5b80633659cfe61461006c5780635c60da1b14610081575b600080fd5b61007f61007a366004610339565b6100d6565b005b6001546001600160a01b03165b6040516001600160a01b03909116815260200160405180910390f35b61007f61011e565b6000546001600160a01b031661008e565b61007f6100d1366004610339565b610132565b6100de6101d6565b6100e781610230565b6040516001600160a01b038216907fbc7cd75a20ee27fd9adebab32041f755214dbc6bffa90cc0225b39da2e5c2d3b90600090a250565b6101266101d6565b61013060006102dc565b565b61013a6101d6565b6001600160a01b0381166101bb5760405162461bcd60e51b815260206004820152602660248201527f4f776e61626c653a206e6577206f776e657220697320746865207a65726f206160448201527f646472657373000000000000000000000000000000000000000000000000000060648201526084015b60405180910390fd5b6101c4816102dc565b50565b6001600160a01b03163b151590565b6000546001600160a01b031633146101305760405162461bcd60e51b815260206004820181905260248201527f4f776e61626c653a2063616c6c6572206973206e6f7420746865206f776e657260448201526064016101b2565b6001600160a01b0381163b6102ad5760405162461bcd60e51b815260206004820152603360248201527f5570677261646561626c65426561636f6e3a20696d706c656d656e746174696f60448201527f6e206973206e6f74206120636f6e74726163740000000000000000000000000060648201526084016101b2565b6001805473ffffffffffffffffffffffffffffffffffffffff19166001600160a01b0392909216919091179055565b600080546001600160a01b0383811673ffffffffffffffffffffffffffffffffffffffff19831681178455604051919092169283917f8be0079c531659141344cd1fd0a4f28419497f9722a3daafe3b4186f6b6457e09190a35050565b60006020828403121561034b57600080fd5b81356001600160a01b038116811461036257600080fd5b939250505056fea26469706673582212205856144c03351936dafb065d7b203a08a79a882a1fa05f6156dd53052caa495164736f6c63430008070033a2646970667358221220c1118fbd897fcedb6d74c3fcdba91ada496dff096a93bf3087d1979f4b23608d64736f6c63430008070033",
  "linkReferences": {},
  "deployedLinkReferences": {}
}