{
  "_format": "hh-sol-artifact-1",
  "contractName": "TalentTokenV3",
  "sourceName": "contracts/season3/TalentTokenV3.sol",
  "abi": [
    {
      "anonymous": false,
      "inputs": [
        {
          "indexed": false,
          "internalType": "address",
          "name": "previousAdmin",
          "type": "address"
        },
        {
          "indexed": false,
          "internalType": "address",
          "name": "newAdmin",
          "type": "address"
        }
      ],
      "name": "AdminChanged",
      "type": "event"
    },
    {
      "anonymous": false,
      "inputs": [
        {
          "indexed": true,
          "internalType": "address",
          "name": "owner",
          "type": "address"
        },
        {
          "indexed": true,
          "internalType": "address",
          "name": "spender",
          "type": "address"
        },
        {
          "indexed": false,
          "internalType": "uint256",
          "name": "value",
          "type": "uint256"
        }
      ],
      "name": "Approval",
      "type": "event"
    },
    {
      "anonymous": false,
      "inputs": [
        {
          "indexed": true,
          "internalType": "address",
          "name": "beacon",
          "type": "address"
        }
      ],
      "name": "BeaconUpgraded",
      "type": "event"
    },
    {
      "anonymous": false,
      "inputs": [
        {
          "indexed": false,
          "internalType": "uint8",
          "name": "version",
          "type": "uint8"
        }
      ],
      "name": "Initialized",
      "type": "event"
    },
    {
      "anonymous": false,
      "inputs": [
        {
          "indexed": false,
          "internalType": "address",
          "name": "talent",
          "type": "address"
        },
        {
          "indexed": false,
          "internalType": "address",
          "name": "proposedTalent",
          "type": "address"
        }
      ],
      "name": "OwnershipTransferred",
      "type": "event"
    },
    {
      "anonymous": false,
      "inputs": [
        {
          "indexed": true,
          "internalType": "bytes32",
          "name": "role",
          "type": "bytes32"
        },
        {
          "indexed": true,
          "internalType": "bytes32",
          "name": "previousAdminRole",
          "type": "bytes32"
        },
        {
          "indexed": true,
          "internalType": "bytes32",
          "name": "newAdminRole",
          "type": "bytes32"
        }
      ],
      "name": "RoleAdminChanged",
      "type": "event"
    },
    {
      "anonymous": false,
      "inputs": [
        {
          "indexed": true,
          "internalType": "bytes32",
          "name": "role",
          "type": "bytes32"
        },
        {
          "indexed": true,
          "internalType": "address",
          "name": "account",
          "type": "address"
        },
        {
          "indexed": true,
          "internalType": "address",
          "name": "sender",
          "type": "address"
        }
      ],
      "name": "RoleGranted",
      "type": "event"
    },
    {
      "anonymous": false,
      "inputs": [
        {
          "indexed": true,
          "internalType": "bytes32",
          "name": "role",
          "type": "bytes32"
        },
        {
          "indexed": true,
          "internalType": "address",
          "name": "account",
          "type": "address"
        },
        {
          "indexed": true,
          "internalType": "address",
          "name": "sender",
          "type": "address"
        }
      ],
      "name": "RoleRevoked",
      "type": "event"
    },
    {
      "anonymous": false,
      "inputs": [
        {
          "indexed": true,
          "internalType": "address",
          "name": "from",
          "type": "address"
        },
        {
          "indexed": true,
          "internalType": "address",
          "name": "to",
          "type": "address"
        },
        {
          "indexed": false,
          "internalType": "uint256",
          "name": "value",
          "type": "uint256"
        }
      ],
      "name": "Transfer",
      "type": "event"
    },
    {
      "anonymous": false,
      "inputs": [
        {
          "indexed": true,
          "internalType": "address",
          "name": "implementation",
          "type": "address"
        }
      ],
      "name": "Upgraded",
      "type": "event"
    },
    {
      "inputs": [],
      "name": "DEFAULT_ADMIN_ROLE",
      "outputs": [
        {
          "internalType": "bytes32",
          "name": "",
          "type": "bytes32"
        }
      ],
      "stateMutability": "view",
      "type": "function"
    },
    {
      "inputs": [],
      "name": "MAX_SUPPLY",
      "outputs": [
        {
          "internalType": "uint256",
          "name": "",
          "type": "uint256"
        }
      ],
      "stateMutability": "view",
      "type": "function"
    },
    {
      "inputs": [],
      "name": "ROLE_MINTER",
      "outputs": [
        {
          "internalType": "bytes32",
          "name": "",
          "type": "bytes32"
        }
      ],
      "stateMutability": "view",
      "type": "function"
    },
    {
      "inputs": [],
      "name": "ROLE_TALENT",
      "outputs": [
        {
          "internalType": "bytes32",
          "name": "",
          "type": "bytes32"
        }
      ],
      "stateMutability": "view",
      "type": "function"
    },
    {
      "inputs": [
        {
          "internalType": "address",
          "name": "_newMinter",
          "type": "address"
        }
      ],
      "name": "addNewMinter",
      "outputs": [],
      "stateMutability": "nonpayable",
      "type": "function"
    },
    {
      "inputs": [
        {
          "internalType": "address",
          "name": "owner",
          "type": "address"
        },
        {
          "internalType": "address",
          "name": "spender",
          "type": "address"
        }
      ],
      "name": "allowance",
      "outputs": [
        {
          "internalType": "uint256",
          "name": "",
          "type": "uint256"
        }
      ],
      "stateMutability": "view",
      "type": "function"
    },
    {
      "inputs": [
        {
          "internalType": "address",
          "name": "spender",
          "type": "address"
        },
        {
          "internalType": "uint256",
          "name": "amount",
          "type": "uint256"
        }
      ],
      "name": "approve",
      "outputs": [
        {
          "internalType": "bool",
          "name": "",
          "type": "bool"
        }
      ],
      "stateMutability": "nonpayable",
      "type": "function"
    },
    {
      "inputs": [
        {
          "internalType": "address",
          "name": "spender",
          "type": "address"
        },
        {
          "internalType": "uint256",
          "name": "amount",
          "type": "uint256"
        }
      ],
      "name": "approveAndCall",
      "outputs": [
        {
          "internalType": "bool",
          "name": "",
          "type": "bool"
        }
      ],
      "stateMutability": "nonpayable",
      "type": "function"
    },
    {
      "inputs": [
        {
          "internalType": "address",
          "name": "spender",
          "type": "address"
        },
        {
          "internalType": "uint256",
          "name": "amount",
          "type": "uint256"
        },
        {
          "internalType": "bytes",
          "name": "data",
          "type": "bytes"
        }
      ],
      "name": "approveAndCall",
      "outputs": [
        {
          "internalType": "bool",
          "name": "",
          "type": "bool"
        }
      ],
      "stateMutability": "nonpayable",
      "type": "function"
    },
    {
      "inputs": [
        {
          "internalType": "address",
          "name": "account",
          "type": "address"
        }
      ],
      "name": "balanceOf",
      "outputs": [
        {
          "internalType": "uint256",
          "name": "",
          "type": "uint256"
        }
      ],
      "stateMutability": "view",
      "type": "function"
    },
    {
      "inputs": [
        {
          "internalType": "address",
          "name": "_from",
          "type": "address"
        },
        {
          "internalType": "uint256",
          "name": "_amount",
          "type": "uint256"
        }
      ],
      "name": "burn",
      "outputs": [],
      "stateMutability": "nonpayable",
      "type": "function"
    },
    {
      "inputs": [],
      "name": "claimTalentOwnership",
      "outputs": [],
      "stateMutability": "nonpayable",
      "type": "function"
    },
    {
      "inputs": [],
      "name": "decimals",
      "outputs": [
        {
          "internalType": "uint8",
          "name": "",
          "type": "uint8"
        }
      ],
      "stateMutability": "view",
      "type": "function"
    },
    {
      "inputs": [
        {
          "internalType": "address",
          "name": "spender",
          "type": "address"
        },
        {
          "internalType": "uint256",
          "name": "subtractedValue",
          "type": "uint256"
        }
      ],
      "name": "decreaseAllowance",
      "outputs": [
        {
          "internalType": "bool",
          "name": "",
          "type": "bool"
        }
      ],
      "stateMutability": "nonpayable",
      "type": "function"
    },
    {
      "inputs": [],
      "name": "factory",
      "outputs": [
        {
          "internalType": "address",
          "name": "",
          "type": "address"
        }
      ],
      "stateMutability": "view",
      "type": "function"
    },
    {
      "inputs": [
        {
          "internalType": "bytes32",
          "name": "role",
          "type": "bytes32"
        }
      ],
      "name": "getRoleAdmin",
      "outputs": [
        {
          "internalType": "bytes32",
          "name": "",
          "type": "bytes32"
        }
      ],
      "stateMutability": "view",
      "type": "function"
    },
    {
      "inputs": [
        {
          "internalType": "bytes32",
          "name": "role",
          "type": "bytes32"
        },
        {
          "internalType": "address",
          "name": "account",
          "type": "address"
        }
      ],
      "name": "grantRole",
      "outputs": [],
      "stateMutability": "nonpayable",
      "type": "function"
    },
    {
      "inputs": [
        {
          "internalType": "bytes32",
          "name": "role",
          "type": "bytes32"
        },
        {
          "internalType": "address",
          "name": "account",
          "type": "address"
        }
      ],
      "name": "hasRole",
      "outputs": [
        {
          "internalType": "bool",
          "name": "",
          "type": "bool"
        }
      ],
      "stateMutability": "view",
      "type": "function"
    },
    {
      "inputs": [
        {
          "internalType": "address",
          "name": "spender",
          "type": "address"
        },
        {
          "internalType": "uint256",
          "name": "addedValue",
          "type": "uint256"
        }
      ],
      "name": "increaseAllowance",
      "outputs": [
        {
          "internalType": "bool",
          "name": "",
          "type": "bool"
        }
      ],
      "stateMutability": "nonpayable",
      "type": "function"
    },
    {
      "inputs": [
        {
          "internalType": "string",
          "name": "_name",
          "type": "string"
        },
        {
          "internalType": "string",
          "name": "_symbol",
          "type": "string"
        },
        {
          "internalType": "uint256",
          "name": "_initialSupply",
          "type": "uint256"
        },
        {
          "internalType": "address",
          "name": "_talent",
          "type": "address"
        },
        {
          "internalType": "address",
          "name": "_minter",
          "type": "address"
        },
        {
          "internalType": "address",
          "name": "_admin",
          "type": "address"
        }
      ],
      "name": "initialize",
      "outputs": [],
      "stateMutability": "nonpayable",
      "type": "function"
    },
    {
      "inputs": [
        {
          "internalType": "address",
          "name": "_to",
          "type": "address"
        },
        {
          "internalType": "uint256",
          "name": "_amount",
          "type": "uint256"
        }
      ],
      "name": "mint",
      "outputs": [],
      "stateMutability": "nonpayable",
      "type": "function"
    },
    {
      "inputs": [],
      "name": "mintingAvailability",
      "outputs": [
        {
          "internalType": "uint256",
          "name": "",
          "type": "uint256"
        }
      ],
      "stateMutability": "view",
      "type": "function"
    },
    {
      "inputs": [],
      "name": "mintingFinishedAt",
      "outputs": [
        {
          "internalType": "uint256",
          "name": "",
          "type": "uint256"
        }
      ],
      "stateMutability": "view",
      "type": "function"
    },
    {
      "inputs": [],
      "name": "name",
      "outputs": [
        {
          "internalType": "string",
          "name": "",
          "type": "string"
        }
      ],
      "stateMutability": "view",
      "type": "function"
    },
    {
      "inputs": [
        {
          "internalType": "address",
          "name": "_proposedTalent",
          "type": "address"
        }
      ],
      "name": "proposeTalent",
      "outputs": [],
      "stateMutability": "nonpayable",
      "type": "function"
    },
    {
      "inputs": [],
      "name": "proposedTalent",
      "outputs": [
        {
          "internalType": "address",
          "name": "",
          "type": "address"
        }
      ],
      "stateMutability": "view",
      "type": "function"
    },
    {
      "inputs": [],
      "name": "proxiableUUID",
      "outputs": [
        {
          "internalType": "bytes32",
          "name": "",
          "type": "bytes32"
        }
      ],
      "stateMutability": "view",
      "type": "function"
    },
    {
      "inputs": [
        {
          "internalType": "address",
          "name": "_oldMinter",
          "type": "address"
        }
      ],
      "name": "removeMinter",
      "outputs": [],
      "stateMutability": "nonpayable",
      "type": "function"
    },
    {
      "inputs": [
        {
          "internalType": "bytes32",
          "name": "role",
          "type": "bytes32"
        },
        {
          "internalType": "address",
          "name": "account",
          "type": "address"
        }
      ],
      "name": "renounceRole",
      "outputs": [],
      "stateMutability": "nonpayable",
      "type": "function"
    },
    {
      "inputs": [
        {
          "internalType": "bytes32",
          "name": "role",
          "type": "bytes32"
        },
        {
          "internalType": "address",
          "name": "account",
          "type": "address"
        }
      ],
      "name": "revokeRole",
      "outputs": [],
      "stateMutability": "nonpayable",
      "type": "function"
    },
    {
      "inputs": [
        {
          "internalType": "address",
          "name": "_newFactory",
          "type": "address"
        }
      ],
      "name": "setFactory",
      "outputs": [],
      "stateMutability": "nonpayable",
      "type": "function"
    },
    {
      "inputs": [
        {
          "internalType": "bytes4",
          "name": "interfaceId",
          "type": "bytes4"
        }
      ],
      "name": "supportsInterface",
      "outputs": [
        {
          "internalType": "bool",
          "name": "",
          "type": "bool"
        }
      ],
      "stateMutability": "view",
      "type": "function"
    },
    {
      "inputs": [],
      "name": "symbol",
      "outputs": [
        {
          "internalType": "string",
          "name": "",
          "type": "string"
        }
      ],
      "stateMutability": "view",
      "type": "function"
    },
    {
      "inputs": [],
      "name": "talent",
      "outputs": [
        {
          "internalType": "address",
          "name": "",
          "type": "address"
        }
      ],
      "stateMutability": "view",
      "type": "function"
    },
    {
      "inputs": [],
      "name": "totalSupply",
      "outputs": [
        {
          "internalType": "uint256",
          "name": "",
          "type": "uint256"
        }
      ],
      "stateMutability": "view",
      "type": "function"
    },
    {
      "inputs": [
        {
          "internalType": "address",
          "name": "to",
          "type": "address"
        },
        {
          "internalType": "uint256",
          "name": "amount",
          "type": "uint256"
        }
      ],
      "name": "transfer",
      "outputs": [
        {
          "internalType": "bool",
          "name": "",
          "type": "bool"
        }
      ],
      "stateMutability": "nonpayable",
      "type": "function"
    },
    {
      "inputs": [
        {
          "internalType": "address",
          "name": "recipient",
          "type": "address"
        },
        {
          "internalType": "uint256",
          "name": "amount",
          "type": "uint256"
        }
      ],
      "name": "transferAndCall",
      "outputs": [
        {
          "internalType": "bool",
          "name": "",
          "type": "bool"
        }
      ],
      "stateMutability": "nonpayable",
      "type": "function"
    },
    {
      "inputs": [
        {
          "internalType": "address",
          "name": "recipient",
          "type": "address"
        },
        {
          "internalType": "uint256",
          "name": "amount",
          "type": "uint256"
        },
        {
          "internalType": "bytes",
          "name": "data",
          "type": "bytes"
        }
      ],
      "name": "transferAndCall",
      "outputs": [
        {
          "internalType": "bool",
          "name": "",
          "type": "bool"
        }
      ],
      "stateMutability": "nonpayable",
      "type": "function"
    },
    {
      "inputs": [
        {
          "internalType": "address",
          "name": "from",
          "type": "address"
        },
        {
          "internalType": "address",
          "name": "to",
          "type": "address"
        },
        {
          "internalType": "uint256",
          "name": "amount",
          "type": "uint256"
        }
      ],
      "name": "transferFrom",
      "outputs": [
        {
          "internalType": "bool",
          "name": "",
          "type": "bool"
        }
      ],
      "stateMutability": "nonpayable",
      "type": "function"
    },
    {
      "inputs": [
        {
          "internalType": "address",
          "name": "sender",
          "type": "address"
        },
        {
          "internalType": "address",
          "name": "recipient",
          "type": "address"
        },
        {
          "internalType": "uint256",
          "name": "amount",
          "type": "uint256"
        },
        {
          "internalType": "bytes",
          "name": "data",
          "type": "bytes"
        }
      ],
      "name": "transferFromAndCall",
      "outputs": [
        {
          "internalType": "bool",
          "name": "",
          "type": "bool"
        }
      ],
      "stateMutability": "nonpayable",
      "type": "function"
    },
    {
      "inputs": [
        {
          "internalType": "address",
          "name": "sender",
          "type": "address"
        },
        {
          "internalType": "address",
          "name": "recipient",
          "type": "address"
        },
        {
          "internalType": "uint256",
          "name": "amount",
          "type": "uint256"
        }
      ],
      "name": "transferFromAndCall",
      "outputs": [
        {
          "internalType": "bool",
          "name": "",
          "type": "bool"
        }
      ],
      "stateMutability": "nonpayable",
      "type": "function"
    },
    {
      "inputs": [
        {
          "internalType": "address",
          "name": "newImplementation",
          "type": "address"
        }
      ],
      "name": "upgradeTo",
      "outputs": [],
      "stateMutability": "nonpayable",
      "type": "function"
    },
    {
      "inputs": [
        {
          "internalType": "address",
          "name": "newImplementation",
          "type": "address"
        },
        {
          "internalType": "bytes",
          "name": "data",
          "type": "bytes"
        }
      ],
      "name": "upgradeToAndCall",
      "outputs": [],
      "stateMutability": "payable",
      "type": "function"
    },
    {
      "inputs": [],
      "name": "version",
      "outputs": [
        {
          "internalType": "uint256",
          "name": "",
          "type": "uint256"
        }
      ],
      "stateMutability": "pure",
      "type": "function"
    }
  ],
  "bytecode": "0x60a06040523060805234801561001457600080fd5b5060805161323761004c60003960008181610b3d01528181610bc201528181610e0f01528181610e940152610f7a01526132376000f3fe6080604052600436106102e75760003560e01c80635bb4780811610184578063aafa9371116100d6578063d547741f1161008a578063e05162c911610064578063e05162c914610882578063f6e04edc146108a2578063fcd38b02146108b757600080fd5b8063d547741f146107fc578063d8fbe9941461081c578063dd62ed3e1461083c57600080fd5b8063c45a0155116100bb578063c45a015514610784578063c4daa593146107bc578063cae9ca51146107dc57600080fd5b8063aafa93711461074e578063c1d34b891461076457600080fd5b806392afc33a11610138578063a217fddf11610112578063a217fddf146106f9578063a457c2d71461070e578063a9059cbb1461072e57600080fd5b806392afc33a1461069057806395d89b41146106c45780639dc29fac146106d957600080fd5b806370a082311161016957806370a08231146105e05780637a12083a1461061657806391d148541461064a57600080fd5b80635bb47808146105a05780636ef7626c146105c057600080fd5b806332cb6b0c1161023d5780634000aea0116101f157806352d1902d116101cb57806352d1902d1461055757806354fd4d501461056c57806357b81b871461058057600080fd5b80634000aea01461050457806340c10f19146105245780634f1ef2861461054457600080fd5b80633659cfe6116102225780633659cfe6146104ae57806339509351146104ce5780633e0075a1146104ee57600080fd5b806332cb6b0c1461047057806336568abe1461048e57600080fd5b806323b872dd1161029f5780633092afd5116102795780633092afd514610414578063313ce567146104345780633177029f1461045057600080fd5b806323b872dd146103a2578063248a9ca3146103c25780632f2ff15d146103f257600080fd5b8063095ea7b3116102d0578063095ea7b3146103435780631296ee621461036357806318160ddd1461038357600080fd5b806301ffc9a7146102ec57806306fdde0314610321575b600080fd5b3480156102f857600080fd5b5061030c610307366004612b02565b6108d7565b60405190151581526020015b60405180910390f35b34801561032d57600080fd5b50610336610936565b6040516103189190612b6f565b34801561034f57600080fd5b5061030c61035e366004612b9e565b6109c8565b34801561036f57600080fd5b5061030c61037e366004612b9e565b6109e0565b34801561038f57600080fd5b506099545b604051908152602001610318565b3480156103ae57600080fd5b5061030c6103bd366004612bc8565b610a03565b3480156103ce57600080fd5b506103946103dd366004612c04565b60009081526065602052604090206001015490565b3480156103fe57600080fd5b5061041261040d366004612c1d565b610a27565b005b34801561042057600080fd5b5061041261042f366004612c49565b610a51565b34801561044057600080fd5b5060405160128152602001610318565b34801561045c57600080fd5b5061030c61046b366004612b9e565b610a8a565b34801561047c57600080fd5b5061039469d3c21bcecceda100000081565b34801561049a57600080fd5b506104126104a9366004612c1d565b610aa6565b3480156104ba57600080fd5b506104126104c9366004612c49565b610b33565b3480156104da57600080fd5b5061030c6104e9366004612b9e565b610cae565b3480156104fa57600080fd5b5061039460fb5481565b34801561051057600080fd5b5061030c61051f366004612d07565b610ced565b34801561053057600080fd5b5061041261053f366004612b9e565b610d60565b610412610552366004612d5e565b610e05565b34801561056357600080fd5b50610394610f6d565b34801561057857600080fd5b506003610394565b34801561058c57600080fd5b5061041261059b366004612c49565b611032565b3480156105ac57600080fd5b506104126105bb366004612c49565b611067565b3480156105cc57600080fd5b506104126105db366004612dac565b611095565b3480156105ec57600080fd5b506103946105fb366004612c49565b6001600160a01b031660009081526097602052604090205490565b34801561062257600080fd5b506103947f8fad061cdace53638a92e8940b81545ab8169bcf17f044b6ab490075da827c9481565b34801561065657600080fd5b5061030c610665366004612c1d565b60009182526065602090815260408084206001600160a01b0393909316845291905290205460ff1690565b34801561069c57600080fd5b506103947ff0887ba65ee2024ea881d91b74c2450ef19e1557f03bed3ea9f16b037cbe2dc981565b3480156106d057600080fd5b506103366111d4565b3480156106e557600080fd5b506104126106f4366004612b9e565b6111e3565b34801561070557600080fd5b50610394600081565b34801561071a57600080fd5b5061030c610729366004612b9e565b611231565b34801561073a57600080fd5b5061030c610749366004612b9e565b6112db565b34801561075a57600080fd5b5061039460fa5481565b34801561077057600080fd5b5061030c61077f366004612e4a565b6112e9565b34801561079057600080fd5b5060fe546107a4906001600160a01b031681565b6040516001600160a01b039091168152602001610318565b3480156107c857600080fd5b5060fc546107a4906001600160a01b031681565b3480156107e857600080fd5b5061030c6107f7366004612d07565b611365565b34801561080857600080fd5b50610412610817366004612c1d565b6113ee565b34801561082857600080fd5b5061030c610837366004612bc8565b611413565b34801561084857600080fd5b50610394610857366004612eb2565b6001600160a01b03918216600090815260986020908152604080832093909416825291909152205490565b34801561088e57600080fd5b5061041261089d366004612c49565b611430565b3480156108ae57600080fd5b506104126114d5565b3480156108c357600080fd5b5060fd546107a4906001600160a01b031681565b60006001600160e01b031982167f36372b0700000000000000000000000000000000000000000000000000000000148061092157506001600160e01b0319821663b0202a1160e01b145b80610930575061093082611694565b92915050565b6060609a805461094590612edc565b80601f016020809104026020016040519081016040528092919081815260200182805461097190612edc565b80156109be5780601f10610993576101008083540402835291602001916109be565b820191906000526020600020905b8154815290600101906020018083116109a157829003601f168201915b5050505050905090565b6000336109d68185856116b9565b5060019392505050565b60006109fc838360405180602001604052806000815250610ced565b9392505050565b600033610a11858285611811565b610a1c8585856118a3565b506001949350505050565b600082815260656020526040902060010154610a4281611a97565b610a4c8383611aa1565b505050565b6000610a5c81611a97565b610a867ff0887ba65ee2024ea881d91b74c2450ef19e1557f03bed3ea9f16b037cbe2dc9836113ee565b5050565b60006109fc838360405180602001604052806000815250611365565b6001600160a01b0381163314610b295760405162461bcd60e51b815260206004820152602f60248201527f416363657373436f6e74726f6c3a2063616e206f6e6c792072656e6f756e636560448201527f20726f6c657320666f722073656c66000000000000000000000000000000000060648201526084015b60405180910390fd5b610a868282611b43565b6001600160a01b037f0000000000000000000000000000000000000000000000000000000000000000163003610bc05760405162461bcd60e51b815260206004820152602c60248201527f46756e6374696f6e206d7573742062652063616c6c6564207468726f7567682060448201526b19195b1959d85d1958d85b1b60a21b6064820152608401610b20565b7f00000000000000000000000000000000000000000000000000000000000000006001600160a01b0316610c1b7f360894a13ba1a3210667c828492db98dca3e2076cc3735a920a3ca505d382bbc546001600160a01b031690565b6001600160a01b031614610c865760405162461bcd60e51b815260206004820152602c60248201527f46756e6374696f6e206d7573742062652063616c6c6564207468726f7567682060448201526b6163746976652070726f787960a01b6064820152608401610b20565b610c8f81611bc6565b60408051600080825260208201909252610cab91839190611bd1565b50565b3360008181526098602090815260408083206001600160a01b03871684529091528120549091906109d69082908690610ce8908790612f2c565b6116b9565b6000610cf984846112db565b50610d0633858585611d71565b6109d65760405162461bcd60e51b815260206004820152602560248201527f455243313336333a2072656365697665722072657475726e65642077726f6e67604482015264206461746160d81b6064820152608401610b20565b7ff0887ba65ee2024ea881d91b74c2450ef19e1557f03bed3ea9f16b037cbe2dc9610d8a81611a97565b8160fa541015610ddc5760405162461bcd60e51b815260206004820152601f60248201527f6e6f7420656e6f756768206d696e74696e6720617661696c6162696c697479006044820152606401610b20565b8160fa54610dea9190612f3f565b60fa819055600003610dfb574260fb555b610a4c8383611f2a565b6001600160a01b037f0000000000000000000000000000000000000000000000000000000000000000163003610e925760405162461bcd60e51b815260206004820152602c60248201527f46756e6374696f6e206d7573742062652063616c6c6564207468726f7567682060448201526b19195b1959d85d1958d85b1b60a21b6064820152608401610b20565b7f00000000000000000000000000000000000000000000000000000000000000006001600160a01b0316610eed7f360894a13ba1a3210667c828492db98dca3e2076cc3735a920a3ca505d382bbc546001600160a01b031690565b6001600160a01b031614610f585760405162461bcd60e51b815260206004820152602c60248201527f46756e6374696f6e206d7573742062652063616c6c6564207468726f7567682060448201526b6163746976652070726f787960a01b6064820152608401610b20565b610f6182611bc6565b610a8682826001611bd1565b6000306001600160a01b037f0000000000000000000000000000000000000000000000000000000000000000161461100d5760405162461bcd60e51b815260206004820152603860248201527f555550535570677261646561626c653a206d757374206e6f742062652063616c60448201527f6c6564207468726f7567682064656c656761746563616c6c00000000000000006064820152608401610b20565b507f360894a13ba1a3210667c828492db98dca3e2076cc3735a920a3ca505d382bbc90565b600061103d81611a97565b610a867ff0887ba65ee2024ea881d91b74c2450ef19e1557f03bed3ea9f16b037cbe2dc983610a27565b600061107281611a97565b5060fe80546001600160a01b0319166001600160a01b0392909216919091179055565b600054610100900460ff16158080156110b55750600054600160ff909116105b806110cf5750303b1580156110cf575060005460ff166001145b6111415760405162461bcd60e51b815260206004820152602e60248201527f496e697469616c697a61626c653a20636f6e747261637420697320616c72656160448201527f647920696e697469616c697a65640000000000000000000000000000000000006064820152608401610b20565b6000805460ff191660011790558015611164576000805461ff0019166101001790555b611172878787878787611feb565b60fe80546001600160a01b0319163317905580156111cb576000805461ff0019169055604051600181527f7f26b83ff96e1f2b6a682f133852f6798a09c465da95921460cefb3847402498906020015b60405180910390a15b50505050505050565b6060609b805461094590612edc565b7ff0887ba65ee2024ea881d91b74c2450ef19e1557f03bed3ea9f16b037cbe2dc961120d81611a97565b60fa5415611227578160fa546112239190612f2c565b60fa555b610a4c83836121b9565b3360008181526098602090815260408083206001600160a01b0387168452909152812054909190838110156112ce5760405162461bcd60e51b815260206004820152602560248201527f45524332303a2064656372656173656420616c6c6f77616e63652062656c6f7760448201527f207a65726f0000000000000000000000000000000000000000000000000000006064820152608401610b20565b610a1c82868684036116b9565b6000336109d68185856118a3565b60006112f6858585610a03565b5061130385858585611d71565b610a1c5760405162461bcd60e51b815260206004820152602560248201527f455243313336333a2072656365697665722072657475726e65642077726f6e67604482015264206461746160d81b6064820152608401610b20565b949350505050565b600061137184846109c8565b5061137d848484612324565b6109d65760405162461bcd60e51b8152602060048201526024808201527f455243313336333a207370656e6465722072657475726e65642077726f6e672060448201527f64617461000000000000000000000000000000000000000000000000000000006064820152608401610b20565b60008281526065602052604090206001015461140981611a97565b610a4c8383611b43565b600061135d848484604051806020016040528060008152506112e9565b7f8fad061cdace53638a92e8940b81545ab8169bcf17f044b6ab490075da827c9461145a81611a97565b6001600160a01b03821633036114b25760405162461bcd60e51b815260206004820152601b60248201527f74616c656e7420697320616c726561647920746865206f776e657200000000006044820152606401610b20565b5060fd80546001600160a01b0319166001600160a01b0392909216919091179055565b60fd546001600160a01b0316331461152f5760405162461bcd60e51b815260206004820152601c60248201527f74616c656e74206973206e6f742070726f706f736564206f776e6572000000006044820152606401610b20565b60fe5460fc5460fd546040517f8611fc5c0000000000000000000000000000000000000000000000000000000081526001600160a01b0392831660048201529082166024820152911690638611fc5c90604401600060405180830381600087803b15801561159c57600080fd5b505af11580156115b0573d6000803e3d6000fd5b505060fd546115eb92507f8fad061cdace53638a92e8940b81545ab8169bcf17f044b6ab490075da827c9491506001600160a01b0316611aa1565b60fc54611622907f8fad061cdace53638a92e8940b81545ab8169bcf17f044b6ab490075da827c94906001600160a01b0316611b43565b60fc5460fd54604080516001600160a01b0393841681529290911660208301527f8be0079c531659141344cd1fd0a4f28419497f9722a3daafe3b4186f6b6457e0910160405180910390a160fd805460fc80546001600160a01b03199081166001600160a01b03841617909155169055565b60006001600160e01b0319821663b0202a1160e01b14806109305750610930826124d3565b6001600160a01b0383166117345760405162461bcd60e51b8152602060048201526024808201527f45524332303a20617070726f76652066726f6d20746865207a65726f2061646460448201527f72657373000000000000000000000000000000000000000000000000000000006064820152608401610b20565b6001600160a01b0382166117b05760405162461bcd60e51b815260206004820152602260248201527f45524332303a20617070726f766520746f20746865207a65726f20616464726560448201527f73730000000000000000000000000000000000000000000000000000000000006064820152608401610b20565b6001600160a01b0383811660008181526098602090815260408083209487168084529482529182902085905590518481527f8c5be1e5ebec7d5bd14f71427d1e84f3dd0314c0f7b2291e5b200ac8c7c3b925910160405180910390a3505050565b6001600160a01b03838116600090815260986020908152604080832093861683529290522054600019811461189d57818110156118905760405162461bcd60e51b815260206004820152601d60248201527f45524332303a20696e73756666696369656e7420616c6c6f77616e63650000006044820152606401610b20565b61189d84848484036116b9565b50505050565b6001600160a01b03831661191f5760405162461bcd60e51b815260206004820152602560248201527f45524332303a207472616e736665722066726f6d20746865207a65726f20616460448201527f64726573730000000000000000000000000000000000000000000000000000006064820152608401610b20565b6001600160a01b03821661199b5760405162461bcd60e51b815260206004820152602360248201527f45524332303a207472616e7366657220746f20746865207a65726f206164647260448201527f65737300000000000000000000000000000000000000000000000000000000006064820152608401610b20565b6001600160a01b03831660009081526097602052604090205481811015611a2a5760405162461bcd60e51b815260206004820152602660248201527f45524332303a207472616e7366657220616d6f756e742065786365656473206260448201527f616c616e636500000000000000000000000000000000000000000000000000006064820152608401610b20565b6001600160a01b0380851660008181526097602052604080822086860390559286168082529083902080548601905591517fddf252ad1be2c89b69c2b068fc378daa952ba7f163c4a11628f55a4df523b3ef90611a8a9086815260200190565b60405180910390a361189d565b610cab813361253a565b60008281526065602090815260408083206001600160a01b038516845290915290205460ff16610a865760008281526065602090815260408083206001600160a01b03851684529091529020805460ff19166001179055611aff3390565b6001600160a01b0316816001600160a01b0316837f2f8788117e7eff1d82e926ec794901d17c78024a50270940304540a733656f0d60405160405180910390a45050565b60008281526065602090815260408083206001600160a01b038516845290915290205460ff1615610a865760008281526065602090815260408083206001600160a01b0385168085529252808320805460ff1916905551339285917ff6391f5c32d9c69d2a47ea670b442974b53935d1edc7fd64eb21e047a839171b9190a45050565b6000610a8681611a97565b7f4910fdfa16fed3260ed0e7147f7cc6da11a60208b5b9406d12a635614ffd91435460ff1615611c0457610a4c836125af565b826001600160a01b03166352d1902d6040518163ffffffff1660e01b8152600401602060405180830381865afa925050508015611c5e575060408051601f3d908101601f19168201909252611c5b91810190612f52565b60015b611cd05760405162461bcd60e51b815260206004820152602e60248201527f45524331393637557067726164653a206e657720696d706c656d656e7461746960448201527f6f6e206973206e6f7420555550530000000000000000000000000000000000006064820152608401610b20565b7f360894a13ba1a3210667c828492db98dca3e2076cc3735a920a3ca505d382bbc8114611d655760405162461bcd60e51b815260206004820152602960248201527f45524331393637557067726164653a20756e737570706f727465642070726f7860448201527f6961626c655555494400000000000000000000000000000000000000000000006064820152608401610b20565b50610a4c83838361266d565b60006001600160a01b0384163b611df05760405162461bcd60e51b815260206004820152602960248201527f455243313336333a207472616e7366657220746f206e6f6e20636f6e7472616360448201527f74206164647265737300000000000000000000000000000000000000000000006064820152608401610b20565b604051632229f29760e21b81526001600160a01b038516906388a7ca5c90611e22903390899088908890600401612f6b565b6020604051808303816000875af1925050508015611e5d575060408051601f3d908101601f19168201909252611e5a91810190612f9d565b60015b611f10573d808015611e8b576040519150601f19603f3d011682016040523d82523d6000602084013e611e90565b606091505b508051600003611f085760405162461bcd60e51b815260206004820152603460248201527f455243313336333a207472616e7366657220746f206e6f6e204552433133363360448201527f526563656976657220696d706c656d656e7465720000000000000000000000006064820152608401610b20565b805181602001fd5b6001600160e01b031916632229f29760e21b14905061135d565b6001600160a01b038216611f805760405162461bcd60e51b815260206004820152601f60248201527f45524332303a206d696e7420746f20746865207a65726f2061646472657373006044820152606401610b20565b8060996000828254611f929190612f2c565b90915550506001600160a01b0382166000818152609760209081526040808320805486019055518481527fddf252ad1be2c89b69c2b068fc378daa952ba7f163c4a11628f55a4df523b3ef910160405180910390a35050565b600054610100900460ff161580801561200b5750600054600160ff909116105b806120255750303b158015612025575060005460ff166001145b6120975760405162461bcd60e51b815260206004820152602e60248201527f496e697469616c697a61626c653a20636f6e747261637420697320616c72656160448201527f647920696e697469616c697a65640000000000000000000000000000000000006064820152608401610b20565b6000805460ff1916600117905580156120ba576000805461ff0019166101001790555b6120c2612692565b6120ca612692565b6120d487876126ff565b6120dc612692565b60fc80546001600160a01b0319166001600160a01b038616179055612102600083611aa1565b61212c7f8fad061cdace53638a92e8940b81545ab8169bcf17f044b6ab490075da827c9485611aa1565b6121567ff0887ba65ee2024ea881d91b74c2450ef19e1557f03bed3ea9f16b037cbe2dc984611aa1565b6121608486611f2a565b6121748569d3c21bcecceda1000000612f3f565b60fa5580156111cb576000805461ff0019169055604051600181527f7f26b83ff96e1f2b6a682f133852f6798a09c465da95921460cefb3847402498906020016111c2565b6001600160a01b0382166122355760405162461bcd60e51b815260206004820152602160248201527f45524332303a206275726e2066726f6d20746865207a65726f2061646472657360448201527f73000000000000000000000000000000000000000000000000000000000000006064820152608401610b20565b6001600160a01b038216600090815260976020526040902054818110156122c45760405162461bcd60e51b815260206004820152602260248201527f45524332303a206275726e20616d6f756e7420657863656564732062616c616e60448201527f63650000000000000000000000000000000000000000000000000000000000006064820152608401610b20565b6001600160a01b03831660008181526097602090815260408083208686039055609980548790039055518581529192917fddf252ad1be2c89b69c2b068fc378daa952ba7f163c4a11628f55a4df523b3ef910160405180910390a3505050565b60006001600160a01b0384163b6123a35760405162461bcd60e51b815260206004820152602760248201527f455243313336333a20617070726f76652061206e6f6e20636f6e74726163742060448201527f61646472657373000000000000000000000000000000000000000000000000006064820152608401610b20565b6040516307b04a2d60e41b81526001600160a01b03851690637b04a2d0906123d390339087908790600401612fba565b6020604051808303816000875af192505050801561240e575060408051601f3d908101601f1916820190925261240b91810190612f9d565b60015b6124b9573d80801561243c576040519150601f19603f3d011682016040523d82523d6000602084013e612441565b606091505b508051600003611f085760405162461bcd60e51b815260206004820152603160248201527f455243313336333a20617070726f76652061206e6f6e2045524331333633537060448201527f656e64657220696d706c656d656e7465720000000000000000000000000000006064820152608401610b20565b6001600160e01b0319166307b04a2d60e41b1490506109fc565b60006001600160e01b031982167f7965db0b00000000000000000000000000000000000000000000000000000000148061093057507f01ffc9a7000000000000000000000000000000000000000000000000000000006001600160e01b0319831614610930565b60008281526065602090815260408083206001600160a01b038516845290915290205460ff16610a865761256d81612783565b612578836020612795565b604051602001612589929190612feb565b60408051601f198184030181529082905262461bcd60e51b8252610b2091600401612b6f565b6001600160a01b0381163b61262c5760405162461bcd60e51b815260206004820152602d60248201527f455243313936373a206e657720696d706c656d656e746174696f6e206973206e60448201527f6f74206120636f6e7472616374000000000000000000000000000000000000006064820152608401610b20565b7f360894a13ba1a3210667c828492db98dca3e2076cc3735a920a3ca505d382bbc80546001600160a01b0319166001600160a01b0392909216919091179055565b61267683612976565b6000825111806126835750805b15610a4c5761189d83836129b6565b600054610100900460ff166126fd5760405162461bcd60e51b815260206004820152602b60248201527f496e697469616c697a61626c653a20636f6e7472616374206973206e6f74206960448201526a6e697469616c697a696e6760a81b6064820152608401610b20565b565b600054610100900460ff1661276a5760405162461bcd60e51b815260206004820152602b60248201527f496e697469616c697a61626c653a20636f6e7472616374206973206e6f74206960448201526a6e697469616c697a696e6760a81b6064820152608401610b20565b609a61277683826130ba565b50609b610a4c82826130ba565b60606109306001600160a01b03831660145b606060006127a483600261317a565b6127af906002612f2c565b67ffffffffffffffff8111156127c7576127c7612c64565b6040519080825280601f01601f1916602001820160405280156127f1576020820181803683370190505b5090507f30000000000000000000000000000000000000000000000000000000000000008160008151811061282857612828613191565b60200101906001600160f81b031916908160001a9053507f78000000000000000000000000000000000000000000000000000000000000008160018151811061287357612873613191565b60200101906001600160f81b031916908160001a905350600061289784600261317a565b6128a2906001612f2c565b90505b6001811115612927577f303132333435363738396162636465660000000000000000000000000000000085600f16601081106128e3576128e3613191565b1a60f81b8282815181106128f9576128f9613191565b60200101906001600160f81b031916908160001a90535060049490941c93612920816131a7565b90506128a5565b5083156109fc5760405162461bcd60e51b815260206004820181905260248201527f537472696e67733a20686578206c656e67746820696e73756666696369656e746044820152606401610b20565b61297f816125af565b6040516001600160a01b038216907fbc7cd75a20ee27fd9adebab32041f755214dbc6bffa90cc0225b39da2e5c2d3b90600090a250565b60606109fc83836040518060600160405280602781526020016131db602791396060600080856001600160a01b0316856040516129f391906131be565b600060405180830381855af49150503d8060008114612a2e576040519150601f19603f3d011682016040523d82523d6000602084013e612a33565b606091505b5091509150612a4486838387612a4e565b9695505050505050565b60608315612abd578251600003612ab6576001600160a01b0385163b612ab65760405162461bcd60e51b815260206004820152601d60248201527f416464726573733a2063616c6c20746f206e6f6e2d636f6e74726163740000006044820152606401610b20565b508161135d565b61135d8383815115612ad25781518083602001fd5b8060405162461bcd60e51b8152600401610b209190612b6f565b6001600160e01b031981168114610cab57600080fd5b600060208284031215612b1457600080fd5b81356109fc81612aec565b60005b83811015612b3a578181015183820152602001612b22565b50506000910152565b60008151808452612b5b816020860160208601612b1f565b601f01601f19169290920160200192915050565b6020815260006109fc6020830184612b43565b80356001600160a01b0381168114612b9957600080fd5b919050565b60008060408385031215612bb157600080fd5b612bba83612b82565b946020939093013593505050565b600080600060608486031215612bdd57600080fd5b612be684612b82565b9250612bf460208501612b82565b9150604084013590509250925092565b600060208284031215612c1657600080fd5b5035919050565b60008060408385031215612c3057600080fd5b82359150612c4060208401612b82565b90509250929050565b600060208284031215612c5b57600080fd5b6109fc82612b82565b634e487b7160e01b600052604160045260246000fd5b600082601f830112612c8b57600080fd5b813567ffffffffffffffff80821115612ca657612ca6612c64565b604051601f8301601f19908116603f01168101908282118183101715612cce57612cce612c64565b81604052838152866020858801011115612ce757600080fd5b836020870160208301376000602085830101528094505050505092915050565b600080600060608486031215612d1c57600080fd5b612d2584612b82565b925060208401359150604084013567ffffffffffffffff811115612d4857600080fd5b612d5486828701612c7a565b9150509250925092565b60008060408385031215612d7157600080fd5b612d7a83612b82565b9150602083013567ffffffffffffffff811115612d9657600080fd5b612da285828601612c7a565b9150509250929050565b60008060008060008060c08789031215612dc557600080fd5b863567ffffffffffffffff80821115612ddd57600080fd5b612de98a838b01612c7a565b97506020890135915080821115612dff57600080fd5b50612e0c89828a01612c7a565b95505060408701359350612e2260608801612b82565b9250612e3060808801612b82565b9150612e3e60a08801612b82565b90509295509295509295565b60008060008060808587031215612e6057600080fd5b612e6985612b82565b9350612e7760208601612b82565b925060408501359150606085013567ffffffffffffffff811115612e9a57600080fd5b612ea687828801612c7a565b91505092959194509250565b60008060408385031215612ec557600080fd5b612ece83612b82565b9150612c4060208401612b82565b600181811c90821680612ef057607f821691505b602082108103612f1057634e487b7160e01b600052602260045260246000fd5b50919050565b634e487b7160e01b600052601160045260246000fd5b8082018082111561093057610930612f16565b8181038181111561093057610930612f16565b600060208284031215612f6457600080fd5b5051919050565b60006001600160a01b03808716835280861660208401525083604083015260806060830152612a446080830184612b43565b600060208284031215612faf57600080fd5b81516109fc81612aec565b6001600160a01b0384168152826020820152606060408201526000612fe26060830184612b43565b95945050505050565b7f416363657373436f6e74726f6c3a206163636f756e7420000000000000000000815260008351613023816017850160208801612b1f565b7f206973206d697373696e6720726f6c65200000000000000000000000000000006017918401918201528351613060816028840160208801612b1f565b01602801949350505050565b601f821115610a4c57600081815260208120601f850160051c810160208610156130935750805b601f850160051c820191505b818110156130b25782815560010161309f565b505050505050565b815167ffffffffffffffff8111156130d4576130d4612c64565b6130e8816130e28454612edc565b8461306c565b602080601f83116001811461311d57600084156131055750858301515b600019600386901b1c1916600185901b1785556130b2565b600085815260208120601f198616915b8281101561314c5788860151825594840194600190910190840161312d565b508582101561316a5787850151600019600388901b60f8161c191681555b5050505050600190811b01905550565b808202811582820484141761093057610930612f16565b634e487b7160e01b600052603260045260246000fd5b6000816131b6576131b6612f16565b506000190190565b600082516131d0818460208701612b1f565b919091019291505056fe416464726573733a206c6f772d6c6576656c2064656c65676174652063616c6c206661696c6564a26469706673582212207ceeaf2fa4d4e6c536335cad51387ea972d4061784df7c4f0467d0e13f7e79bf64736f6c63430008110033",
  "linkReferences": {},
  "deployedLinkReferences": {}
}