{
  "_format": "hh-sol-artifact-1",
  "contractName": "TalentFactory",
  "sourceName": "contracts/TalentFactory.sol",
  "abi": [
    {
      "anonymous": false,
      "inputs": [
        {
          "indexed": true,
          "internalType": "bytes32",
          "name": "role",
          "type": "bytes32"
        },
        {
          "indexed": true,
          "internalType": "bytes32",
          "name": "previousAdminRole",
          "type": "bytes32"
        },
        {
          "indexed": true,
          "internalType": "bytes32",
          "name": "newAdminRole",
          "type": "bytes32"
        }
      ],
      "name": "RoleAdminChanged",
      "type": "event"
    },
    {
      "anonymous": false,
      "inputs": [
        {
          "indexed": true,
          "internalType": "bytes32",
          "name": "role",
          "type": "bytes32"
        },
        {
          "indexed": true,
          "internalType": "address",
          "name": "account",
          "type": "address"
        },
        {
          "indexed": true,
          "internalType": "address",
          "name": "sender",
          "type": "address"
        }
      ],
      "name": "RoleGranted",
      "type": "event"
    },
    {
      "anonymous": false,
      "inputs": [
        {
          "indexed": true,
          "internalType": "bytes32",
          "name": "role",
          "type": "bytes32"
        },
        {
          "indexed": true,
          "internalType": "address",
          "name": "account",
          "type": "address"
        },
        {
          "indexed": true,
          "internalType": "address",
          "name": "sender",
          "type": "address"
        }
      ],
      "name": "RoleRevoked",
      "type": "event"
    },
    {
      "anonymous": false,
      "inputs": [
        {
          "indexed": true,
          "internalType": "address",
          "name": "talent",
          "type": "address"
        },
        {
          "indexed": true,
          "internalType": "address",
          "name": "token",
          "type": "address"
        }
      ],
      "name": "TalentCreated",
      "type": "event"
    },
    {
      "inputs": [],
      "name": "DEFAULT_ADMIN_ROLE",
      "outputs": [
        {
          "internalType": "bytes32",
          "name": "",
          "type": "bytes32"
        }
      ],
      "stateMutability": "view",
      "type": "function"
    },
    {
      "inputs": [],
      "name": "INITIAL_SUPPLY",
      "outputs": [
        {
          "internalType": "uint256",
          "name": "",
          "type": "uint256"
        }
      ],
      "stateMutability": "view",
      "type": "function"
    },
    {
      "inputs": [],
      "name": "ROLE_MINTER",
      "outputs": [
        {
          "internalType": "bytes32",
          "name": "",
          "type": "bytes32"
        }
      ],
      "stateMutability": "view",
      "type": "function"
    },
    {
      "inputs": [
        {
          "internalType": "address",
          "name": "_talent",
          "type": "address"
        },
        {
          "internalType": "string",
          "name": "_name",
          "type": "string"
        },
        {
          "internalType": "string",
          "name": "_symbol",
          "type": "string"
        }
      ],
      "name": "createTalent",
      "outputs": [
        {
          "internalType": "address",
          "name": "",
          "type": "address"
        }
      ],
      "stateMutability": "nonpayable",
      "type": "function"
    },
    {
      "inputs": [
        {
          "internalType": "bytes32",
          "name": "role",
          "type": "bytes32"
        }
      ],
      "name": "getRoleAdmin",
      "outputs": [
        {
          "internalType": "bytes32",
          "name": "",
          "type": "bytes32"
        }
      ],
      "stateMutability": "view",
      "type": "function"
    },
    {
      "inputs": [
        {
          "internalType": "bytes32",
          "name": "role",
          "type": "bytes32"
        },
        {
          "internalType": "uint256",
          "name": "index",
          "type": "uint256"
        }
      ],
      "name": "getRoleMember",
      "outputs": [
        {
          "internalType": "address",
          "name": "",
          "type": "address"
        }
      ],
      "stateMutability": "view",
      "type": "function"
    },
    {
      "inputs": [
        {
          "internalType": "bytes32",
          "name": "role",
          "type": "bytes32"
        }
      ],
      "name": "getRoleMemberCount",
      "outputs": [
        {
          "internalType": "uint256",
          "name": "",
          "type": "uint256"
        }
      ],
      "stateMutability": "view",
      "type": "function"
    },
    {
      "inputs": [
        {
          "internalType": "bytes32",
          "name": "role",
          "type": "bytes32"
        },
        {
          "internalType": "address",
          "name": "account",
          "type": "address"
        }
      ],
      "name": "grantRole",
      "outputs": [],
      "stateMutability": "nonpayable",
      "type": "function"
    },
    {
      "inputs": [
        {
          "internalType": "bytes32",
          "name": "role",
          "type": "bytes32"
        },
        {
          "internalType": "address",
          "name": "account",
          "type": "address"
        }
      ],
      "name": "hasRole",
      "outputs": [
        {
          "internalType": "bool",
          "name": "",
          "type": "bool"
        }
      ],
      "stateMutability": "view",
      "type": "function"
    },
    {
      "inputs": [],
      "name": "implementationBeacon",
      "outputs": [
        {
          "internalType": "address",
          "name": "",
          "type": "address"
        }
      ],
      "stateMutability": "view",
      "type": "function"
    },
    {
      "inputs": [],
      "name": "initialize",
      "outputs": [],
      "stateMutability": "nonpayable",
      "type": "function"
    },
    {
      "inputs": [
        {
          "internalType": "string",
          "name": "_symbol",
          "type": "string"
        }
      ],
      "name": "isSymbol",
      "outputs": [
        {
          "internalType": "bool",
          "name": "",
          "type": "bool"
        }
      ],
      "stateMutability": "view",
      "type": "function"
    },
    {
      "inputs": [
        {
          "internalType": "address",
          "name": "addr",
          "type": "address"
        }
      ],
      "name": "isTalentToken",
      "outputs": [
        {
          "internalType": "bool",
          "name": "",
          "type": "bool"
        }
      ],
      "stateMutability": "view",
      "type": "function"
    },
    {
      "inputs": [],
      "name": "minter",
      "outputs": [
        {
          "internalType": "address",
          "name": "",
          "type": "address"
        }
      ],
      "stateMutability": "view",
      "type": "function"
    },
    {
      "inputs": [
        {
          "internalType": "bytes32",
          "name": "role",
          "type": "bytes32"
        },
        {
          "internalType": "address",
          "name": "account",
          "type": "address"
        }
      ],
      "name": "renounceRole",
      "outputs": [],
      "stateMutability": "nonpayable",
      "type": "function"
    },
    {
      "inputs": [
        {
          "internalType": "bytes32",
          "name": "role",
          "type": "bytes32"
        },
        {
          "internalType": "address",
          "name": "account",
          "type": "address"
        }
      ],
      "name": "revokeRole",
      "outputs": [],
      "stateMutability": "nonpayable",
      "type": "function"
    },
    {
      "inputs": [
        {
          "internalType": "address",
          "name": "_minter",
          "type": "address"
        }
      ],
      "name": "setMinter",
      "outputs": [],
      "stateMutability": "nonpayable",
      "type": "function"
    },
    {
      "inputs": [
        {
          "internalType": "bytes4",
          "name": "interfaceId",
          "type": "bytes4"
        }
      ],
      "name": "supportsInterface",
      "outputs": [
        {
          "internalType": "bool",
          "name": "",
          "type": "bool"
        }
      ],
      "stateMutability": "view",
      "type": "function"
    },
    {
      "inputs": [
        {
          "internalType": "string",
          "name": "",
          "type": "string"
        }
      ],
      "name": "symbolsToTokens",
      "outputs": [
        {
          "internalType": "address",
          "name": "",
          "type": "address"
        }
      ],
      "stateMutability": "view",
      "type": "function"
    },
    {
      "inputs": [
        {
          "internalType": "address",
          "name": "addr",
          "type": "address"
        }
      ],
      "name": "talentToToken",
      "outputs": [
        {
          "internalType": "address",
          "name": "",
          "type": "address"
        }
      ],
      "stateMutability": "view",
      "type": "function"
    },
    {
      "inputs": [
        {
          "internalType": "address",
          "name": "",
          "type": "address"
        }
      ],
      "name": "talentsToTokens",
      "outputs": [
        {
          "internalType": "address",
          "name": "",
          "type": "address"
        }
      ],
      "stateMutability": "view",
      "type": "function"
    },
    {
      "inputs": [
        {
          "internalType": "address",
          "name": "",
          "type": "address"
        }
      ],
      "name": "tokensToTalents",
      "outputs": [
        {
          "internalType": "address",
          "name": "",
          "type": "address"
        }
      ],
      "stateMutability": "view",
      "type": "function"
    }
  ],
  "bytecode": "0x608060405234801561001057600080fd5b5061500f806100206000396000f3fe60806040523480156200001157600080fd5b5060043610620001a15760003560e01c80637ffed92611620000e9578063a217fddf1162000097578063ef31f424116200006e578063ef31f4241462000407578063fca3b5aa1462000433578063fee93f28146200044a57600080fd5b8063a217fddf14620003d0578063ca15c87314620003d9578063d547741f14620003f057600080fd5b80639010d07c11620000cc5780639010d07c146200035557806391d14854146200036c57806392afc33a14620003a857600080fd5b80637ffed926146200031f5780638129fc1c146200034b57600080fd5b8063248a9ca311620001535780632ff2e9dc116200012a5780632ff2e9dc14620002e357806336568abe14620002f457806357bc3cd9146200030b57600080fd5b8063248a9ca3146200025e5780632dbc679c14620002935780632f2ff15d14620002ca57600080fd5b8063099aba561162000188578063099aba5614620001ff5780631b0f28741462000230578063242fa5db146200024757600080fd5b806301ffc9a714620001a65780630754617214620001d2575b600080fd5b620001bd620001b736600462001467565b62000479565b60405190151581526020015b60405180910390f35b60cc54620001e6906001600160a01b031681565b6040516001600160a01b039091168152602001620001c9565b620001bd6200021036600462001360565b6001600160a01b03908116600090815260ca602052604090205416151590565b620001bd6200024136600462001493565b6200048c565b620001e6620002583660046200137e565b620004cb565b620002846200026f366004620013fb565b60009081526065602052604090206001015490565b604051908152602001620001c9565b620001e6620002a436600462001493565b805160208183018101805160cb825292820191909301209152546001600160a01b031681565b620002e1620002db36600462001415565b62000749565b005b62000284686c6b935b8bbd40000081565b620002e16200030536600462001415565b62000774565b60cd54620001e6906001600160a01b031681565b620001e66200033036600462001360565b60c9602052600090815260409020546001600160a01b031681565b620002e16200079a565b620001e66200036636600462001444565b6200099b565b620001bd6200037d36600462001415565b60009182526065602090815260408084206001600160a01b0393909316845291905290205460ff1690565b620002847ff0887ba65ee2024ea881d91b74c2450ef19e1557f03bed3ea9f16b037cbe2dc981565b62000284600081565b62000284620003ea366004620013fb565b620009bc565b620002e16200040136600462001415565b620009d5565b620001e66200041836600462001360565b60ca602052600090815260409020546001600160a01b031681565b620002e16200044436600462001360565b620009e1565b620001e66200045b36600462001360565b6001600160a01b03908116600090815260c960205260409020541690565b6000620004868262000aa2565b92915050565b6000806001600160a01b031660cb83604051620004aa919062001502565b908152604051908190036020019020546001600160a01b0316141592915050565b6000620004d8826200048c565b15620005515760405162461bcd60e51b815260206004820152602c60248201527f74616c656e7420746f6b656e207769746820746869732073796d626f6c20616c60448201527f726561647920657869737473000000000000000000000000000000000000000060648201526084015b60405180910390fd5b60cc546001600160a01b0316620005ab5760405162461bcd60e51b815260206004820152601260248201527f6d696e746572206e6f7420796574207365740000000000000000000000000000604482015260640162000548565b60cd5460cc546000916001600160a01b03908116917f6ef7626c000000000000000000000000000000000000000000000000000000009187918791686c6b935b8bbd400000918b91166200060088806200099b565b6040516024016200061796959493929190620015de565b60408051601f198184030181529181526020820180517bffffffffffffffffffffffffffffffffffffffffffffffffffffffff166001600160e01b03199094169390931790925290516200066b9062001284565b62000678929190620015a5565b604051809103906000f08015801562000695573d6000803e3d6000fd5b50905060008190508060cb85604051620006b0919062001502565b9081526040805160209281900383018120805473ffffffffffffffffffffffffffffffffffffffff199081166001600160a01b0396871617909155858516600081815260ca865284812080548416978e16978817905586815260c99095529284208054909116831790559092917fc3cff6724200e4907489fef1d1ede51dd32ca7ac86d62c448475be4c3b1d5b5091a395945050505050565b62000755828262000ae3565b60008281526097602052604090206200076f908262000b0d565b505050565b62000780828262000b24565b60008281526097602052604090206200076f908262000bb0565b600054610100900460ff1680620007b4575060005460ff16155b620008285760405162461bcd60e51b815260206004820152602e60248201527f496e697469616c697a61626c653a20636f6e747261637420697320616c72656160448201527f647920696e697469616c697a6564000000000000000000000000000000000000606482015260840162000548565b600054610100900460ff161580156200084b576000805461ffff19166101011790555b6200085562000bc7565b6200085f62000bc7565b6200086962000bc7565b6200087660003362000c8d565b6000604051620008869062001292565b604051809103906000f080158015620008a3573d6000803e3d6000fd5b50604051620008b290620012a0565b6001600160a01b039091168152602001604051809103906000f080158015620008df573d6000803e3d6000fd5b506040517ff2fde38b0000000000000000000000000000000000000000000000000000000081523360048201529091506001600160a01b0382169063f2fde38b90602401600060405180830381600087803b1580156200093e57600080fd5b505af115801562000953573d6000803e3d6000fd5b505060cd805473ffffffffffffffffffffffffffffffffffffffff19166001600160a01b0394909416939093179092555050801562000998576000805461ff00191690555b50565b6000828152609760205260408120620009b5908362000c99565b9392505050565b6000818152609760205260408120620004869062000ca7565b62000780828262000cb2565b6000620009ef813362000cdc565b60cc546001600160a01b03161562000a4a5760405162461bcd60e51b815260206004820152601260248201527f6d696e74657220616c7265616479207365740000000000000000000000000000604482015260640162000548565b60cc805473ffffffffffffffffffffffffffffffffffffffff19166001600160a01b03841617905562000a9e7ff0887ba65ee2024ea881d91b74c2450ef19e1557f03bed3ea9f16b037cbe2dc98362000c8d565b5050565b60006001600160e01b031982167f5a05180f000000000000000000000000000000000000000000000000000000001480620004865750620004868262000d65565b60008281526065602052604090206001015462000b01813362000cdc565b6200076f838362000dce565b6000620009b5836001600160a01b03841662000e72565b6001600160a01b038116331462000ba45760405162461bcd60e51b815260206004820152602f60248201527f416363657373436f6e74726f6c3a2063616e206f6e6c792072656e6f756e636560448201527f20726f6c657320666f722073656c660000000000000000000000000000000000606482015260840162000548565b62000a9e828262000ec4565b6000620009b5836001600160a01b03841662000f48565b600054610100900460ff168062000be1575060005460ff16155b62000c555760405162461bcd60e51b815260206004820152602e60248201527f496e697469616c697a61626c653a20636f6e747261637420697320616c72656160448201527f647920696e697469616c697a6564000000000000000000000000000000000000606482015260840162000548565b600054610100900460ff1615801562000c78576000805461ffff19166101011790555b801562000998576000805461ff001916905550565b6200075582826200104c565b6000620009b5838362001058565b600062000486825490565b60008281526065602052604090206001015462000cd0813362000cdc565b6200076f838362000ec4565b60008281526065602090815260408083206001600160a01b038516845290915290205460ff1662000a9e5762000d1d816001600160a01b0316601462001085565b62000d2a83602062001085565b60405160200162000d3d92919062001520565b60408051601f198184030181529082905262461bcd60e51b82526200054891600401620015c9565b60006001600160e01b031982167f7965db0b0000000000000000000000000000000000000000000000000000000014806200048657507f01ffc9a7000000000000000000000000000000000000000000000000000000006001600160e01b031983161462000486565b60008281526065602090815260408083206001600160a01b038516845290915290205460ff1662000a9e5760008281526065602090815260408083206001600160a01b03851684529091529020805460ff1916600117905562000e2e3390565b6001600160a01b0316816001600160a01b0316837f2f8788117e7eff1d82e926ec794901d17c78024a50270940304540a733656f0d60405160405180910390a45050565b600081815260018301602052604081205462000ebb5750815460018181018455600084815260208082209093018490558454848252828601909352604090209190915562000486565b50600062000486565b60008281526065602090815260408083206001600160a01b038516845290915290205460ff161562000a9e5760008281526065602090815260408083206001600160a01b0385168085529252808320805460ff1916905551339285917ff6391f5c32d9c69d2a47ea670b442974b53935d1edc7fd64eb21e047a839171b9190a45050565b600081815260018301602052604081205480156200104157600062000f6f60018362001675565b855490915060009062000f859060019062001675565b905081811462000ff157600086600001828154811062000fa95762000fa962001708565b906000526020600020015490508087600001848154811062000fcf5762000fcf62001708565b6000918252602080832090910192909255918252600188019052604090208390555b8554869080620010055762001005620016f2565b60019003818190600052602060002001600090559055856001016000868152602001908152602001600020600090556001935050505062000486565b600091505062000486565b62000a9e828262000dce565b600082600001828154811062001072576200107262001708565b9060005260206000200154905092915050565b606060006200109683600262001653565b620010a390600262001638565b67ffffffffffffffff811115620010be57620010be6200171e565b6040519080825280601f01601f191660200182016040528015620010e9576020820181803683370190505b5090507f30000000000000000000000000000000000000000000000000000000000000008160008151811062001123576200112362001708565b60200101906001600160f81b031916908160001a9053507f78000000000000000000000000000000000000000000000000000000000000008160018151811062001171576200117162001708565b60200101906001600160f81b031916908160001a90535060006200119784600262001653565b620011a490600162001638565b90505b600181111562001233577f303132333435363738396162636465660000000000000000000000000000000085600f1660108110620011e957620011e962001708565b1a60f81b82828151811062001202576200120262001708565b60200101906001600160f81b031916908160001a90535060049490941c936200122b81620016c2565b9050620011a7565b508315620009b55760405162461bcd60e51b815260206004820181905260248201527f537472696e67733a20686578206c656e67746820696e73756666696369656e74604482015260640162000548565b610a32806200173583390190565b6128c3806200216783390190565b6105b08062004a2a83390190565b80356001600160a01b0381168114620012c657600080fd5b919050565b600082601f830112620012dd57600080fd5b813567ffffffffffffffff80821115620012fb57620012fb6200171e565b604051601f8301601f19908116603f011681019082821181831017156200132657620013266200171e565b816040528381528660208588010111156200134057600080fd5b836020870160208301376000602085830101528094505050505092915050565b6000602082840312156200137357600080fd5b620009b582620012ae565b6000806000606084860312156200139457600080fd5b6200139f84620012ae565b9250602084013567ffffffffffffffff80821115620013bd57600080fd5b620013cb87838801620012cb565b93506040860135915080821115620013e257600080fd5b50620013f186828701620012cb565b9150509250925092565b6000602082840312156200140e57600080fd5b5035919050565b600080604083850312156200142957600080fd5b823591506200143b60208401620012ae565b90509250929050565b600080604083850312156200145857600080fd5b50508035926020909101359150565b6000602082840312156200147a57600080fd5b81356001600160e01b031981168114620009b557600080fd5b600060208284031215620014a657600080fd5b813567ffffffffffffffff811115620014be57600080fd5b620014cc84828501620012cb565b949350505050565b60008151808452620014ee8160208601602086016200168f565b601f01601f19169290920160200192915050565b60008251620015168184602087016200168f565b9190910192915050565b7f416363657373436f6e74726f6c3a206163636f756e74200000000000000000008152600083516200155a8160178501602088016200168f565b7f206973206d697373696e6720726f6c65200000000000000000000000000000006017918401918201528351620015998160288401602088016200168f565b01602801949350505050565b6001600160a01b0383168152604060208201526000620014cc6040830184620014d4565b602081526000620009b56020830184620014d4565b60c081526000620015f360c0830189620014d4565b8281036020840152620016078189620014d4565b604084019790975250506001600160a01b039384166060820152918316608083015290911660a09091015292915050565b600082198211156200164e576200164e620016dc565b500190565b6000816000190483118215151615620016705762001670620016dc565b500290565b6000828210156200168a576200168a620016dc565b500390565b60005b83811015620016ac57818101518382015260200162001692565b83811115620016bc576000848401525b50505050565b600081620016d457620016d4620016dc565b506000190190565b634e487b7160e01b600052601160045260246000fd5b634e487b7160e01b600052603160045260246000fd5b634e487b7160e01b600052603260045260246000fd5b634e487b7160e01b600052604160045260246000fdfe608060405260405162000a3238038062000a328339810160408190526200002691620004ad565b6200005360017fa3f0ad74e5423aebfd80d3ef4346578335a9a72aeaee59ff6cb3582b35133d51620005ce565b600080516020620009eb8339815191521462000073576200007362000623565b620000818282600062000089565b50506200064f565b62000094836200016e565b6040516001600160a01b038416907f1cf3b03a6cf19fa2baba4df148e9dcabedea7f8a5c07840e207e5c089be95d3e90600090a2600082511180620000d65750805b15620001695762000167836001600160a01b0316635c60da1b6040518163ffffffff1660e01b815260040160206040518083038186803b1580156200011a57600080fd5b505afa1580156200012f573d6000803e3d6000fd5b505050506040513d601f19601f820116820180604052508101906200015591906200048f565b836200031f60201b620000291760201c565b505b505050565b62000184816200034e60201b620000551760201c565b620001e45760405162461bcd60e51b815260206004820152602560248201527f455243313936373a206e657720626561636f6e206973206e6f74206120636f6e6044820152641d1c9858dd60da1b60648201526084015b60405180910390fd5b6200026e816001600160a01b0316635c60da1b6040518163ffffffff1660e01b815260040160206040518083038186803b1580156200022257600080fd5b505afa15801562000237573d6000803e3d6000fd5b505050506040513d601f19601f820116820180604052508101906200025d91906200048f565b6200034e60201b620000551760201c565b620002d55760405162461bcd60e51b815260206004820152603060248201527f455243313936373a20626561636f6e20696d706c656d656e746174696f6e206960448201526f1cc81b9bdd08184818dbdb9d1c9858dd60821b6064820152608401620001db565b80620002fe600080516020620009eb83398151915260001b6200035460201b6200005b1760201c565b80546001600160a01b0319166001600160a01b039290921691909117905550565b606062000347838360405180606001604052806027815260200162000a0b6027913962000357565b9392505050565b3b151590565b90565b6060833b620003b85760405162461bcd60e51b815260206004820152602660248201527f416464726573733a2064656c65676174652063616c6c20746f206e6f6e2d636f6044820152651b9d1c9858dd60d21b6064820152608401620001db565b600080856001600160a01b031685604051620003d591906200057b565b600060405180830381855af49150503d806000811462000412576040519150601f19603f3d011682016040523d82523d6000602084013e62000417565b606091505b5090925090506200042a82828662000434565b9695505050505050565b606083156200044557508162000347565b825115620004565782518084602001fd5b8160405162461bcd60e51b8152600401620001db919062000599565b80516001600160a01b03811681146200048a57600080fd5b919050565b600060208284031215620004a257600080fd5b620003478262000472565b60008060408385031215620004c157600080fd5b620004cc8362000472565b60208401519092506001600160401b0380821115620004ea57600080fd5b818501915085601f830112620004ff57600080fd5b81518181111562000514576200051462000639565b604051601f8201601f19908116603f011681019083821181831017156200053f576200053f62000639565b816040528281528860208487010111156200055957600080fd5b6200056c836020830160208801620005f4565b80955050505050509250929050565b600082516200058f818460208701620005f4565b9190910192915050565b6020815260008251806020840152620005ba816040850160208701620005f4565b601f01601f19169190910160400192915050565b600082821015620005ef57634e487b7160e01b600052601160045260246000fd5b500390565b60005b8381101562000611578181015183820152602001620005f7565b83811115620001675750506000910152565b634e487b7160e01b600052600160045260246000fd5b634e487b7160e01b600052604160045260246000fd5b61038c806200065f6000396000f3fe60806040523661001357610011610017565b005b6100115b61002761002261005e565b610120565b565b606061004e838360405180606001604052806027815260200161033060279139610144565b9392505050565b3b151590565b90565b600061009e7fa3f0ad74e5423aebfd80d3ef4346578335a9a72aeaee59ff6cb3582b35133d505473ffffffffffffffffffffffffffffffffffffffff1690565b73ffffffffffffffffffffffffffffffffffffffff16635c60da1b6040518163ffffffff1660e01b815260040160206040518083038186803b1580156100e357600080fd5b505afa1580156100f7573d6000803e3d6000fd5b505050506040513d601f19601f8201168201806040525081019061011b919061027a565b905090565b3660008037600080366000845af43d6000803e80801561013f573d6000f35b3d6000fd5b6060833b6101bf5760405162461bcd60e51b815260206004820152602660248201527f416464726573733a2064656c65676174652063616c6c20746f206e6f6e2d636f60448201527f6e7472616374000000000000000000000000000000000000000000000000000060648201526084015b60405180910390fd5b6000808573ffffffffffffffffffffffffffffffffffffffff16856040516101e791906102b0565b600060405180830381855af49150503d8060008114610222576040519150601f19603f3d011682016040523d82523d6000602084013e610227565b606091505b5091509150610237828286610241565b9695505050505050565b6060831561025057508161004e565b8251156102605782518084602001fd5b8160405162461bcd60e51b81526004016101b691906102cc565b60006020828403121561028c57600080fd5b815173ffffffffffffffffffffffffffffffffffffffff8116811461004e57600080fd5b600082516102c28184602087016102ff565b9190910192915050565b60208152600082518060208401526102eb8160408501602087016102ff565b601f01601f19169190910160400192915050565b60005b8381101561031a578181015183820152602001610302565b83811115610329576000848401525b5050505056fe416464726573733a206c6f772d6c6576656c2064656c65676174652063616c6c206661696c6564a2646970667358221220c78e7371ca68688f7b8f6147187f38bd2198c8404ee8d30abd6eca306ba6402164736f6c63430008070033a3f0ad74e5423aebfd80d3ef4346578335a9a72aeaee59ff6cb3582b35133d50416464726573733a206c6f772d6c6576656c2064656c65676174652063616c6c206661696c6564608060405234801561001057600080fd5b506128a3806100206000396000f3fe60806040526004361061024f5760003560e01c80636ef7626c11610138578063a9059cbb116100b0578063cae9ca511161007f578063d547741f11610064578063d547741f146106db578063d8fbe994146106fb578063dd62ed3e1461071b57600080fd5b8063cae9ca511461069b578063ccf00634146106bb57600080fd5b8063a9059cbb1461060d578063aafa93711461062d578063c1d34b8914610643578063c4daa5931461066357600080fd5b806392afc33a116101075780639dc29fac116100ec5780639dc29fac146105b8578063a217fddf146105d8578063a457c2d7146105ed57600080fd5b806392afc33a1461056f57806395d89b41146105a357600080fd5b80636ef7626c1461049f57806370a08231146104bf5780637a12083a146104f557806391d148541461052957600080fd5b80633177029f116101cb578063395093511161019a5780634000aea01161017f5780634000aea01461044c57806340c10f191461046c5780634f1ef2861461048c57600080fd5b806339509351146104165780633e0075a11461043657600080fd5b80633177029f1461039857806332cb6b0c146103b857806336568abe146103d65780633659cfe6146103f657600080fd5b806318160ddd11610222578063248a9ca311610207578063248a9ca31461032a5780632f2ff15d1461035a578063313ce5671461037c57600080fd5b806318160ddd146102eb57806323b872dd1461030a57600080fd5b806301ffc9a71461025457806306fdde0314610289578063095ea7b3146102ab5780631296ee62146102cb575b600080fd5b34801561026057600080fd5b5061027461026f36600461250b565b610761565b60405190151581526020015b60405180910390f35b34801561029557600080fd5b5061029e6107c0565b604051610280919061270f565b3480156102b757600080fd5b506102746102c636600461244e565b610852565b3480156102d757600080fd5b506102746102e636600461244e565b610868565b3480156102f757600080fd5b506099545b604051908152602001610280565b34801561031657600080fd5b5061027461032536600461235c565b61088b565b34801561033657600080fd5b506102fc6103453660046124cf565b60009081526065602052604090206001015490565b34801561036657600080fd5b5061037a6103753660046124e8565b61094f565b005b34801561038857600080fd5b5060405160128152602001610280565b3480156103a457600080fd5b506102746103b336600461244e565b61097a565b3480156103c457600080fd5b506102fc69d3c21bcecceda100000081565b3480156103e257600080fd5b5061037a6103f13660046124e8565b610996565b34801561040257600080fd5b5061037a61041136600461230e565b610a22565b34801561042257600080fd5b5061027461043136600461244e565b610a49565b34801561044257600080fd5b506102fc60ca5481565b34801561045857600080fd5b50610274610467366004612478565b610a85565b34801561047857600080fd5b5061037a61048736600461244e565b610b03565b61037a61049a366004612400565b610bd2565b3480156104ab57600080fd5b5061037a6104ba366004612545565b610be7565b3480156104cb57600080fd5b506102fc6104da36600461230e565b6001600160a01b031660009081526097602052604090205490565b34801561050157600080fd5b506102fc7f8fad061cdace53638a92e8940b81545ab8169bcf17f044b6ab490075da827c9481565b34801561053557600080fd5b506102746105443660046124e8565b60009182526065602090815260408084206001600160a01b0393909316845291905290205460ff1690565b34801561057b57600080fd5b506102fc7ff0887ba65ee2024ea881d91b74c2450ef19e1557f03bed3ea9f16b037cbe2dc981565b3480156105af57600080fd5b5061029e610d94565b3480156105c457600080fd5b5061037a6105d336600461244e565b610da3565b3480156105e457600080fd5b506102fc600081565b3480156105f957600080fd5b5061027461060836600461244e565b610df8565b34801561061957600080fd5b5061027461062836600461244e565b610e9f565b34801561063957600080fd5b506102fc60c95481565b34801561064f57600080fd5b5061027461065e366004612398565b610eac565b34801561066f57600080fd5b5060cb54610683906001600160a01b031681565b6040516001600160a01b039091168152602001610280565b3480156106a757600080fd5b506102746106b6366004612478565b610f29565b3480156106c757600080fd5b5061037a6106d636600461230e565b610fb3565b3480156106e757600080fd5b5061037a6106f63660046124e8565b61102b565b34801561070757600080fd5b5061027461071636600461235c565b611051565b34801561072757600080fd5b506102fc610736366004612329565b6001600160a01b03918216600090815260986020908152604080832093909416825291909152205490565b60006001600160e01b031982167f36372b070000000000000000000000000000000000000000000000000000000014806107ab57506001600160e01b0319821663b0202a1160e01b145b806107ba57506107ba8261106e565b92915050565b6060609a80546107cf906127b3565b80601f01602080910402602001604051908101604052809291908181526020018280546107fb906127b3565b80156108485780601f1061081d57610100808354040283529160200191610848565b820191906000526020600020905b81548152906001019060200180831161082b57829003601f168201915b5050505050905090565b600061085f338484611093565b50600192915050565b6000610884838360405180602001604052806000815250610a85565b9392505050565b60006108988484846111eb565b6001600160a01b0384166000908152609860209081526040808320338452909152902054828110156109375760405162461bcd60e51b815260206004820152602860248201527f45524332303a207472616e7366657220616d6f756e742065786365656473206160448201527f6c6c6f77616e636500000000000000000000000000000000000000000000000060648201526084015b60405180910390fd5b6109448533858403611093565b506001949350505050565b60008281526065602052604090206001015461096b8133611404565b6109758383611484565b505050565b6000610884838360405180602001604052806000815250610f29565b6001600160a01b0381163314610a145760405162461bcd60e51b815260206004820152602f60248201527f416363657373436f6e74726f6c3a2063616e206f6e6c792072656e6f756e636560448201527f20726f6c657320666f722073656c660000000000000000000000000000000000606482015260840161092e565b610a1e8282611526565b5050565b610a2b816115a9565b610a46816040518060200160405280600081525060006115b5565b50565b3360008181526098602090815260408083206001600160a01b0387168452909152812054909161085f918590610a80908690612722565b611093565b6000610a918484610e9f565b50610a9e33858585611779565b610af95760405162461bcd60e51b815260206004820152602660248201527f455243313336333a205f636865636b416e6443616c6c5472616e73666572207260448201526565766572747360d01b606482015260840161092e565b5060019392505050565b7ff0887ba65ee2024ea881d91b74c2450ef19e1557f03bed3ea9f16b037cbe2dc9610b2e8133611404565b8160c9541015610ba55760405162461bcd60e51b8152602060048201526024808201527f5f616d6f756e742065786365656473206d696e74696e6720617661696c61626960448201527f6c69747900000000000000000000000000000000000000000000000000000000606482015260840161092e565b8160c96000828254610bb79190612759565b909155505060c954610bc8574260ca555b6109758383611837565b610bdb826115a9565b610a1e828260016115b5565b600054610100900460ff1680610c00575060005460ff16155b610c635760405162461bcd60e51b815260206004820152602e60248201527f496e697469616c697a61626c653a20636f6e747261637420697320616c72656160448201526d191e481a5b9a5d1a585b1a5e995960921b606482015260840161092e565b600054610100900460ff16158015610c85576000805461ffff19166101011790555b610c8d611916565b610c95611916565b610c9f87876119c8565b610ca7611916565b60cb805473ffffffffffffffffffffffffffffffffffffffff19166001600160a01b038616179055610cda600083611aa4565b610d047f8fad061cdace53638a92e8940b81545ab8169bcf17f044b6ab490075da827c9485611aa4565b610d2e7ff0887ba65ee2024ea881d91b74c2450ef19e1557f03bed3ea9f16b037cbe2dc984611aa4565b610d587f8fad061cdace53638a92e8940b81545ab8169bcf17f044b6ab490075da827c9480611aae565b610d628486611837565b610d768569d3c21bcecceda1000000612759565b60c9558015610d8b576000805461ff00191690555b50505050505050565b6060609b80546107cf906127b3565b7ff0887ba65ee2024ea881d91b74c2450ef19e1557f03bed3ea9f16b037cbe2dc9610dce8133611404565b60c95415610dee578160c96000828254610de89190612722565b90915550505b6109758383611af9565b3360009081526098602090815260408083206001600160a01b038616845290915281205482811015610e925760405162461bcd60e51b815260206004820152602560248201527f45524332303a2064656372656173656420616c6c6f77616e63652062656c6f7760448201527f207a65726f000000000000000000000000000000000000000000000000000000606482015260840161092e565b610af93385858403611093565b600061085f3384846111eb565b6000610eb985858561088b565b50610ec685858585611779565b6109445760405162461bcd60e51b815260206004820152602660248201527f455243313336333a205f636865636b416e6443616c6c5472616e73666572207260448201526565766572747360d01b606482015260840161092e565b949350505050565b6000610f358484610852565b50610f41848484611c7e565b610af95760405162461bcd60e51b815260206004820152602560248201527f455243313336333a205f636865636b416e6443616c6c417070726f766520726560448201527f7665727473000000000000000000000000000000000000000000000000000000606482015260840161092e565b60cb805473ffffffffffffffffffffffffffffffffffffffff19166001600160a01b0383161790556110057f8fad061cdace53638a92e8940b81545ab8169bcf17f044b6ab490075da827c948261094f565b610a467f8fad061cdace53638a92e8940b81545ab8169bcf17f044b6ab490075da827c94335b6000828152606560205260409020600101546110478133611404565b6109758383611526565b6000610f2184848460405180602001604052806000815250610eac565b60006001600160e01b0319821663b0202a1160e01b14806107ba57506107ba82611d39565b6001600160a01b03831661110e5760405162461bcd60e51b8152602060048201526024808201527f45524332303a20617070726f76652066726f6d20746865207a65726f2061646460448201527f7265737300000000000000000000000000000000000000000000000000000000606482015260840161092e565b6001600160a01b03821661118a5760405162461bcd60e51b815260206004820152602260248201527f45524332303a20617070726f766520746f20746865207a65726f20616464726560448201527f7373000000000000000000000000000000000000000000000000000000000000606482015260840161092e565b6001600160a01b0383811660008181526098602090815260408083209487168084529482529182902085905590518481527f8c5be1e5ebec7d5bd14f71427d1e84f3dd0314c0f7b2291e5b200ac8c7c3b925910160405180910390a3505050565b6001600160a01b0383166112675760405162461bcd60e51b815260206004820152602560248201527f45524332303a207472616e736665722066726f6d20746865207a65726f20616460448201527f6472657373000000000000000000000000000000000000000000000000000000606482015260840161092e565b6001600160a01b0382166112e35760405162461bcd60e51b815260206004820152602360248201527f45524332303a207472616e7366657220746f20746865207a65726f206164647260448201527f6573730000000000000000000000000000000000000000000000000000000000606482015260840161092e565b6001600160a01b038316600090815260976020526040902054818110156113725760405162461bcd60e51b815260206004820152602660248201527f45524332303a207472616e7366657220616d6f756e742065786365656473206260448201527f616c616e63650000000000000000000000000000000000000000000000000000606482015260840161092e565b6001600160a01b038085166000908152609760205260408082208585039055918516815290812080548492906113a9908490612722565b92505081905550826001600160a01b0316846001600160a01b03167fddf252ad1be2c89b69c2b068fc378daa952ba7f163c4a11628f55a4df523b3ef846040516113f591815260200190565b60405180910390a35b50505050565b60008281526065602090815260408083206001600160a01b038516845290915290205460ff16610a1e57611442816001600160a01b03166014611da0565b61144d836020611da0565b60405160200161145e92919061262b565b60408051601f198184030181529082905262461bcd60e51b825261092e9160040161270f565b60008281526065602090815260408083206001600160a01b038516845290915290205460ff16610a1e5760008281526065602090815260408083206001600160a01b03851684529091529020805460ff191660011790556114e23390565b6001600160a01b0316816001600160a01b0316837f2f8788117e7eff1d82e926ec794901d17c78024a50270940304540a733656f0d60405160405180910390a45050565b60008281526065602090815260408083206001600160a01b038516845290915290205460ff1615610a1e5760008281526065602090815260408083206001600160a01b0385168085529252808320805460ff1916905551339285917ff6391f5c32d9c69d2a47ea670b442974b53935d1edc7fd64eb21e047a839171b9190a45050565b6000610a1e8133611404565b60006115e87f360894a13ba1a3210667c828492db98dca3e2076cc3735a920a3ca505d382bbc546001600160a01b031690565b90506115f384611f81565b6000835111806116005750815b156116115761160f8484612043565b505b7f4910fdfa16fed3260ed0e7147f7cc6da11a60208b5b9406d12a635614ffd9143805460ff1661177257805460ff191660011781556040516001600160a01b03831660248201526116be90869060440160408051601f198184030181529190526020810180517bffffffffffffffffffffffffffffffffffffffffffffffffffffffff167f3659cfe600000000000000000000000000000000000000000000000000000000179052612043565b50805460ff191681557f360894a13ba1a3210667c828492db98dca3e2076cc3735a920a3ca505d382bbc546001600160a01b038381169116146117695760405162461bcd60e51b815260206004820152602f60248201527f45524331393637557067726164653a207570677261646520627265616b73206660448201527f7572746865722075706772616465730000000000000000000000000000000000606482015260840161092e565b61177285612068565b5050505050565b60006001600160a01b0384163b61179257506000610f21565b604051632229f29760e21b81526000906001600160a01b038616906388a7ca5c906117c79033908a90899089906004016126ac565b602060405180830381600087803b1580156117e157600080fd5b505af11580156117f5573d6000803e3d6000fd5b505050506040513d601f19601f820116820180604052508101906118199190612528565b6001600160e01b031916632229f29760e21b14915050949350505050565b6001600160a01b03821661188d5760405162461bcd60e51b815260206004820152601f60248201527f45524332303a206d696e7420746f20746865207a65726f206164647265737300604482015260640161092e565b806099600082825461189f9190612722565b90915550506001600160a01b038216600090815260976020526040812080548392906118cc908490612722565b90915550506040518181526001600160a01b038316906000907fddf252ad1be2c89b69c2b068fc378daa952ba7f163c4a11628f55a4df523b3ef9060200160405180910390a35050565b600054610100900460ff168061192f575060005460ff16155b6119925760405162461bcd60e51b815260206004820152602e60248201527f496e697469616c697a61626c653a20636f6e747261637420697320616c72656160448201526d191e481a5b9a5d1a585b1a5e995960921b606482015260840161092e565b600054610100900460ff161580156119b4576000805461ffff19166101011790555b8015610a46576000805461ff001916905550565b600054610100900460ff16806119e1575060005460ff16155b611a445760405162461bcd60e51b815260206004820152602e60248201527f496e697469616c697a61626c653a20636f6e747261637420697320616c72656160448201526d191e481a5b9a5d1a585b1a5e995960921b606482015260840161092e565b600054610100900460ff16158015611a66576000805461ffff19166101011790555b8251611a7990609a9060208601906121cc565b508151611a8d90609b9060208501906121cc565b508015610975576000805461ff0019169055505050565b610a1e8282611484565b600082815260656020526040808220600101805490849055905190918391839186917fbd79b86ffe0ab8e8776151514217cd7cacd52c909f66475c3af44e129f0b00ff9190a4505050565b6001600160a01b038216611b755760405162461bcd60e51b815260206004820152602160248201527f45524332303a206275726e2066726f6d20746865207a65726f2061646472657360448201527f7300000000000000000000000000000000000000000000000000000000000000606482015260840161092e565b6001600160a01b03821660009081526097602052604090205481811015611c045760405162461bcd60e51b815260206004820152602260248201527f45524332303a206275726e20616d6f756e7420657863656564732062616c616e60448201527f6365000000000000000000000000000000000000000000000000000000000000606482015260840161092e565b6001600160a01b0383166000908152609760205260408120838303905560998054849290611c33908490612759565b90915550506040518281526000906001600160a01b038516907fddf252ad1be2c89b69c2b068fc378daa952ba7f163c4a11628f55a4df523b3ef9060200160405180910390a3505050565b60006001600160a01b0384163b611c9757506000610884565b6040516307b04a2d60e41b81526000906001600160a01b03861690637b04a2d090611cca903390889088906004016126de565b602060405180830381600087803b158015611ce457600080fd5b505af1158015611cf8573d6000803e3d6000fd5b505050506040513d601f19601f82011682018060405250810190611d1c9190612528565b6001600160e01b0319166307b04a2d60e41b149150509392505050565b60006001600160e01b031982167f7965db0b0000000000000000000000000000000000000000000000000000000014806107ba57507f01ffc9a7000000000000000000000000000000000000000000000000000000006001600160e01b03198316146107ba565b60606000611daf83600261273a565b611dba906002612722565b67ffffffffffffffff811115611dd257611dd261281a565b6040519080825280601f01601f191660200182016040528015611dfc576020820181803683370190505b5090507f300000000000000000000000000000000000000000000000000000000000000081600081518110611e3357611e33612804565b60200101906001600160f81b031916908160001a9053507f780000000000000000000000000000000000000000000000000000000000000081600181518110611e7e57611e7e612804565b60200101906001600160f81b031916908160001a9053506000611ea284600261273a565b611ead906001612722565b90505b6001811115611f32577f303132333435363738396162636465660000000000000000000000000000000085600f1660108110611eee57611eee612804565b1a60f81b828281518110611f0457611f04612804565b60200101906001600160f81b031916908160001a90535060049490941c93611f2b8161279c565b9050611eb0565b5083156108845760405162461bcd60e51b815260206004820181905260248201527f537472696e67733a20686578206c656e67746820696e73756666696369656e74604482015260640161092e565b803b611ff55760405162461bcd60e51b815260206004820152602d60248201527f455243313936373a206e657720696d706c656d656e746174696f6e206973206e60448201527f6f74206120636f6e747261637400000000000000000000000000000000000000606482015260840161092e565b7f360894a13ba1a3210667c828492db98dca3e2076cc3735a920a3ca505d382bbc805473ffffffffffffffffffffffffffffffffffffffff19166001600160a01b0392909216919091179055565b60606108848383604051806060016040528060278152602001612847602791396120a8565b61207181611f81565b6040516001600160a01b038216907fbc7cd75a20ee27fd9adebab32041f755214dbc6bffa90cc0225b39da2e5c2d3b90600090a250565b6060833b61211e5760405162461bcd60e51b815260206004820152602660248201527f416464726573733a2064656c65676174652063616c6c20746f206e6f6e2d636f60448201527f6e74726163740000000000000000000000000000000000000000000000000000606482015260840161092e565b600080856001600160a01b031685604051612139919061260f565b600060405180830381855af49150503d8060008114612174576040519150601f19603f3d011682016040523d82523d6000602084013e612179565b606091505b5091509150612189828286612193565b9695505050505050565b606083156121a2575081610884565b8251156121b25782518084602001fd5b8160405162461bcd60e51b815260040161092e919061270f565b8280546121d8906127b3565b90600052602060002090601f0160209004810192826121fa5760008555612240565b82601f1061221357805160ff1916838001178555612240565b82800160010185558215612240579182015b82811115612240578251825591602001919060010190612225565b5061224c929150612250565b5090565b5b8082111561224c5760008155600101612251565b80356001600160a01b038116811461227c57600080fd5b919050565b600082601f83011261229257600080fd5b813567ffffffffffffffff808211156122ad576122ad61281a565b604051601f8301601f19908116603f011681019082821181831017156122d5576122d561281a565b816040528381528660208588010111156122ee57600080fd5b836020870160208301376000602085830101528094505050505092915050565b60006020828403121561232057600080fd5b61088482612265565b6000806040838503121561233c57600080fd5b61234583612265565b915061235360208401612265565b90509250929050565b60008060006060848603121561237157600080fd5b61237a84612265565b925061238860208501612265565b9150604084013590509250925092565b600080600080608085870312156123ae57600080fd5b6123b785612265565b93506123c560208601612265565b925060408501359150606085013567ffffffffffffffff8111156123e857600080fd5b6123f487828801612281565b91505092959194509250565b6000806040838503121561241357600080fd5b61241c83612265565b9150602083013567ffffffffffffffff81111561243857600080fd5b61244485828601612281565b9150509250929050565b6000806040838503121561246157600080fd5b61246a83612265565b946020939093013593505050565b60008060006060848603121561248d57600080fd5b61249684612265565b925060208401359150604084013567ffffffffffffffff8111156124b957600080fd5b6124c586828701612281565b9150509250925092565b6000602082840312156124e157600080fd5b5035919050565b600080604083850312156124fb57600080fd5b8235915061235360208401612265565b60006020828403121561251d57600080fd5b813561088481612830565b60006020828403121561253a57600080fd5b815161088481612830565b60008060008060008060c0878903121561255e57600080fd5b863567ffffffffffffffff8082111561257657600080fd5b6125828a838b01612281565b9750602089013591508082111561259857600080fd5b506125a589828a01612281565b955050604087013593506125bb60608801612265565b92506125c960808801612265565b91506125d760a08801612265565b90509295509295509295565b600081518084526125fb816020860160208601612770565b601f01601f19169290920160200192915050565b60008251612621818460208701612770565b9190910192915050565b7f416363657373436f6e74726f6c3a206163636f756e7420000000000000000000815260008351612663816017850160208801612770565b7f206973206d697373696e6720726f6c652000000000000000000000000000000060179184019182015283516126a0816028840160208801612770565b01602801949350505050565b60006001600160a01b0380871683528086166020840152508360408301526080606083015261218960808301846125e3565b6001600160a01b038416815282602082015260606040820152600061270660608301846125e3565b95945050505050565b60208152600061088460208301846125e3565b60008219821115612735576127356127ee565b500190565b6000816000190483118215151615612754576127546127ee565b500290565b60008282101561276b5761276b6127ee565b500390565b60005b8381101561278b578181015183820152602001612773565b838111156113fe5750506000910152565b6000816127ab576127ab6127ee565b506000190190565b600181811c908216806127c757607f821691505b602082108114156127e857634e487b7160e01b600052602260045260246000fd5b50919050565b634e487b7160e01b600052601160045260246000fd5b634e487b7160e01b600052603260045260246000fd5b634e487b7160e01b600052604160045260246000fd5b6001600160e01b031981168114610a4657600080fdfe416464726573733a206c6f772d6c6576656c2064656c65676174652063616c6c206661696c6564a2646970667358221220f797de56cc89b29df1847a01755aba52b4f16513029b1ee7556a1a13530182f864736f6c63430008070033608060405234801561001057600080fd5b506040516105b03803806105b083398101604081905261002f91610148565b61003833610047565b61004181610097565b50610178565b600080546001600160a01b038381166001600160a01b0319831681178455604051919092169283917f8be0079c531659141344cd1fd0a4f28419497f9722a3daafe3b4186f6b6457e09190a35050565b6100aa8161014260201b6102bd1760201c565b6101205760405162461bcd60e51b815260206004820152603360248201527f5570677261646561626c65426561636f6e3a20696d706c656d656e746174696f60448201527f6e206973206e6f74206120636f6e747261637400000000000000000000000000606482015260840160405180910390fd5b600180546001600160a01b0319166001600160a01b0392909216919091179055565b3b151590565b60006020828403121561015a57600080fd5b81516001600160a01b038116811461017157600080fd5b9392505050565b610429806101876000396000f3fe608060405234801561001057600080fd5b50600436106100675760003560e01c8063715018a611610050578063715018a6146100aa5780638da5cb5b146100b2578063f2fde38b146100c357600080fd5b80633659cfe61461006c5780635c60da1b14610081575b600080fd5b61007f61007a3660046103c3565b6100d6565b005b6001546001600160a01b03165b6040516001600160a01b03909116815260200160405180910390f35b61007f610175565b6000546001600160a01b031661008e565b61007f6100d13660046103c3565b6101db565b6000546001600160a01b031633146101355760405162461bcd60e51b815260206004820181905260248201527f4f776e61626c653a2063616c6c6572206973206e6f7420746865206f776e657260448201526064015b60405180910390fd5b61013e816102c3565b6040516001600160a01b038216907fbc7cd75a20ee27fd9adebab32041f755214dbc6bffa90cc0225b39da2e5c2d3b90600090a250565b6000546001600160a01b031633146101cf5760405162461bcd60e51b815260206004820181905260248201527f4f776e61626c653a2063616c6c6572206973206e6f7420746865206f776e6572604482015260640161012c565b6101d96000610366565b565b6000546001600160a01b031633146102355760405162461bcd60e51b815260206004820181905260248201527f4f776e61626c653a2063616c6c6572206973206e6f7420746865206f776e6572604482015260640161012c565b6001600160a01b0381166102b15760405162461bcd60e51b815260206004820152602660248201527f4f776e61626c653a206e6577206f776e657220697320746865207a65726f206160448201527f6464726573730000000000000000000000000000000000000000000000000000606482015260840161012c565b6102ba81610366565b50565b3b151590565b803b6103375760405162461bcd60e51b815260206004820152603360248201527f5570677261646561626c65426561636f6e3a20696d706c656d656e746174696f60448201527f6e206973206e6f74206120636f6e747261637400000000000000000000000000606482015260840161012c565b6001805473ffffffffffffffffffffffffffffffffffffffff19166001600160a01b0392909216919091179055565b600080546001600160a01b0383811673ffffffffffffffffffffffffffffffffffffffff19831681178455604051919092169283917f8be0079c531659141344cd1fd0a4f28419497f9722a3daafe3b4186f6b6457e09190a35050565b6000602082840312156103d557600080fd5b81356001600160a01b03811681146103ec57600080fd5b939250505056fea26469706673582212202951755a9086a4fb48b130c4c935b9a5661f5eae8ce9a8365451d900d3161c8464736f6c63430008070033a26469706673582212202767bb59511e3b6d2a7fa94cd2144dc1c92e0b2f7a2921a018c1c2ef2d45ac1264736f6c63430008070033",
  "linkReferences": {},
  "deployedLinkReferences": {}
}